:100000000C9476000C9497000C9497000C94970035
:100010000C9497000C9497000C9497000C94970004
:100020000C9497000C9497000C9497000C949700F4
:100030000C9497000C9497000C9497000C949700E4
:100040000C9497000C94280A0C9497000C94970039
:100050000C9497000C943F0A0C9497000C94970012
:100060000C9497000C9497000C9497000C949700B4
:100070000C9497000C9497000C9497000C949700A4
:100080000C9497000C9497000C9497000C94970094
:100090000C9497000C9497000C9497000C94970084
:1000A0000C9497000C9497000C9497000C94970074
:1000B0000C9497000C9497000C9497000C94970064
:1000C0000C9497000C9497000C9497000C94970054
:1000D0000C9497000C9497000C9497000C94970044
:1000E0000C9497000C94DA080C94C91311241FBEC9
:1000F000CFEFD1E2DEBFCDBF00E00CBF14E0A0E047
:10010000B2E0ECE2FBE200E00BBF02C007900D9210
:10011000A63BB107D9F727E0A6EBB4E001C01D92DA
:10012000A13EB207E1F70E94C9130C9494150C94F8
:1001300000008091B8069091B90680FF04C084E663
:100140008093B400089588EC8093B40008958AE009
:1001500092E00E949A0580913C0690913D060E9493
:10016000D9058EED92E00C949A05EFEDF4E08191C3
:100170008093B40085E0EF3DF807C9F708950F9329
:100180001F930197BC01990F880B990B20910B06C7
:1001900030910C0640910D0650910E060E943014CD
:1001A000FB01E370F078F7FF04C03197EC6FFF6F4D
:1001B0003196DF01B695BA2FAA27B795A795890181
:1001C000000F111F2091030630910406029FF001D9
:1001D000039FF00D129FF00D11249B0177FF02C0C9
:1001E0002D5F3F4FC90195958795959587950A96FF
:1001F0008E0F9F1FBC01990F880B990B00E810E030
:1002000028E336E0AD010E94D6031F910F910895B7
:100210000F931F9300E012E09C0150E040E062E089
:1002200070E080E090E00E94D6031F910F91089546
:10023000FFCFCF93DF9360E085E00E94AC07809111
:10024000BE0490E00E94D9058BE192E00E949A05DD
:100250000E944E040E94310660E086E00E94AC07D6
:1002600088E292E00E949A05C3EED5E06C817D8120
:100270008E819F810E9431060E944E040E943106A9
:1002800060E087E00E94AC0787E392E00E949A0555
:10029000888599850E94D90560E088E00E94AC07B6
:1002A0008FE492E00E949A058C859D850E94D90575
:1002B00060E089E00E94AC0783E692E00E949A0524
:1002C000888999890E94D90560E08AE00E94AC077C
:1002D00087E792E00E949A058C899D890E94D90542
:1002E00060E08BE00E94AC078AE892E00E949A05E9
:1002F00088A199A10E94D90560E08CE00E94AC071A
:100300008DE992E00E949A0588A599A50E94D905D9
:1003100060E08DE0DF91CF910C94AC078FEF8EBD44
:100320008091BF079091C0079C012F5F3F4F309392
:10033000C0072093BF078130924098F44FEF0DB46F
:1003400007FEFDCF4EBD8091BF079091C0079C0175
:100350002F5F3F4F3093C0072093BF0781309240FB
:1003600070F30DB407FEFDCF289A8FEF8EBD0DB44C
:1003700007FEFDCF1092BC0408958093BE0408953B
:100380008093BE046093BD040895CF93C82F8091DD
:10039000BC0481110E948E01C093BB04CF910895CB
:1003A0008091BA0408958093BA040895CF92DF92A1
:1003B000EF92FF92CF93C82F6A017B018091BC041A
:1003C00081110E948E01289888EC97E9A4E0B0E0A2
:1003D0003FEF3EBD0DB407FEFDCF2EB52F3F41F0E0
:1003E0002AE02A95F1F700C00197A109B10989F720
:1003F0008C2F80648EBD0DB407FEFDCF88E190E0A8
:10040000B701A601082E04C07695679557954795C4
:100410000A94D2F74EBD0DB407FEFDCF0897883F72
:100420002FEF920769F785E9CC2319F087E8C830E8
:10043000B9F48EBD0DB407FEFDCF90E02FEF2EBDB9
:100440000DB407FEFDCF8EB587FF04C09F3F11F0AE
:100450009F5FF5CFCF91FF90EF90DF90CF90089501
:100460008FEFE7CF8F929F92AF92BF92EF92FF9262
:100470000F931F93CF93DF93EA0179012091BC047E
:10048000222371F08090BB079090BC07A090BD071D
:10049000B090BE0786169706A806B90609F44BC0A9
:1004A0006093BB077093BC078093BD079093BE0712
:1004B0002091BA04233039F029E0660F771F881F96
:1004C000991F2A95D1F7AB01BC0181E10E94D601A9
:1004D00048EC57E964E070E02FEF811114C02EBDA5
:1004E0000DB407FEFDCF9EB59F3FE1F49AE09A95CB
:1004F000F1F700C0415051096109710981F79DE090
:100500009093BE0404C083E08093BE0480E0DF913A
:10051000CF911F910F91FF90EF90BF90AF909F9060
:100520008F9008959E3F09F45FC020E12093BE04A0
:100530009093BD04ECCF2091BF073091C0074217C4
:10054000530708F4ADCF8FEF8EBD8091BF07909118
:10055000C0078C179D0788F42FEF0DB407FEFDCF61
:100560002EBD8091BF079091C00701969093C00760
:100570008093BF078C179D0780F3A8014150510954
:1005800081F0F70198012E0D3F1D215031099FEF99
:100590000DB407FEFDCF8EB581939EBDE217F30724
:1005A000B9F70DB407FEFDCF8EB5F701E40FF51FC7
:1005B00080838091BF079091C007080F191F109387
:1005C000C0070093BF078091BB04882319F0011571
:1005D000124020F08091BC04811102C081E097CFCD
:1005E0000E948E0181E093CF1092C0071092BF0746
:1005F00081E08093BC04A7CF0F931F939A0100E082
:1006000012E050E040E00E9432021F910F910895E5
:10061000CF92DF92EF92FF921F93CF93DF93182F29
:10062000209A289A229A219A83E58CBD8AE090E04C
:100630002FEF2EBD0DB407FEFDCF0197D1F72898FF
:1006400081E092E02FEF2EBD0DB407FEFDCF3EB549
:100650000197C9F7DBE040E050E0BA0180E00E947A
:10066000D601C82F813089F0D150A9F781E080935D
:10067000BE04C093BD04C0E08C2FDF91CF911F91C9
:10068000FF90EF90DF90CF9008954AEA51E060E04C
:1006900070E088E00E94D601813009F440C082FFFA
:1006A00051C0C093BA0488E6C82E88E8D82E8EE1DF
:1006B000E82EF12C07C081E0C81AD108E108F10842
:1006C00009F462C08AE08A95F1F700C040E050E08A
:1006D000BA0187E30E94D6018091BA0440E050E05D
:1006E000BA01823021F440E050E060E070E489E239
:1006F0000E94D6018111DFCF8091BA04823041F18E
:100700008CB58C7F8CBD111103C08DB581608DBD02
:10071000289A8FEF8EBD0DB407FEFDCFADCF84E0DC
:1007200090E03FEF3EBD0DB407FEFDCF2EB5019723
:10073000C9F72A3A71F189E08093BE042093BD0481
:10074000C0E09ACF92E09093BE048093BD04ABCFFB
:1007500040E050E0BA018AE30E94D601811121C035
:100760008FEF8EBD0DB407FEFDCF8EB5807C803C33
:10077000A1F083E090E02FEF2EBD0DB407FEFDCF7A
:100780003EB50197C9F7BCCF86E08093BE04C0E0B8
:1007900073CF82E08093BA0486CF83E08093BA045B
:1007A000E8CF85E08093BE04C0E066CF0F931F932F
:1007B0000115110579F0F801E40FF51FE130F24061
:1007C00028F40E9432021F910F91089580E01F913A
:1007D0000F91089581E01F910F9108958091BC04BD
:1007E00081110C948E010895CF93DF93D62FC72FDC
:1007F00040E050E0BA010E94D60148EC57E964E0BD
:1008000070E02FEF811114C02EBD0DB407FEFDCF97
:100810009EB59F3FA1F49AE09A95F1F700C0415030
:1008200051096109710981F79DE09093BE0404C0EC
:1008300088E08093BE0480E0DF91CF9108959E3FD1
:1008400041F020E12093BE049093BD04DF91CF914D
:100850000895ED2FFC2F9F01205F3F4F9FEF9EBD1E
:100860000DB407FEFDCF8EB58193E217F307B9F7FC
:100870008FEF8EBD0DB407FEFDCF8EB58FEF8EBD11
:100880000DB407FEFDCF8EB5289A8FEF8EBD0DB447
:1008900007FEFDCF81E0DF91CF9108950F931F9365
:1008A000CF93DF93CDB7DEB760970FB6F894DEBF76
:1008B0000FBECDBFBE016F5F7F4F89E00E94F40382
:1008C000882309F447C08981807CA1F0803409F431
:1008D00045C087E08093BE0460E070E0CB01609685
:1008E0000FB6F894DEBF0FBECDBFDF91CF911F9141
:1008F0000F9108956F81637070E0762F6627770FF0
:10090000770F888590E0880F991F880F991F682BB3
:10091000792B89858295869586958370682B6F5F84
:100920007F4F90E080E02A852370220F3B8537FBC4
:10093000332730F9232B3E813F70230F3327331F9A
:100940002750310904C0660F771F881F991F2A9509
:10095000D2F7C5CF60E070E0CB01C1CF6885669566
:10096000669570E090E080E0CB01772766272A85C6
:10097000622B098510E0102F0027012E000C220B9E
:10098000330B602B712B822B932B6F5F7F4F8F4F1D
:100990009F4F4AE0660F771F881F991F4A95D1F72E
:1009A0009ECF4F925F926F927F928F929F92AF9263
:1009B000BF92CF92DF92EF92FF92CF93C12CD12CB6
:1009C0007601CFEF28EE422E23E0522E612C712CBF
:1009D0004C01B12CA12CCEBD0DB407FEFDCF9EB5B0
:1009E0009F3FB1F08FEFC81AD80AE80AF80A8AE0E8
:1009F0008A95F1F700C0C701B601A30192010E94D8
:100A0000301482169306A406B50628F780E001C0CC
:100A100081E0CF91FF90EF90DF90CF90BF90AF90AB
:100A20009F908F907F906F905F904F90089588EC8B
:100A300097E9A4E0B0E03FEF3EBD0DB407FEFDCF67
:100A40002EB52F3F69F42AE02A95F1F700C00197EF
:100A5000A109B10989F78DE08093BE0480E0089573
:100A60002E3F39F080E18093BE042093BD0480E0E6
:100A7000089581E00895BC0189E00C94F403BC0161
:100A80008AE00C94F403EEE6F0E0808182608083DB
:100A900084B5826084BD85B5826085BD8AE587BDE9
:100AA00089E09DE39093890080938800EFE6F0E071
:100AB000808182608083E1E8F0E080818D608083C6
:100AC0000895E0EBF0E0808183628083E1EBF0E069
:100AD000808181608083E1E0F1E0808180648083B7
:100AE000089582E08093C0001092C50080E1809359
:100AF000C400E1ECF0E080818861808308958091FA
:100B0000C000881F8827881F08958091C00087FF34
:100B100003C08091C60008958FEF08959091C100A1
:100B200095FDFCCF9091C00095FFF8CF8093C60053
:100B300081E00895FC012081222371F0319690918B
:100B4000C10095FDFCCF9091C00095FFF8CF209398
:100B5000C60021912111F3CF08950F931F93CF93D6
:100B6000DF93CB011092DE0418161906DCF4EEEDCB
:100B7000F4E0CFEBD4E0C095D0950AE010E09E0100
:100B80002E0F3F1FB8010E941C14805D8293CB0181
:100B90000097A9F7C90181549B4FDF91CF911F9115
:100BA0000F9108958FEB94E0DF91CF911F910F91FA
:100BB0000895EF92FF920F931F93CF93DF930097C7
:100BC000B1F11092DE04181619060CF043C0CEEDF8
:100BD000D4E00FEB14E0009510952AE0E22EF12C02
:100BE000F801EC0FFD1FB7010E941C1420E3280F31
:100BF0002A93CB010097A1F7E154FB4F31969091D6
:100C0000C10095FDFCCF9091C00095FFF8CF2093D7
:100C1000C60021912111F3CFDF91CF911F910F9148
:100C2000FF90EF9008958091C00085FD09C08091EC
:100C3000C10085FFF8CF8091C10085FDF8CFF3CFCB
:100C400080E38093C600DF91CF911F910F91FF90B9
:100C5000EF9008952091BF042223A9F3EFEBF4E075
:100C6000CDCFEF92FF920F931F93CF93DF93CB01E2
:100C70001092DE041816190664F5CEEDD4E00FEBE1
:100C800014E0009510952AE0E22EF12CF801EC0F0B
:100C9000FD1FB7010E941C1420E3280F2A93CB01EB
:100CA0000097A1F7E154FB4F31969091C10095FD5B
:100CB000FCCF9091C00095FFF8CF2093C600219102
:100CC0002111F3CFDF91CF911F910F91FF90EF9002
:100CD00008952091BF042223A9F3EFEBF4E0E4CFC1
:100CE000CF92DF92EF92FF920F931F93CF93DF93F8
:100CF000CDB7DEB7E1970FB6F894DEBF0FBECDBF1C
:100D000021E1E1EEF2E0DE01919601900D922A954B
:100D1000E1F79E012F5F3F4F690120E2D6011D924E
:100D20002A95E9F7FE01B0960EEF1FEF0C191D0989
:100D3000A8014E0F5F1FBA0131979C012F703078C8
:100D400037FF06C021503109206F3F6F2F5F3F4FA3
:100D5000A1E2EA2EF12CEC0EFD1E2E0D3F1DD90155
:100D60002C91208397FD0F9695958795959587955E
:100D7000959587959595879518161906CCF28091CB
:100D8000C10085FDFCCF8091C00085FFF8CF80E3D6
:100D90008093C6008091C10085FDFCCF8091C0008A
:100DA00085FFF8CF88E78093C6004B3151057CF072
:100DB0004F5F5F4FF601E40FF51F9601255E3F4F31
:100DC00080E38293E217F307E1F76AE170E0FE0146
:100DD000E60FF71F9281992391F06E5F7F4FD60146
:100DE000A60FB71F8091C10085FDFCCF8091C00088
:100DF00085FFF8CF9093C6009D919111F3CFE196B6
:100E00000FB6F894DEBF0FBECDBFDF91CF911F911B
:100E10000F91FF90EF90DF90CF900895CF92DF92E7
:100E2000EF92FF920F931F93CF93DF93CDB7DEB76F
:100E3000E1970FB6F894DEBF0FBECDBF21E1E1EE22
:100E4000F2E0DE01919601900D922A95E1F79E0164
:100E50002F5F3F4F690120E2D6011D922A95E9F7E5
:100E6000DE0190960EEF1FEF0C191D0998012A0F55
:100E70003B1FA9011197CB018F70907897FF04C099
:100E80000197806F9F6F0196E1E2F0E0EC0FFD1F8C
:100E90008E0F9F1FFC0180818C9377FF02C0615FE2
:100EA0007F4F759567957595679575956795759558
:100EB000679516161706D4F28091C10085FDFCCF08
:100EC0008091C00085FFF8CF80E38093C6008091B9
:100ED000C10085FDFCCF8091C00085FFF8CF88E779
:100EE0008093C6002B3131057CF02F5F3F4FD60138
:100EF000A20FB31F9601255E3F4F80E38E93A2178A
:100F0000B307E1F74AE150E0DE01A40FB51F1296E6
:100F10009C91992391F04E5F5F4FF601E40FF51F0E
:100F20008091C10085FDFCCF8091C00085FFF8CF86
:100F30009093C60091919111F3CFE1960FB6F8947A
:100F4000DEBF0FBECDBFDF91CF911F910F91FF90FC
:100F5000EF90DF90CF9008950F931F93CF93DF937F
:100F6000C62F282F30E0C9012115310561F0EEEDC3
:100F7000F4E00AE010E0B8010E941C14805D829346
:100F8000CB010097C1F7D0E0CE011092DE0420978C
:100F900061F0EEEDF4E00AE010E0B8010E941C14EC
:100FA000805D8293CB010097C1F79091C10095FDC0
:100FB000FCCF8091C00085FFF8CF8BE18093C60005
:100FC0009091C10095FDFCCF8091C00085FFF8CFC6
:100FD0008BE58093C600C9010E94D9058091C100AC
:100FE00085FDFCCF8091C00085FFF8CF8BE3809317
:100FF000C600CE010E94D9058091C10085FDFCCFBD
:101000008091C00085FFF8CF88E48093C600DF910F
:10101000CF911F910F9108959091C10095FDFCCF44
:101020009091C00095FFF8CF9BE19093C6009091FE
:10103000C10095FDFCCF9091C00095FFF8CF9BE5D6
:101040009093C6009091C10095FDFCCF9091C00097
:1010500095FFF8CF93E39093C6009091C10095FD62
:10106000FCCF9091C00095FFF8CF8093C60080918F
:10107000C10085FDFCCF8091C00085FFF8CF8DE6D3
:101080008093C6000895F0E0E4E2508160E8608358
:10109000E5E2508160E860830895F0E0E4E2508189
:1010A00060E86083E5E2508160E06083089518168F
:1010B00019066CF430E020E0EFE9FFE03197F1F73A
:1010C00000C000002F5F3F4F82179307A9F70895D4
:1010D000FC01208131818091C0004FEF87FD40915C
:1010E000C600F0E0E4E2508160E86083E5E2508110
:1010F00060E860831216130664F490E080E0EFE984
:10110000FFE03197F1F700C000000196281739077A
:10111000B1F7F0E0E4E2508160E86083E5E25081FD
:1011200060E060831216130664F490E080E0EFE95B
:10113000FFE03197F1F700C000000196281739074A
:10114000B1F7413631F04A3709F0C5CF2C5E3F4F39
:10115000C2CF24513109BFCF8091C10085FDFCCFA2
:101160008091C00085FFF8CF8BE18093C60080910D
:10117000C10085FDFCCF8091C00085FFF8CF8BE5D5
:101180008093C6008091C10085FDFCCF8091C00096
:1011900085FFF8CF82E38093C6008091C10085FD72
:1011A000FCCF8091C00085FFF8CF8AE48093C60011
:1011B0000895FFCF7894912F802FFD2FEC2F099465
:1011C0009F92AF92BF92CF92DF92EF92FF920F93D6
:1011D0001F93CF93DF936C01B62E072FA42E952E6D
:1011E0007901C9010E9466142091C3073091C40798
:1011F000F901E750FF4F40811FE1D901149FA00D75
:10120000B11D11245A969C938E9359974081D90110
:10121000149FA00DB11D1124AC014E0D5F1D5C96F5
:101220005C934E935B974081D901149FA00DB11D33
:10123000112411961C924081D901149FA00DB11D5B
:10124000112412961D921D921D921C921597408199
:10125000D901149FA00DB11D112441E050E0179653
:101260005C934E931697E7016697C80FD91F80814C
:10127000D901189FA00DB11D11245E96DC93CE9369
:101280005D9718820983BA829B82AC821D821E827E
:101290001F82188619861A861B861C861D861E8646
:1012A0001F86188A198A1A8A1B8A8AED98E09C8BF5
:1012B0008D8B90818081D901199FA00DB11D1124C2
:1012C0008C938081D901189FA00DB11D11245796D0
:1012D000BC92579758960C93D6010D900020E9F7D1
:1012E000AD018081B901819F600D711D1124CB0179
:1012F0004C195D09B6010A960E948B158091C307AF
:101300009091C407FC01E750FF4F2081DC01129F40
:10131000A00DB11D11245696FC92EE925597208196
:10132000129F800D911D1124DC011996DC93CE9340
:10133000189780818F5F8083DF91CF911F910F91EC
:10134000FF90EF90DF90CF90BF90AF909F90089567
:101350000E94710589E091E00E9466149093C40791
:101360008093C307FC01E850FF4F21E020833196B2
:10137000208386509F4FFC011082118212821382BB
:1013800008950F931F93CF936091C3077091C40783
:101390008B0108501F4FD801CC9111968C91815030
:1013A000990BC817190664F581E08C0F9FE108C0FE
:1013B0002C912150330B8F5F421753070CF080E0C4
:1013C000482F50E0FB01989FE00DF11D112426816C
:1013D00037812130310561F78C1751F3D8018C9397
:1013E00042815381648175814F5F5F4F6F4F7F4FA3
:1013F0004283538364837583CF911F910F91089526
:1014000080E0D4CF8091C3079091C407FC01E850DD
:10141000FF4F208187509F4FFC018081FFCF80913B
:10142000C3079091C407FC01E850FF4F208187500B
:101430009F4FDC018C918150990B281719061CF0E5
:1014400010828081089580818F5F808380810895DC
:101450001F920F920FB60F9211248F939F9380913A
:10146000E1059091E20501969093E2058093E105F4
:101470009F918F910F900FBE0F901F9018951F9204
:101480000F920FB60F9211248F939F938091B806FD
:101490009091B90601969093B9068093B8069F91F2
:1014A0008F910F900FBE0F901F9018952F923F9223
:1014B0004F925F926F927F928F929F92AF92BF9264
:1014C000CF92DF92EF92FF920F931F93CF93DF9310
:1014D000F0E0EEE52081EDE53081F72FE62F319346
:1014E0002083F92FE82F51916081F0E0EEE56083D1
:1014F000EDE55083DF91CF911F910F91FF90EF9019
:10150000DF90CF90BF90AF909F908F907F906F9023
:101510005F904F903F902F900895E091C307F09116
:10152000C407DF01A850BF4F4C919F012A5B3F4F7A
:10153000CF018796413031F016A215A2B9010E9461
:10154000560A0895EC5BFF4F11821082BC01C9015D
:101550000E94560A0895CF93DF9300D01F921F92E6
:10156000CDB7DEB785E0E2EFF2E0DE011196019043
:101570000D928A95E1F71092C6071092C5070E9456
:10158000430578948091C3079091C407FC01128EA3
:10159000118E148E138E168E158E108229EC33E167
:1015A000308F278B25E0FE013196DC011A960190E1
:1015B0000D922A95E1F7FC01168A158A21E030E0A8
:1015C00037832683BC01685F7F4F87960E94560A47
:1015D0000F900F900F900F900F90DF91CF91089583
:1015E0008130910599F070F08230910519F00397E0
:1015F00029F0089588E293E00C949A0587E093E03F
:101600000C949A0587E193E00C949A0587EF92E099
:101610000C949A05FC0181E0808311821282089566
:10162000CF93DF93EC01F89488818823C9F0188266
:101630008091C3079091C407FC01E850FF4F2081BF
:101640002A832981FFE12F9F800D911D112421E024
:1016500030E0FC01378326837894DF91CF910895A1
:101660008091C3079091C407FC01E850FF4F20818F
:10167000298320813FE1239F800D911D112423E0C8
:1016800030E0FC01378326830E948D0A1882E091A6
:10169000C307F091C407E850FF4F80818A83198205
:1016A0007894DF91CF910895CF93DF93EC01F89474
:1016B0008091C3079091C407FC01E850FF4F20813F
:1016C0003A81321721F07894DF91CF91089521E08B
:1016D000288329813FE1239F800D911D112421E062
:1016E00030E0FC01378326830E948D0A19827894AA
:1016F000DF91CF91089581EC97E00E94100B81EC6F
:1017000097E00E94540BF7CF0E947B0B0E947B0B4B
:101710000E947B0B08950895F894FC01208131818B
:10172000215031093183208378940895F894FC0185
:10173000208131812F5F3F4F31832083789408953A
:1017400008950895CF93DF93D0E0C0E0CE01C53176
:10175000D1050CF4FBC09C01255131092431310520
:1017600008F462C09C01295231092431310508F482
:101770002FC19C012D5331092431310508F4CFC10B
:1017800081559109449708F431C2C536D10509F055
:1017900062C260E082E00E94AC078EEF93E00E949C
:1017A0009A0560E083E00E94AC078EEF93E00E9410
:1017B0009A0560E084E00E94AC078EEF93E00E94FF
:1017C0009A0560E085E00E94AC078EEF93E00E94EE
:1017D0009A0560E086E00E94AC078EEF93E00E94DD
:1017E0009A0560E087E00E94AC078EEF93E00E94CC
:1017F0009A0560E088E00E94AC078EEF93E00E94BB
:101800009A0560E089E00E94AC078EEF93E00E94A9
:101810009A0586E690E0C6E6D0E09C0125513109A4
:101820002431310508F09ECF60E082E00E94AC07D1
:1018300086EF93E00E949A0560E083E00E94AC0787
:1018400086E30E940C0889E593E00E949A0560E017
:1018500084E00E94AC0786E30E940C0881E693E0D6
:101860000E949A0587E30E940C0885E793E00E9496
:101870009A0586E30E940C0885E693E00E949A058B
:1018800060E085E00E94AC0782E693E00E949A0542
:1018900087E30E940C0885E593E00E949A0586E3A1
:1018A0000E940C0885E693E00E949A0560E086E0BD
:1018B0000E94AC0783E693E00E949A0587E30E94AA
:1018C0000C0883E593E00E949A0586E30E940C08C9
:1018D00083E693E00E949A0560E087E00E94AC07EF
:1018E00082E693E00E949A0587E30E940C0885E552
:1018F00093E00E949A0586E30E940C0885E693E037
:101900000E949A0560E088E00E94AC0781E693E0BF
:101910000E949A0587E30E940C0885E793E00E94E5
:101920009A0586E30E940C0885E693E00E949A05DA
:1019300060E089E00E94AC0789E593E00E949A0587
:101940002196CE01C531D1050CF005CF60E082E0D3
:101950000E94AC0787EF93E00E949A0560E083E065
:101960000E94AC0788E393E00E949A0560E084E05F
:101970000E94AC0780E493E00E949A0560E085E055
:101980000E94AC0788E493E00E949A0560E086E03C
:101990000E94AC0781E593E00E949A0560E087E031
:1019A0000E94AC0788E493E00E949A0560E088E01A
:1019B0000E94AC0780E493E00E949A0560E089E011
:1019C0000E94AC0788E393E00E949A052196BECE60
:1019D00060E082E00E94AC0789E693E00E949A05ED
:1019E00060E083E00E94AC0788E393E00E949A05E0
:1019F00060E084E00E94AC0783E793E00E949A05D0
:101A000086E30E940C0883E693E00E949A0587E330
:101A10000E940C0884E493E00E949A0560E085E04F
:101A20000E94AC0784E793E00E949A0586E30E9437
:101A30000C0883E693E00E949A0587E30E940C0855
:101A400085E793E00E949A0586E30E940C0883E6EE
:101A500093E00E949A0587E30E940C0884E493E0D7
:101A60000E949A0560E086E00E94AC0785E793E05B
:101A70000E949A0586E30E940C0883E693E00E9488
:101A80009A0587E30E940C0885E593E00E949A0579
:101A900086E30E940C0883E693E00E949A0587E3A0
:101AA0000E940C0885E793E00E949A0560E087E0B9
:101AB0000E94AC0784E793E00E949A0586E30E94A7
:101AC0000C0883E693E00E949A0587E30E940C08C5
:101AD00085E793E00E949A0586E30E940C0883E65E
:101AE00093E00E949A0587E30E940C0884E493E047
:101AF0000E949A0560E088E00E94AC0783E793E0CB
:101B00000E949A0586E30E940C0883E693E00E94F7
:101B10009A0587E30E940C0884E493E04DCF60E0CF
:101B200082E00E94AC0787EF93E00E949A0560E094
:101B300083E00E94AC0788E393E00E949A0560E08E
:101B400084E00E94AC0780E493E00E949A0560E084
:101B500085E00E94AC0787E793E00E949A0586E340
:101B60000E940C0883E693E00E949A0587E30E9496
:101B70000C0883E493E00E949A0560E086E00E94EE
:101B8000AC0788E793E00E949A0586E30E940C0860
:101B900083E693E00E949A0587E30E940C0885E79C
:101BA00093E00E949A0586E30E940C0883E693E086
:101BB0000E949A0587E30E940C0888E793E00E9440
:101BC0009A0560E087E00E94AC0787E793E00E94F7
:101BD0009A0586E30E940C0883E693E00E949A052A
:101BE00087E30E940C0883E493E0DECE60E082E0AD
:101BF0000E94AC0789E693E00E949A0560E083E0CA
:101C00000E94AC0788E393E00E949A0560E084E0BC
:101C10000E94AC0780E493E00E949A0560E085E0B2
:101C20000E94AC0788E493E00E949A0560E086E099
:101C30000E94AC0785E593E00E949A0586E30E9426
:101C40000C0883E693E00E949A0587E30E940C0843
:101C500085E593E0A1CEDF91CF91089581EC97E0E7
:101C60000E94100B0E94A20B81EC97E00E94540B83
:101C7000F5CFCF93DF93D0E0C0E087E30E940C085C
:101C8000CE01C531D1050CF4BBC09C0125513109F1
:101C90002431310508F45DC09C01295231092431F9
:101CA000310508F4D4C09C012D533109243131058C
:101CB00008F434C181559109449708F4D6C1C5365A
:101CC000D10509F060C264E18AE10E94AC078EEFA1
:101CD00093E00E949A0564E18BE10E94AC078EEFCD
:101CE00093E00E949A0564E18CE10E94AC078EEFBC
:101CF00093E00E949A0564E18DE10E94AC078EEFAB
:101D000093E00E949A0564E18EE10E94AC078EEF99
:101D100093E00E949A0564E18FE10E94AC078EEF88
:101D200093E00E949A0564E180E20E94AC078EEF86
:101D300093E00E949A0587E30E940C0886E690E0F3
:101D4000C6E6D0E09C01255131092431310508F067
:101D5000A3CF64E18AE10E94AC078BE793E00E9485
:101D60009A0564E18BE10E94AC0788E393E00E944E
:101D70009A0564E18CE10E94AC0780E493E00E9444
:101D80009A0564E18DE10E94AC0788E493E00E942B
:101D90009A0564E18EE10E94AC0785E593E00E941C
:101DA0009A0586E30E940C0883E693E00E949A0558
:101DB00087E30E940C0885E593E00E949A0564E1A0
:101DC0008FE10E94AC0788E493E00E949A0564E1E9
:101DD00080E20E94AC0780E493E00E949A0564E1EF
:101DE00081E20E94AC0788E393E00E949A05219665
:101DF00087E30E940C08CE01C531D1050CF045CF18
:101E000064E18AE10E94AC0787EF93E00E949A05A3
:101E100064E18BE10E94AC0788E393E00E949A059D
:101E200064E18CE10E94AC0780E493E00E949A0593
:101E300064E18DE10E94AC0788E493E00E949A057A
:101E400064E18EE10E94AC0781E593E0B6CF64E1E6
:101E50008AE10E94AC0787EF93E00E949A0564E153
:101E60008BE10E94AC0788E393E00E949A0564E14D
:101E70008CE10E94AC0780E493E00E949A0564E143
:101E80008DE10E94AC0787E793E00E949A0586E304
:101E90000E940C0883E693E00E949A0587E30E9463
:101EA0000C0883E493E00E949A0564E18EE10E94AD
:101EB000AC0788E793E00E949A0586E30E940C082D
:101EC00083E693E00E949A0587E30E940C0885E769
:101ED00093E00E949A0586E30E940C0883E693E053
:101EE0000E949A0587E30E940C0888E793E00E940D
:101EF0009A0564E18FE10E94AC0787E793E00E94B6
:101F00009A0586E30E940C0883E693E00E949A05F6
:101F100087E30E940C0883E493E057CF64E18AE1F1
:101F20000E94AC078BE793E00E949A0564E18BE185
:101F30000E94AC0788E393E00E949A0564E18CE17B
:101F40000E94AC0783E793E00E949A0586E30E9413
:101F50000C0883E693E00E949A0587E30E940C0830
:101F600084E493E00E949A0564E18DE10E94AC074D
:101F700084E793E00E949A0586E30E940C0883E6BA
:101F800093E00E949A0587E30E940C0885E793E09E
:101F90000E949A0586E30E940C0883E693E00E9463
:101FA0009A0587E30E940C0884E493E00E949A0556
:101FB00064E18EE10E94AC0785E793E00E949A05F8
:101FC00086E30E940C0883E693E00E949A0587E36B
:101FD0000E940C0885E593E00E949A0586E30E9422
:101FE0000C0883E693E00E949A0587E30E940C08A0
:101FF00085E793E00E949A0564E18FE10E94AC07B7
:1020000084E793E00E949A0586E30E940C0883E629
:1020100093E00E949A0587E30E940C0885E793E00D
:102020000E949A0586E30E940C0883E693E00E94D2
:102030009A0587E30E940C0884E493E00E949A05C5
:1020400064E180E20E94AC0783E793E00E949A0576
:1020500086E30E940C0883E693E00E949A0587E3DA
:102060000E940C0884E493E0B8CE64E18AE10E9407
:10207000AC0786EF93E00E949A0564E18BE10E9431
:10208000AC0786E30E940C0889E593E00E949A055C
:1020900064E18CE10E94AC0786E30E940C0881E6B3
:1020A00093E00E949A0587E30E940C0885E793E07D
:1020B0000E949A0586E30E940C0885E693E00E9440
:1020C0009A0564E18DE10E94AC0782E693E00E94EC
:1020D0009A0587E30E940C0885E593E00E949A0523
:1020E00086E30E940C0885E693E00E949A0564E16D
:1020F0008EE10E94AC0783E693E00E949A0587E395
:102100000E940C0883E593E00E949A0586E30E94F2
:102110000C0883E693E00E949A0564E18FE10E9437
:10212000AC0782E693E00E949A0587E30E940C08C0
:1021300085E593E00E949A0586E30E940C0885E6F7
:1021400093E00E949A0564E180E20E94AC0781E678
:1021500093E00E949A0587E30E940C0885E793E0CC
:102160000E949A0586E30E940C0885E693E00E948F
:102170009A0564E181E20E94AC0789E593E00E9440
:102180009A0521967ACDDF91CF9108950E94390E5C
:102190000E94390E0E94390E0E94390E0C94390E9D
:1021A000EF92FF920F931F93CF93DF9368E281E04A
:1021B0000E94AC0790E080E0FC01EE0FFF1FE753A8
:1021C000F84F1182108201968A309105A9F7D0E06C
:1021D000C0E0EE24E394F12CE3C084E00E94AC075D
:1021E00083EB93E00E949A0568E285E00E94AC07C9
:1021F00085E893E00E949A058091CB079091CC07E7
:1022000068E2892B09F041C186E00E94AC0783EBAC
:1022100093E00E949A0568E287E00E94AC0785E897
:1022200093E00E949A058091CD079091CE0768E2D5
:10223000892B09F022C188E00E94AC0783EB93E070
:102240000E949A0568E289E00E94AC0785E893E065
:102250000E949A058091CF079091D00768E2892B60
:1022600009F003C18AE00E94AC0783EB93E00E946F
:102270009A0568E28BE00E94AC0785E893E00E9433
:102280009A058091D1079091D20768E2892B09F0D5
:10229000E4C08CE00E94AC0783EB93E00E949A05B7
:1022A00068E28DE00E94AC0785E893E00E949A0501
:1022B0008091D3079091D40768E2892B09F0C5C0BB
:1022C0008EE00E94AC0783EB93E00E949A0568E2DF
:1022D0008FE00E94AC0785E893E00E949A05809108
:1022E000D5079091D60768E2892B09F0A6C080E156
:1022F0000E94AC0783EB93E00E949A0568E281E1BB
:102300000E94AC0785E893E00E949A058091D70768
:102310009091D80768E2892B09F087C082E10E947A
:10232000AC0783EB93E00E949A0568E283E10E9488
:10233000AC0785E893E00E949A058091D9079091B7
:10234000DA0768E2892B09F068C084E10E94AC07D3
:1023500083EB93E00E949A0568E285E10E94AC0756
:1023600085E893E00E949A058091DB079091DC0755
:1023700068E2892B09F049C086E10E94AC0783EB33
:1023800093E00E949A0568E287E10E94AC0785E825
:1023900093E00E949A05E8010A30110509F47DC016
:1023A00068E281E00E94AC078E010F5F1F4FCC0FE7
:1023B000DD1FC753D84FF982E88268E281E00E94AE
:1023C000AC0785E893E00E949A0568E282E00E94EB
:1023D000AC078CE993E00E949A0568E283E00E94D2
:1023E000AC0785E893E00E949A058091C907909117
:1023F000CA0768E2892B09F4F0CE84E00E94AC079A
:102400008AEC93E00E949A05EFCE86E10E94AC0729
:102410008AEC93E00E949A05B6CF84E10E94AC0753
:102420008AEC93E00E949A0597CF82E10E94AC0764
:102430008AEC93E00E949A0578CF80E10E94AC0775
:102440008AEC93E00E949A0559CF8EE00E94AC0777
:102450008AEC93E00E949A053ACF8CE00E94AC0788
:102460008AEC93E00E949A051BCF8AE00E94AC0799
:102470008AEC93E00E949A05FCCE88E00E94AC07AB
:102480008AEC93E00E949A05DDCE86E00E94AC07BC
:102490008AEC93E00E949A05BECEDF91CF911F9106
:1024A0000F91FF90EF9008950E94AC080E94A20B3C
:1024B0000E94AC080E94390E0E94AC080E94D01005
:1024C000F3CF81EC97E00E94100B8091C5079091AB
:1024D000C6070A970CF45AC160E080E00E94AC077E
:1024E00083E30E940C0881EE93E00E949A0580919C
:1024F000C5079091C60764E670E00E941C14072E81
:10250000000C880B990B0E94310689EE93E00E9423
:102510009A0560E082E00E94AC0787E094E00E94A8
:102520009A05E091C307F091C407E750FF4F8081FF
:1025300090E00E94D905E091C307F091C407E750ED
:10254000FF4F8081882309F41CC1E12CD0E05BEAB5
:10255000352E61E2462EFDC0D39D812D1124869536
:10256000982F990F890FCD2FC81BC49DC02D112402
:10257000A8E1DA2EB7E1CB2E16E1B12E05E1A02EAF
:1025800084E1982E93E1892E22E1722E31E1632EAF
:1025900040E1542E1FE082E30E940C086C2F812F33
:1025A0000E94AC078BE194E00E949A05E091C3077A
:1025B000F091C4078FE1F82EFD9E80011124E00FF9
:1025C000F11F808190E00E94D9056C2F852D0E941B
:1025D000AC0787E294E00E949A05C8010A96209110
:1025E000C3073091C407820F931F0E949A056C2F76
:1025F000862D0E94AC0785E394E00E949A05E09145
:10260000C307F091C407E00FF11F8789908D0E94E6
:1026100070066C2F872D0E94AC0781E494E00E9425
:102620009A05E091C307F091C407E00FF11F838D75
:10263000948D20853185821B930B0E94D9058FE4F0
:1026400094E00E949A056C2F882D0E94AC0789E5C2
:1026500094E00E949A05E091C307F091C407E00F4F
:10266000F11F858996890E94D9058FE494E00E9424
:102670009A056C2F892D0E94AC0786E694E00E9493
:102680009A05E091C307F091C407E00FF11F808520
:1026900091850E9470066C2F8A2D0E94AC078DE7F1
:1026A00094E00E949A05E091C307F091C407E00FFF
:1026B000F11F818D928D0E9470066C2F8B2D0E94D0
:1026C000AC078AE894E00E949A05E091C307F09174
:1026D000C407E00FF11F838D948D0E9470066C2F4C
:1026E0008C2D0E94AC0786E994E00E949A058091A7
:1026F000C3079091C407FC01E850FF4F2081F29E70
:10270000800D911D1124FC0182819381A481B581EA
:102710000E94D9056C2F8D2D0E94AC0785EA94E0AC
:102720000E949A058091C3079091C407080F191F52
:10273000F801868197810E94F00ADF5FE091C3076C
:10274000F091C407E750FF4F8081F1E2EF0ED817F8
:10275000C0F4D33008F000CFCE2D9DE0D92E2CE070
:10276000C22E3BE0B32E4AE0A42E59E0952E68E03D
:10277000862E77E0772EE6E06E2EF5E05F2E14E0F1
:102780000ACF81EC97E00E94540B9BCE0E94AC08CC
:10279000A3CE1092E2051092E1051092B9061092B4
:1027A000B8060E94710581E00E940803C82F8111BC
:1027B0003AC080EB92E00E949A058C2F90E00E9434
:1027C000D90587EB94E00E940A0B0E9443050E9402
:1027D0006105789400E012E023EE35E050E040E03F
:1027E00062E070E080E090E00E94D60382E090E03A
:1027F0000E94BF000E94A7000E9419018091B806A4
:102800009091B90680FD14C088EC8093B4000E94BA
:10281000A700EFEDF4E081918093B40085E0EF3DF7
:10282000F807C9F7F4CF87EC92E00E949A05C5CF6C
:1028300084E68093B400EBCF97FB072E16F4009448
:1028400007D077FD09D00E94521407FC05D03EF452
:10285000909581959F4F0895709561957F4F08954C
:10286000A1E21A2EAA1BBB1BFD010DC0AA1FBB1F94
:10287000EE1FFF1FA217B307E407F50720F0A21B06
:10288000B30BE40BF50B661F771F881F991F1A9473
:1028900069F760957095809590959B01AC01BD019D
:1028A000CF010895AA1BBB1B51E107C0AA1FBB1F84
:1028B000A617B70710F0A61BB70B881F991F5A95CC
:1028C000A9F780959095BC01CD0108950F931F93B2
:1028D000CF93DF938230910510F482E090E0E09195
:1028E000DF07F091E00730E020E0B0E0A0E03097B3
:1028F00099F42115310509F44AC0281B390B2430FD
:102900003105D8F58A819B816115710589F1FB013B
:1029100093838283FE0111C0408151810281138122
:1029200048175907E0F04817590799F4109761F0D4
:1029300012960C93129713961C933296CF01DF9147
:10294000CF911F910F9108950093DF071093E00737
:10295000F4CF2115310551F04217530738F0A90182
:10296000DB019A01BD01DF01F801C1CFEF01F9CF11
:102970009093E0078093DF07CDCFFE01E20FF31FB6
:10298000819391932250310939832883D7CF2091A5
:10299000DD073091DE07232B41F4209106023091B0
:1029A00007023093DE072093DD0720910402309167
:1029B00005022115310541F42DB73EB740910802BB
:1029C00050910902241B350BE091DD07F091DE07E1
:1029D000E217F307A0F42E1B3F0B2817390778F0F6
:1029E000AC014E5F5F4F2417350748F04E0F5F1F55
:1029F0005093DE074093DD07819391939FCFF0E0E2
:102A0000E0E09CCFCF93DF930097E9F0FC01329791
:102A100013821282A091DF07B091E007ED0130E050
:102A200020E01097A1F420813181820F931F209123
:102A3000DD073091DE072817390709F061C0F093F0
:102A4000DE07E093DD07DF91CF910895EA01CE170D
:102A5000DF07E8F54A815B819E0141155105B1F719
:102A6000E901FB83EA8349915991C40FD51FEC1703
:102A7000FD0761F4808191810296840F951FE90121
:102A800099838883828193819B838A83F0E0E0E04D
:102A900012968D919C9113970097B9F52D913C91C9
:102AA0001197CD010296820F931F2091DD0730917F
:102AB000DE072817390739F6309751F51092E007ED
:102AC0001092DF07B093DE07A093DD07BCCFD3835E
:102AD000C28340815181840F951FC817D90761F4C3
:102AE0004E5F5F4F88819981480F591F5183408302
:102AF0008A819B81938382832115310509F0B0CFB0
:102B0000F093E007E093DF079ECFFD01DC01C0CF2B
:102B100013821282D7CFFB01DC0102C001900D921B
:0C2B200041505040D8F70895F894FFCFC2
:102B2C000A0000000000E1072000526F6F7420695A
:102B3C006E6F64652073697A653A007364436172E1
:102B4C006453697A653A2000426C6F636B7320633F
:102B5C006F756E743A2000526573657276656420E9
:102B6C00626C6F636B7320636F756E743A200046F2
:102B7C0072656520626C6F636B7320636F756E7426
:102B8C003A20004672656520696E6F646573206338
:102B9C006F756E743A2000466972737420646174A8
:102BAC006120626C6F636B3A2000426C6F636B73D5
:102BBC00207065722067726F75703A2000496E6FD5
:102BCC00646573207065722067726F75703A2000AF
:102BDC004E6F207364206361726420646574656356
:102BEC007465642E0A0D004361726420737563630F
:102BFC0065737366756C6C7920726561642E0A0D51
:102C0C00003031323334353637383941424344455C
:102C1C0046006D61696E005448524541445F52450F
:102C2C00414459202020005448524541445F5741AB
:102C3C004954494E4720005448524541445F52552F
:102C4C004E4E494E472020005448524541445F5354
:102C5C004C454550494E4700202020232020200081
:102C6C002020232323202000202323232323202060
:102C7C000023232323232323002020203020202063
:102C8C00002020300030202000434F4E53554D493A
:102C9C004E4700202023002023230050524F445540
:102CAC0043494E47002B2D2D2D2D2D2D2D2D2D2D0A
:102CBC002D2D2D2D2D2D2D2D2D2D2B007C20426FCE
:102CCC00756E6465642042756666657220202020EE
:102CDC00207C007C20202020202020202020202050
:102CEC0020202020202020207C007C232323232331
:102CFC002323232323232323232323232323237C3F
:102D0C000054696D65723A2000202020202020207C
:102D1C0020202020202020202020202020202020A7
:102D2C00202020202020004E756D626572206F6679
:102D3C0020546872656164733A200054687265614E
:102D4C00642049643A2000546872656164206E61A5
:102D5C006D653A20005468726561642050433A20D6
:102D6C0000537461636B2055736167653A200020D2
:102D7C00627974657320202000537461636B205357
:102D8C00697A653A200043757272656E7420746FAF
:102D9C0070206F6620737461636B3A20005374610A
:102DAC00636B20626173653A2000537461636B201E
:102DBC00656E643A200053636865642E20436F751A
:102DCC006E743A20005468726561642053746174A7
:062DDC0075733A200000AF
:00000001FF
