:100000000C9476000C9497000C9497000C94970035
:100010000C9497000C9497000C9497000C94970004
:100020000C9497000C9497000C9497000C949700F4
:100030000C9497000C9497000C9497000C949700E4
:100040000C9497000C94A5090C9497000C949700BD
:100050000C9497000C94BC090C9497000C94970096
:100060000C9497000C9497000C9497000C949700B4
:100070000C9497000C9497000C9497000C949700A4
:100080000C9497000C9497000C9497000C94970094
:100090000C9497000C9497000C9497000C94970084
:1000A0000C9497000C9497000C9497000C94970074
:1000B0000C9497000C9497000C9497000C94970064
:1000C0000C9497000C9497000C9497000C94970054
:1000D0000C9497000C9497000C9497000C94970044
:1000E0000C9497000C9457080C94461311241FBECF
:1000F000CFEFD1E2DEBFCDBF00E00CBF14E0A0E047
:10010000B2E0E2EFF9E200E00BBF02C007900D920F
:10011000AC31B107D9F727E0ACE1B4E001C01D92E2
:10012000A734B207E1F70E9446130C94F7140C941D
:10013000000086E092E00E9417058091A205909150
:10014000A3050E94560585E492E00C941705E5E4AA
:10015000F4E081918093B40085E0E534F807C9F7B5
:1001600008950F931F930197BC01990F880B990B6A
:10017000209171053091720540917305509174057D
:100180000E949313FB01E370F078F7FF04C03197EE
:10019000EC6FFF6F3196DF01B695BA2FAA27B7959E
:1001A000A7958901000F111F2091690530916A05FB
:1001B000029FF001039FF00D129FF00D11249B018F
:1001C00077FF02C02D5F3F4FC901959587959595A3
:1001D00087950A968E0F9F1FBC01990F880B990B6C
:1001E00000E810E02EE935E0AD010E9453031F91B5
:1001F0000F9108950F931F9304E510E09C0150E0C8
:1002000040E062E070E080E090E00E9453031F91C4
:100210000F910895FFCF8FEF8EBD809125079091AC
:1002200026079C012F5F3F4F309326072093250719
:100230008130924098F44FEF0DB407FEFDCF4EBDD4
:1002400080912507909126079C012F5F3F4F3093A7
:100250002607209325078130924070F30DB407FEE6
:10026000FDCF289A8FEF8EBD0DB407FEFDCF109203
:1002700022040895809324040895809324046093B5
:1002800023040895CF93C82F8091220481110E94E6
:100290000B01C0932104CF9108958091200408950B
:1002A000809320040895CF92DF92EF92FF92CF9334
:1002B000C82F6A017B018091220481110E940B01E9
:1002C000289888EC97E9A4E0B0E03FEF3EBD0DB47C
:1002D00007FEFDCF2EB52F3F41F02AE02A95F1F71A
:1002E00000C00197A109B10989F78C2F80648EBDE8
:1002F0000DB407FEFDCF88E190E0B701A601082EFE
:1003000004C076956795579547950A94D2F74EBDE8
:100310000DB407FEFDCF0897883F2FEF920769F7CE
:1003200085E9CC2319F087E8C830B9F48EBD0DB447
:1003300007FEFDCF90E02FEF2EBD0DB407FEFDCFE1
:100340008EB587FF04C09F3F11F09F5FF5CFCF911F
:10035000FF90EF90DF90CF9008958FEFE7CF8F92CF
:100360009F92AF92BF92EF92FF920F931F93CF9302
:10037000DF93EA01790120912204222371F0809019
:10038000210790902207A0902307B090240786169B
:100390009706A806B90609F44BC06093210770932D
:1003A0002207809323079093240720912004233071
:1003B00039F029E0660F771F881F991F2A95D1F71A
:1003C000AB01BC0181E10E94530148EC57E964E0B4
:1003D00070E02FEF811114C02EBD0DB407FEFDCFCC
:1003E0009EB59F3FE1F49AE09A95F1F700C0415025
:1003F00051096109710981F79DE09093240404C0BB
:1004000083E08093240480E0DF91CF911F910F91CE
:10041000FF90EF90BF90AF909F908F9008959E3F78
:1004200009F45FC020E12093240490932304ECCFCF
:1004300020912507309126074217530708F4ADCFC6
:100440008FEF8EBD80912507909126078C179D0711
:1004500088F42FEF0DB407FEFDCF2EBD8091250748
:1004600090912607019690932607809325078C1775
:100470009D0780F3A8014150510981F0F7019801CF
:100480002E0D3F1D215031099FEF0DB407FEFDCF0A
:100490008EB581939EBDE217F307B9F70DB407FE41
:1004A000FDCF8EB5F701E40FF51F808380912507FE
:1004B00090912607080F191F109326070093250710
:1004C00080912104882319F00115124020F08091B9
:1004D0002204811102C081E097CF0E940B0181E0CC
:1004E00093CF109226071092250781E08093220473
:1004F000A7CF0F931F939A0100E012E050E040E075
:100500000E94AF011F910F910895CF92DF92EF9259
:10051000FF921F93CF93DF93182F209A289A229A45
:10052000219A83E58CBD8AE090E02FEF2EBD0DB4BB
:1005300007FEFDCF0197D1F7289881E092E02FEFD9
:100540002EBD0DB407FEFDCF3EB50197C9F7DBE028
:1005500040E050E0BA0180E00E945301C82F813092
:1005600089F0D150A9F781E080932404C09323043B
:10057000C0E08C2FDF91CF911F91FF90EF90DF9023
:10058000CF9008954AEA51E060E070E088E00E9470
:100590005301813009F440C082FF51C0C093200450
:1005A00088E6C82E88E8D82E8EE1E82EF12C07C008
:1005B00081E0C81AD108E108F10809F462C08AE0B4
:1005C0008A95F1F700C040E050E0BA0187E30E944D
:1005D00053018091200440E050E0BA01823021F4C0
:1005E00040E050E060E070E489E20E945301811134
:1005F000DFCF80912004823041F18CB58C7F8CBD9F
:10060000111103C08DB581608DBD289A8FEF8EBD0D
:100610000DB407FEFDCFADCF84E090E03FEF3EBDCF
:100620000DB407FEFDCF2EB50197C9F72A3A71F137
:1006300089E08093240420932304C0E09ACF92E0C1
:100640009093240480932304ABCF40E050E0BA01A0
:100650008AE30E945301811121C08FEF8EBD0DB43A
:1006600007FEFDCF8EB5807C803CA1F083E090E05A
:100670002FEF2EBD0DB407FEFDCF3EB50197C9F794
:10068000BCCF86E080932404C0E073CF82E08093E7
:10069000200486CF83E080932004E8CF85E0809318
:1006A0002404C0E066CF0F931F930115110579F064
:1006B000F801E40FF51FE130F24028F40E94AF0189
:1006C0001F910F91089580E01F910F91089581E08F
:1006D0001F910F9108958091220481110C940B01B8
:1006E0000895CF93DF93D62FC72F40E050E0BA0193
:1006F0000E94530148EC57E964E070E02FEF81114C
:1007000014C02EBD0DB407FEFDCF9EB59F3FA1F4D2
:100710009AE09A95F1F700C04150510961097109B9
:1007200081F79DE09093240404C088E08093240422
:1007300080E0DF91CF9108959E3F41F020E120932A
:10074000240490932304DF91CF910895ED2FFC2F83
:100750009F01205F3F4F9FEF9EBD0DB407FEFDCF71
:100760008EB58193E217F307B9F78FEF8EBD0DB405
:1007700007FEFDCF8EB58FEF8EBD0DB407FEFDCF0A
:100780008EB5289A8FEF8EBD0DB407FEFDCF81E0A8
:10079000DF91CF9108950F931F93CF93DF93CDB740
:1007A000DEB760970FB6F894DEBF0FBECDBFBE01B7
:1007B0006F5F7F4F89E00E947103882309F447C06F
:1007C0008981807CA1F0803409F445C087E0809362
:1007D000240460E070E0CB0160960FB6F894DEBFB1
:1007E0000FBECDBFDF91CF911F910F9108956F8103
:1007F000637070E0762F6627770F770F888590E01B
:10080000880F991F880F991F682B792B89858295EE
:10081000869586958370682B6F5F7F4F90E080E0B0
:100820002A852370220F3B8537FB332730F9232B92
:100830003E813F70230F3327331F2750310904C0F7
:10084000660F771F881F991F2A95D2F7C5CF60E0E2
:1008500070E0CB01C1CF68856695669570E090E049
:1008600080E0CB01772766272A85622B098510E077
:10087000102F0027012E000C220B330B602B712B45
:10088000822B932B6F5F7F4F8F4F9F4F4AE0660FF6
:10089000771F881F991F4A95D1F79ECF4F925F927D
:1008A0006F927F928F929F92AF92BF92CF92DF9280
:1008B000EF92FF92CF93C12CD12C7601CFEF28EE8F
:1008C000422E23E0522E612C712C4C01B12CA12C14
:1008D000CEBD0DB407FEFDCF9EB59F3FB1F08FEFAB
:1008E000C81AD80AE80AF80A8AE08A95F1F700C01F
:1008F000C701B601A30192010E94931382169306C9
:10090000A406B50628F780E001C081E0CF91FF90F2
:10091000EF90DF90CF90BF90AF909F908F907F909F
:100920006F905F904F90089588EC97E9A4E0B0E055
:100930003FEF3EBD0DB407FEFDCF2EB52F3F69F44E
:100940002AE02A95F1F700C00197A109B10989F7BA
:100950008DE08093240480E008952E3F39F080E1FB
:10096000809324042093230480E0089581E0089577
:10097000BC0189E00C947103BC018AE00C94710302
:10098000EEE6F0E080818260808384B5826084BD81
:1009900085B5826085BD8AE587BD89E09DE390933A
:1009A000890080938800EFE6F0E080818260808398
:1009B000E1E8F0E080818D6080830895E0EBF0E075
:1009C000808183628083E1EBF0E0808181608083BD
:1009D000E1E0F1E0808180648083089582E080938B
:1009E000C0001092C50080E18093C400E1ECF0E00B
:1009F00080818861808308958091C000881F882746
:100A0000881F08958091C00087FF03C08091C600B1
:100A100008958FEF08959091C10095FDFCCF9091BE
:100A2000C00095FFF8CF8093C60081E00895FC01D7
:100A30002081222371F031969091C10095FDFCCF69
:100A40009091C00095FFF8CF2093C600219121110D
:100A5000F3CF08950F931F93CF93DF93CB011092A1
:100A6000440418161906DCF4E4E4F4E0C5E2D4E02A
:100A7000C095D0950AE010E09E012E0F3F1FB801EF
:100A80000E947F13805D8293CB010097A9F7C90173
:100A90008B5D9B4FDF91CF911F910F91089585E260
:100AA00094E0DF91CF911F910F910895EF92FF9203
:100AB0000F931F93CF93DF930097B1F110924404EB
:100AC000181619060CF043C0C4E4D4E005E214E0A3
:100AD000009510952AE0E22EF12CF801EC0FFD1F95
:100AE000B7010E947F1320E3280F2A93CB010097C0
:100AF000A1F7EB5DFB4F31969091C10095FDFCCFC6
:100B00009091C00095FFF8CF2093C600219121114C
:100B1000F3CFDF91CF911F910F91FF90EF90089548
:100B20008091C00085FD09C08091C10085FFF8CF8C
:100B30008091C10085FDF8CFF3CF80E38093C6009C
:100B4000DF91CF911F910F91FF90EF900895209129
:100B500025042223A9F3E5E2F4E0CDCFEF92FF9242
:100B60000F931F93CF93DF93CB0110924404181679
:100B7000190664F5C4E4D4E005E214E0009510958C
:100B80002AE0E22EF12CF801EC0FFD1FB7010E94C4
:100B90007F1320E3280F2A93CB010097A1F7EB5D89
:100BA000FB4F31969091C10095FDFCCF9091C00014
:100BB00095FFF8CF2093C60021912111F3CFDF914B
:100BC000CF911F910F91FF90EF90089520912504F0
:100BD0002223A9F3E5E2F4E0E4CFCF92DF92EF9293
:100BE000FF920F931F93CF93DF93CDB7DEB7E197BB
:100BF0000FB6F894DEBF0FBECDBF21E1E8E4F2E00E
:100C0000DE01919601900D922A95E1F79E012F5FEA
:100C10003F4F690120E2D6011D922A95E9F7FE01B6
:100C2000B0960EEF1FEF0C191D09A8014E0F5F1FA4
:100C3000BA0131979C012F70307837FF06C02150E0
:100C40003109206F3F6F2F5F3F4FA1E2EA2EF12C59
:100C5000EC0EFD1E2E0D3F1DD9012C91208397FD1A
:100C60000F969595879595958795959587959595E3
:100C7000879518161906CCF28091C10085FDFCCF2E
:100C80008091C00085FFF8CF80E38093C6008091FB
:100C9000C10085FDFCCF8091C00085FFF8CF88E7BB
:100CA0008093C6004B3151057CF04F5F5F4FF601DA
:100CB000E40FF51F9601255E3F4F80E38293E21714
:100CC000F307E1F76AE170E0FE01E60FF71F92819A
:100CD000992391F06E5F7F4FD601A60FB71F8091C9
:100CE000C10085FDFCCF8091C00085FFF8CF9093B7
:100CF000C6009D919111F3CFE1960FB6F894DEBF37
:100D00000FBECDBFDF91CF911F910F91FF90EF905C
:100D1000DF90CF900895CF92DF92EF92FF920F93E2
:100D20001F93CF93DF93CDB7DEB7E1970FB6F8945B
:100D3000DEBF0FBECDBF21E1E8E4F2E0DE01919617
:100D400001900D922A95E1F79E012F5F3F4F6901B7
:100D500020E2D6011D922A95E9F7DE0190960EEF6A
:100D60001FEF0C191D0998012A0F3B1FA9011197AC
:100D7000CB018F70907897FF04C00197806F9F6FB1
:100D80000196E1E2F0E0EC0FFD1F8E0F9F1FFC01CA
:100D900080818C9377FF02C0615F7F4F7595679567
:100DA00075956795759567957595679516161706E8
:100DB000D4F28091C10085FDFCCF8091C00085FFF9
:100DC000F8CF80E38093C6008091C10085FDFCCF01
:100DD0008091C00085FFF8CF88E78093C6002B3153
:100DE00031057CF02F5F3F4FD601A20FB31F960154
:100DF000255E3F4F80E38E93A217B307E1F74AE1E8
:100E000050E0DE01A40FB51F12969C91992391F03A
:100E10004E5F5F4FF601E40FF51F8091C10085FD25
:100E2000FCCF8091C00085FFF8CF9093C6009191D0
:100E30009111F3CFE1960FB6F894DEBF0FBECDBF90
:100E4000DF91CF911F910F91FF90EF90DF90CF90A6
:100E500008950F931F93CF93DF93C62F282F30E071
:100E6000C9012115310561F0E4E4F4E00AE010E085
:100E7000B8010E947F13805D8293CB010097C1F778
:100E8000D0E0CE0110924404209761F0E4E4F4E055
:100E90000AE010E0B8010E947F13805D8293CB01CD
:100EA0000097C1F79091C10095FDFCCF8091C000E3
:100EB00085FFF8CF8BE18093C6009091C10095FD2E
:100EC000FCCF8091C00085FFF8CF8BE58093C600F2
:100ED000C9010E9456058091C10085FDFCCF80911B
:100EE000C00085FFF8CF8BE38093C600CE010E943F
:100EF00056058091C10085FDFCCF8091C00085FF23
:100F0000F8CF88E48093C600DF91CF911F910F91B5
:100F100008959091C10095FDFCCF9091C00095FF80
:100F2000F8CF9BE19093C6009091C10095FDFCCF56
:100F30009091C00095FFF8CF9BE59093C6009091EB
:100F4000C10095FDFCCF9091C00095FFF8CF93E3D1
:100F50009093C6009091C10095FDFCCF9091C00088
:100F600095FFF8CF8093C6008091C10085FDFCCF2E
:100F70008091C00085FFF8CF8DE68093C60008956C
:100F8000F0E0E4E2508160E86083E5E2508160E8EF
:100F900060830895F0E0E4E2508160E86083E5E278
:100FA000508160E060830895181619066CF430E0F3
:100FB00020E0EFE9FFE03197F1F700C000002F5F7C
:100FC0003F4F82179307A9F70895FC0120813181D3
:100FD0008091C0004FEF87FD4091C600F0E0E4E251
:100FE000508160E86083E5E2508160E8608312161A
:100FF000130664F490E080E0EFE9FFE03197F1F749
:1010000000C00000019628173907B1F7F0E0E4E2CC
:10101000508160E86083E5E2508160E060831216F1
:10102000130664F490E080E0EFE9FFE03197F1F718
:1010300000C00000019628173907B1F7413631F09A
:101040004A3709F0C5CF2C5E3F4FC2CF245131093A
:10105000BFCF8091C10085FDFCCF8091C00085FF8E
:10106000F8CF8BE18093C6008091C10085FDFCCF55
:101070008091C00085FFF8CF8BE58093C6008091FA
:10108000C10085FDFCCF8091C00085FFF8CF82E3D1
:101090008093C6008091C10085FDFCCF8091C00087
:1010A00085FFF8CF8AE48093C6000895FFCF789437
:1010B000912F802FFD2FEC2F09949F92AF92BF921A
:1010C000CF92DF92EF92FF920F931F93CF93DF9314
:1010D0006C01B62E072FA42E952E7901C9010E940E
:1010E000C9132091290730912A07F901E750FF4FD2
:1010F00040811FE1D901149FA00DB11D11245A9602
:101100009C938E9359974081D901149FA00DB11DD6
:101110001124AC014E0D5F1D5C965C934E935B9762
:101120004081D901149FA00DB11D112411961C926C
:101130004081D901149FA00DB11D112412961D925A
:101140001D921D921C9215974081D901149FA00DEC
:10115000B11D112441E050E017965C934E93169711
:10116000E7016697C80FD91F8081D901189FA00D8C
:10117000B11D11245E96DC93CE935D97188209838E
:10118000BA829B82AC821D821E821F8218861986BB
:101190001A861B861C861D861E861F86188A198A3B
:1011A0001A8A1B8A87E598E09C8B8D8B90818081C1
:1011B000D901199FA00DB11D11248C938081D901F3
:1011C000189FA00DB11D11245796BC9257975896A1
:1011D0000C93D6010D900020E9F7AD018081B90193
:1011E000819F600D711D1124CB014C195D09B60161
:1011F0000A960E94EE148091290790912A07FC011B
:10120000E750FF4F2081DC01129FA00DB11D11247A
:101210005696FC92EE9255972081129F800D911D5B
:101220001124DC011996DC93CE93189780818F5F8F
:101230008083DF91CF911F910F91FF90EF90DF900E
:10124000CF90BF90AF909F9008950E94EE0489E0E8
:1012500091E00E94C91390932A0780932907FC010B
:10126000E850FF4F21E020833196208386509F4F26
:10127000FC01108211821282138208950F931F9332
:10128000CF936091290770912A078B0108501F4F57
:10129000D801CC9111968C918150990BC8171906E1
:1012A00064F581E08C0F9FE108C02C912150330B35
:1012B0008F5F421753070CF080E0482F50E0FB018E
:1012C000989FE00DF11D11242681378121303105D1
:1012D00061F78C1751F3D8018C934281538164815B
:1012E00075814F5F5F4F6F4F7F4F4283538364839E
:1012F0007583CF911F910F91089580E0D4CF809195
:10130000290790912A07FC01E850FF4F2081875060
:101310009F4FFC018081FFCF8091290790912A0780
:10132000FC01E850FF4F208187509F4FDC018C91DA
:101330008150990B281719061CF01082808108959E
:1013400080818F5F8083808108951F920F920FB6F6
:101350000F9211248F939F93809147059091480598
:10136000019690934805809347059F918F910F9028
:101370000FBE0F901F9018951F920F920FB60F92ED
:1013800011248F939F9380911E0690911F060196C2
:1013900090931F0680931E069F918F910F900FBE12
:1013A0000F901F9018952F923F924F925F926F92DD
:1013B0007F928F929F92AF92BF92CF92DF92EF92E5
:1013C000FF920F931F93CF93DF93F0E0EEE5208120
:1013D000EDE53081F72FE62F31932083F92FE82FA9
:1013E00051916081F0E0EEE56083EDE55083DF919F
:1013F000CF911F910F91FF90EF90DF90CF90BF9012
:10140000AF909F908F907F906F905F904F903F90A4
:101410002F900895E0912907F0912A07DF01A85045
:10142000BF4F4C919F012A5B3F4FCF0187964130C0
:1014300031F016A215A2B9010E94D3090895EC5B00
:10144000FF4F11821082BC01C9010E94D309089587
:10145000CF93DF9300D01F921F92CDB7DEB785E008
:10146000E9E5F2E0DE01119601900D928A95E1F72F
:1014700010922C0710922B070E94C0047894809140
:10148000290790912A07FC01128E118E148E138E5B
:10149000168E158E108226E433E1308F278B25E0DF
:1014A000FE013196DC011A9601900D922A95E1F722
:1014B000FC01168A158A21E030E037832683BC01BF
:1014C000685F7F4F87960E94D3090F900F900F900F
:1014D0000F900F90DF91CF9108958130910599F091
:1014E00070F08230910519F0039729F008958FE884
:1014F00092E00C9417058EE692E00C9417058EE7A7
:1015000092E00C9417058EE592E00C941705FC010F
:1015100081E08083118212820895CF93DF93EC01E2
:10152000F89488818823C9F01882809129079091C6
:101530002A07FC01E850FF4F20812A832981FFE11F
:101540002F9F800D911D112421E030E0FC01378395
:1015500026837894DF91CF91089580912907909107
:101560002A07FC01E850FF4F2081298320813FE1B9
:10157000239F800D911D112423E030E0FC0137836F
:1015800026830E940A0A1882E0912907F0912A070F
:10159000E850FF4F80818A8319827894DF91CF9140
:1015A0000895CF93DF93EC01F894809129079091EF
:1015B0002A07FC01E850FF4F20813A81321721F0C1
:1015C0007894DF91CF91089521E0288329813FE12C
:1015D000239F800D911D112421E030E0FC01378311
:1015E00026830E940A0A19827894DF91CF91089588
:1015F00087E297E00E948D0A87E297E00E94D10A75
:10160000F7CF0E94F80A0E94F80A0E94F80A08958B
:101610000895F894FC0120813181215031093183F2
:10162000208378940895F894FC01208131812F5F04
:101630003F4F318320837894089508950895CF9380
:10164000DF93D0E0C0E0CE01C531D1050CF4FBC082
:101650009C01255131092431310508F462C09C01F7
:10166000295231092431310508F42FC19C012D5331
:1016700031092431310508F4CFC1815591094497CE
:1016800008F431C2C536D10509F062C260E082E0DB
:101690000E94290785E693E00E94170560E083E039
:1016A0000E94290785E693E00E94170560E084E028
:1016B0000E94290785E693E00E94170560E085E017
:1016C0000E94290785E693E00E94170560E086E006
:1016D0000E94290785E693E00E94170560E087E0F5
:1016E0000E94290785E693E00E94170560E088E0E4
:1016F0000E94290785E693E00E94170560E089E0D3
:101700000E94290785E693E00E94170586E690E08F
:10171000C6E6D0E09C01255131092431310508F09D
:101720009ECF60E082E00E9429078DE593E00E9451
:10173000170560E083E00E94290786E30E9489077D
:1017400080EC92E00E94170560E084E00E94290787
:1017500086E30E94890788EC92E00E94170587E3E0
:101760000E9489078CED92E00E94170586E30E9493
:1017700089078CEC92E00E94170560E085E00E94EA
:10178000290789EC92E00E94170587E30E948907E8
:101790008CEB92E00E94170586E30E9489078CEC8F
:1017A00092E00E94170560E086E00E9429078AEC1B
:1017B00092E00E94170587E30E9489078AEB92E076
:1017C0000E94170586E30E9489078AEC92E00E9436
:1017D000170560E087E00E94290789EC92E00E94EB
:1017E000170587E30E9489078CEB92E00E9417059A
:1017F00086E30E9489078CEC92E00E94170560E066
:1018000088E00E94290788EC92E00E94170587E390
:101810000E9489078CED92E00E94170586E30E94E2
:1018200089078CEC92E00E94170560E089E00E9435
:10183000290780EC92E00E9417052196CE01C53160
:10184000D1050CF005CF60E082E00E9429078EE50B
:1018500093E00E94170560E083E00E9429078FE96A
:1018600092E00E94170560E084E00E94290787EA61
:1018700092E00E94170560E085E00E9429078FEA48
:1018800092E00E94170560E086E00E94290788EB3D
:1018900092E00E94170560E087E00E9429078FEA26
:1018A00092E00E94170560E088E00E94290787EA1D
:1018B00092E00E94170560E089E00E9429078FE905
:1018C00092E00E9417052196BECE60E082E00E9461
:1018D000290780ED92E00E94170560E083E00E94F6
:1018E00029078FE992E00E94170560E084E00E94DA
:1018F00029078AED92E00E94170586E30E94890776
:101900008AEC92E00E94170587E30E9489078BEA20
:1019100092E00E94170560E085E00E9429078BEDA8
:1019200092E00E94170586E30E9489078AEC92E004
:101930000E94170587E30E9489078CED92E00E94C0
:10194000170586E30E9489078AEC92E00E9417053A
:1019500087E30E9489078BEA92E00E94170560E006
:1019600086E00E9429078CED92E00E94170586E32D
:101970000E9489078AEC92E00E94170587E30E9483
:1019800089078CEB92E00E94170586E30E94890785
:101990008AEC92E00E94170587E30E9489078CED8C
:1019A00092E00E94170560E087E00E9429078BED16
:1019B00092E00E94170586E30E9489078AEC92E074
:1019C0000E94170587E30E9489078CED92E00E9430
:1019D000170586E30E9489078AEC92E00E941705AA
:1019E00087E30E9489078BEA92E00E94170560E076
:1019F00088E00E9429078AED92E00E94170586E39D
:101A00000E9489078AEC92E00E94170587E30E94F2
:101A100089078BEA92E04DCF60E082E00E942907BF
:101A20008EE593E00E94170560E083E00E9429079D
:101A30008FE992E00E94170560E084E00E94290788
:101A400087EA92E00E94170560E085E00E9429077E
:101A50008EED92E00E94170586E30E9489078AECCA
:101A600092E00E94170587E30E9489078AEA92E0C4
:101A70000E94170560E086E00E9429078FED92E042
:101A80000E94170586E30E9489078AEC92E00E9473
:101A9000170587E30E9489078CED92E00E941705E5
:101AA00086E30E9489078AEC92E00E94170587E38B
:101AB0000E9489078FED92E00E94170560E087E0A1
:101AC0000E9429078EED92E00E94170586E30E948E
:101AD00089078AEC92E00E94170587E30E94890734
:101AE0008AEA92E0DECE60E082E00E94290780ED83
:101AF00092E00E94170560E083E00E9429078FE9C9
:101B000092E00E94170560E084E00E94290787EABE
:101B100092E00E94170560E085E00E9429078FEAA5
:101B200092E00E94170560E086E00E9429078CEB96
:101B300092E00E94170586E30E9489078AEC92E0F2
:101B40000E94170587E30E9489078CEB92E0A1CEE3
:101B5000DF91CF91089587E297E00E948D0A0E945D
:101B60001F0B87E297E00E94D10AF5CFCF93DF9356
:101B7000D0E0C0E087E30E948907CE01C531D105DE
:101B80000CF4BBC09C01255131092431310508F406
:101B90005DC09C01295231092431310508F4D4C0BB
:101BA0009C012D5331092431310508F434C181558C
:101BB0009109449708F4D6C1C536D10509F060C231
:101BC00064E18AE10E94290785E693E00E941705F7
:101BD00064E18BE10E94290785E693E00E941705E6
:101BE00064E18CE10E94290785E693E00E941705D5
:101BF00064E18DE10E94290785E693E00E941705C4
:101C000064E18EE10E94290785E693E00E941705B2
:101C100064E18FE10E94290785E693E00E941705A1
:101C200064E180E20E94290785E693E00E9417059F
:101C300087E30E94890786E690E0C6E6D0E09C0133
:101C4000255131092431310508F0A3CF64E18AE13F
:101C50000E94290782EE92E00E94170564E18BE161
:101C60000E9429078FE992E00E94170564E18CE148
:101C70000E94290787EA92E00E94170564E18DE13E
:101C80000E9429078FEA92E00E94170564E18EE125
:101C90000E9429078CEB92E00E94170586E30E94C0
:101CA00089078AEC92E00E94170587E30E94890762
:101CB0008CEB92E00E94170564E18FE10E942907F6
:101CC0008FEA92E00E94170564E180E20E942907F2
:101CD00087EA92E00E94170564E181E20E942907E9
:101CE0008FE992E00E941705219687E30E948907F9
:101CF000CE01C531D1050CF045CF64E18AE10E94E7
:101D000029078EE593E00E94170564E18BE10E94AC
:101D100029078FE992E00E94170564E18CE10E9497
:101D2000290787EA92E00E94170564E18DE10E948D
:101D300029078FEA92E00E94170564E18EE10E9474
:101D4000290788EB92E0B6CF64E18AE10E94290777
:101D50008EE593E00E94170564E18BE10E9429075C
:101D60008FE992E00E94170564E18CE10E94290747
:101D700087EA92E00E94170564E18DE10E9429073D
:101D80008EED92E00E94170586E30E9489078AEC97
:101D900092E00E94170587E30E9489078AEA92E091
:101DA0000E94170564E18EE10E9429078FED92E001
:101DB0000E94170586E30E9489078AEC92E00E9440
:101DC000170587E30E9489078CED92E00E941705B2
:101DD00086E30E9489078AEC92E00E94170587E358
:101DE0000E9489078FED92E00E94170564E18FE160
:101DF0000E9429078EED92E00E94170586E30E945B
:101E000089078AEC92E00E94170587E30E94890700
:101E10008AEA92E057CF64E18AE10E94290782EEC4
:101E200092E00E94170564E18BE10E9429078FE987
:101E300092E00E94170564E18CE10E9429078AED77
:101E400092E00E94170586E30E9489078AEC92E0DF
:101E50000E94170587E30E9489078BEA92E00E949F
:101E6000170564E18DE10E9429078BED92E00E9445
:101E7000170586E30E9489078AEC92E00E94170505
:101E800087E30E9489078CED92E00E94170586E3A4
:101E90000E9489078AEC92E00E94170587E30E945E
:101EA00089078BEA92E00E94170564E18EE10E94A7
:101EB00029078CED92E00E94170586E30E948907AE
:101EC0008AEC92E00E94170587E30E9489078CEB59
:101ED00092E00E94170586E30E9489078AEC92E04F
:101EE0000E94170587E30E9489078CED92E00E940B
:101EF000170564E18FE10E9429078BED92E00E94B3
:101F0000170586E30E9489078AEC92E00E94170574
:101F100087E30E9489078CED92E00E94170586E313
:101F20000E9489078AEC92E00E94170587E30E94CD
:101F300089078BEA92E00E94170564E180E20E9423
:101F400029078AED92E00E94170586E30E9489071F
:101F50008AEC92E00E94170587E30E9489078BEACA
:101F600092E0B8CE64E18AE10E9429078DE593E012
:101F70000E94170564E18BE10E94290786E30E9415
:101F8000890780EC92E00E94170564E18CE10E94D1
:101F9000290786E30E94890788EC92E00E941705D2
:101FA00087E30E9489078CED92E00E94170586E383
:101FB0000E9489078CEC92E00E94170564E18DE194
:101FC0000E94290789EC92E00E94170587E30E948E
:101FD00089078CEB92E00E94170586E30E9489072F
:101FE0008CEC92E00E94170564E18EE10E942907C3
:101FF0008AEC92E00E94170587E30E9489078AEB2A
:1020000092E00E94170586E30E9489078AEC92E01D
:102010000E94170564E18FE10E94290789EC92E094
:102020000E94170587E30E9489078CEB92E00E94CB
:10203000170586E30E9489078CEC92E00E94170541
:1020400064E180E20E94290788EC92E00E94170573
:1020500087E30E9489078CED92E00E94170586E3D2
:102060000E9489078CEC92E00E94170564E181E2EE
:102070000E94290780EC92E00E94170521967ACDF4
:10208000DF91CF9108950E94B60D0E94B60D0E9477
:10209000B60D0E94B60D0C94B60DEF92FF920F9301
:1020A0001F93CF93DF9368E281E00E94290790E0BD
:1020B00080E0FC01EE0FFF1FE15DF84F11821082FE
:1020C00001968A309105A9F7D0E0C0E0EE24E394B0
:1020D000F12CE3C084E00E9429078AE193E00E948A
:1020E000170568E285E00E9429078CEE92E00E94C5
:1020F0001705809131079091320768E2892B09F02A
:1021000041C186E00E9429078AE193E00E941705F9
:1021100068E287E00E9429078CEE92E00E94170592
:10212000809133079091340768E2892B09F022C12E
:1021300088E00E9429078AE193E00E94170568E27F
:1021400089E00E9429078CEE92E00E941705809199
:1021500035079091360768E2892B09F003C18AE0C0
:102160000E9429078AE193E00E94170568E28BE04C
:102170000E9429078CEE92E00E9417058091370794
:102180009091380768E2892B09F0E4C08CE00E9446
:1021900029078AE193E00E94170568E28DE00E941A
:1021A00029078CEE92E00E941705809139079091E3
:1021B0003A0768E2892B09F0C5C08EE00E94290722
:1021C0008AE193E00E94170568E28FE00E942907E8
:1021D0008CEE92E00E94170580913B0790913C079E
:1021E00068E2892B09F0A6C080E10E9429078AE1F4
:1021F00093E00E94170568E281E10E9429078CEEB6
:1022000092E00E94170580913D0790913E0768E299
:10221000892B09F087C082E10E9429078AE193E0B7
:102220000E94170568E283E10E9429078CEE92E084
:102230000E94170580913F079091400768E2892B23
:1022400009F068C084E10E9429078AE193E00E94B6
:10225000170568E285E10E9429078CEE92E00E9452
:102260001705809141079091420768E2892B09F098
:1022700049C086E10E9429078AE193E00E94170580
:1022800068E287E10E9429078CEE92E00E94170520
:10229000E8010A30110509F47DC068E281E00E947E
:1022A00029078E010F5F1F4FCC0FDD1FC15DD84F77
:1022B000F982E88268E281E00E9429078CEE92E0D0
:1022C0000E94170568E282E00E94290783E093E0FC
:1022D0000E94170568E283E00E9429078CEE92E0D5
:1022E0000E94170580912F079091300768E2892B93
:1022F00009F4F0CE84E00E94290781E393E00E9474
:102300001705EFCE86E10E94290781E393E00E9442
:102310001705B6CF84E10E94290781E393E00E946C
:10232000170597CF82E10E94290781E393E00E947D
:10233000170578CF80E10E94290781E393E00E948E
:10234000170559CF8EE00E94290781E393E00E9490
:1023500017053ACF8CE00E94290781E393E00E94A1
:1023600017051BCF8AE00E94290781E393E00E94B2
:102370001705FCCE88E00E94290781E393E00E94C4
:102380001705DDCE86E00E94290781E393E00E94D5
:102390001705BECEDF91CF911F910F91FF90EF9067
:1023A00008950E9429080E941F0B0E9429080E947C
:1023B000B60D0E9429080E944D10F3CF87E297E0E6
:1023C0000E948D0A80912B0790912C070A970CF49C
:1023D0005AC160E080E00E94290783E30E948907D8
:1023E00088E493E00E94170580912B0790912C07B9
:1023F00064E670E00E947F13072E000C880B990B97
:102400000E94AE0580E593E00E94170560E082E03F
:102410000E9429078EE693E00E941705E0912907A4
:10242000F0912A07E750FF4F808190E00E94560507
:10243000E0912907F0912A07E750FF4F8081882318
:1024400009F41CC1E12CD0E05BEA352E61E2462E96
:10245000FDC0D39D812D11248695982F990F890F4A
:10246000CD2FC81BC49DC02D1124A8E1DA2EB7E1E1
:10247000CB2E16E1B12E05E1A02E84E1982E93E13A
:10248000892E22E1722E31E1632E40E1542E1FE0AD
:1024900082E30E9489076C2F812F0E94290782E81E
:1024A00093E00E941705E0912907F0912A078FE138
:1024B000F82EFD9E80011124E00FF11F808190E035
:1024C0000E9456056C2F852D0E9429078EE893E007
:1024D0000E941705C8010A962091290730912A0702
:1024E000820F931F0E9417056C2F862D0E942907CB
:1024F0008CE993E00E941705E0912907F0912A07E3
:10250000E00FF11F8789908D0E94ED056C2F872DBC
:102510000E94290788EA93E00E941705E0912907A5
:10252000F0912A07E00FF11F838D948D208531856E
:10253000821B930B0E94560586EB93E00E941705C1
:102540006C2F882D0E94290780EC93E00E941705CC
:10255000E0912907F0912A07E00FF11F85899689FC
:102560000E94560586EB93E00E9417056C2F892D7B
:102570000E9429078DEC93E00E941705E09129073E
:10258000F0912A07E00FF11F808591850E94ED05EB
:102590006C2F8A2D0E94290784EE93E00E94170574
:1025A000E0912907F0912A07E00FF11F818D928DAC
:1025B0000E94ED056C2F8B2D0E94290781EF93E07F
:1025C0000E941705E0912907F0912A07E00FF11FFB
:1025D000838D948D0E94ED056C2F8C2D0E94290710
:1025E0008DEF93E00E9417058091290790912A07AB
:1025F000FC01E850FF4F2081F29E800D911D1124B7
:10260000FC0182819381A481B5810E9456056C2FC3
:102610008D2D0E9429078CE094E00E94170580917F
:10262000290790912A07080F191FF80186819781C1
:102630000E946D0ADF5FE0912907F0912A07E750B9
:10264000FF4F8081F1E2EF0ED817C0F4D33008F0CD
:1026500000CFCE2D9DE0D92E2CE0C22E3BE0B32E34
:102660004AE0A42E59E0952E68E0862E77E0772E7A
:10267000E6E06E2EF5E05F2E14E00ACF87E297E0E9
:102680000E94D10A9BCE0E942908A3CE1092480531
:102690001092470510921F0610921E060E94EE042B
:1026A00081E00E948502C82F811124C087E192E059
:1026B0000E9417058C2F90E00E9456058DE194E052
:1026C0000E94870A0E94C0040E94DE04789404E5F8
:1026D00010E029E435E050E040E062E070E080E0A6
:1026E00090E00E94530382E090E00E94B1000E94BB
:1026F0009900FFCF8EE292E00E941705DBCF97FB97
:10270000072E16F4009407D077FD09D00E94B51368
:1027100007FC05D03EF4909581959F4F08957095E4
:1027200061957F4F0895A1E21A2EAA1BBB1BFD01E4
:102730000DC0AA1FBB1FEE1FFF1FA217B307E407A0
:10274000F50720F0A21BB30BE40BF50B661F771FF8
:10275000881F991F1A9469F76095709580959095D8
:102760009B01AC01BD01CF010895AA1BBB1B51E128
:1027700007C0AA1FBB1FA617B70710F0A61BB70BF1
:10278000881F991F5A95A9F780959095BC01CD0196
:1027900008950F931F93CF93DF938230910510F428
:1027A00082E090E0E0914507F091460730E020E0BC
:1027B000B0E0A0E0309799F42115310509F44AC042
:1027C000281B390B24303105D8F58A819B8161158E
:1027D000710589F1FB0193838283FE0111C0408161
:1027E00051810281138148175907E0F048175907B2
:1027F00099F4109761F012960C93129713961C930C
:102800003296CF01DF91CF911F910F9108950093E0
:10281000450710934607F4CF2115310551F04217B3
:10282000530738F0A901DB019A01BD01DF01F8016E
:10283000C1CFEF01F9CF9093460780934507CDCFE5
:10284000FE01E20FF31F81939193225031093983E6
:102850002883D7CF2091430730914407232B41F49D
:1028600020910202309103023093440720934307E2
:1028700020910002309101022115310541F42DB75C
:102880003EB74091040250910502241B350BE091A4
:102890004307F0914407E217F307A0F42E1B3F0B08
:1028A0002817390778F0AC014E5F5F4F24173507C2
:1028B00048F04E0F5F1F50934407409343078193A6
:1028C00091939FCFF0E0E0E09CCFCF93DF93009710
:1028D000E9F0FC01329713821282A0914507B09172
:1028E0004607ED0130E020E01097A1F4208131810E
:1028F000820F931F2091430730914407281739070F
:1029000009F061C0F0934407E0934307DF91CF9152
:102910000895EA01CE17DF07E8F54A815B819E0141
:1029200041155105B1F7E901FB83EA8349915991BA
:10293000C40FD51FEC17FD0761F4808191810296C9
:10294000840F951FE90199838883828193819B83FA
:102950008A83F0E0E0E012968D919C9113970097A6
:10296000B9F52D913C911197CD010296820F931FDD
:1029700020914307309144072817390739F63097DB
:1029800051F51092460710924507B0934407A09363
:102990004307BCCFD383C28340815181840F951FED
:1029A000C817D90761F44E5F5F4F88819981480F3E
:1029B000591F518340838A819B8193838283211590
:1029C000310509F0B0CFF0934607E09345079ECF5D
:1029D000FD01DC01C0CF13821282D7CFFB01DC01E5
:1029E00002C001900D9241505040D8F70895F894DC
:0229F000FFCF17
:1029F200000047072000526F6F7420696E6F646594
:102A02002073697A653A004E6F20736420636172A5
:102A1200642064657465637465642E0A0D00436105
:102A22007264207375636365737366756C6C792069
:102A3200726561642E0A0D00303132333435363717
:102A42003839414243444546006D61696E0054483D
:102A5200524541445F524541445920202000544888
:102A6200524541445F57414954494E47200054481A
:102A7200524541445F52554E4E494E472020005424
:102A820048524541445F534C454550494E4700200A
:102A92002020232020200020202323232020002068
:102AA2002323232323202000232323232323230040
:102AB2002020203020202000202030003020200044
:102AC200434F4E53554D494E4700202023002023AB
:102AD200230050524F445543494E47002B2D2D2D74
:102AE2002D2D2D2D2D2D2D2D2D2D2D2D2D2D2D2D14
:102AF2002D2B007C20426F756E64656420427566E2
:102B020066657220202020207C007C20202020204E
:102B12002020202020202020202020202020207C57
:102B2200007C23232323232323232323232323233D
:102B32002323232323237C0054696D65723A2000EA
:102B42002020202020202020202020202020202083
:102B520020202020202020202020202020004E7510
:102B62006D626572206F6620546872656164733AA3
:102B720020005468726561642049643A20005468F8
:102B820072656164206E616D653A200054687265F9
:102B920061642050433A2000537461636B20557383
:102BA2006167653A200020627974657320202000F5
:102BB200537461636B2053697A653A2000437572DE
:102BC20072656E7420746F70206F66207374616317
:102BD2006B3A2000537461636B20626173653A2023
:102BE20000537461636B20656E643A20005363681E
:102BF20065642E20436F756E743A200054687265C6
:0C2C02006164205374617475733A200003
:00000001FF
