:100000000C9476000C9497000C9497000C94970035
:100010000C9497000C9497000C9497000C94970004
:100020000C9497000C9497000C9497000C949700F4
:100030000C9497000C9497000C9497000C949700E4
:100040000C9497000C94370B0C9497000C94970029
:100050000C9497000C944E0B0C9497000C94970002
:100060000C9497000C9497000C9497000C949700B4
:100070000C9497000C9497000C9497000C949700A4
:100080000C9497000C9497000C9497000C94970094
:100090000C9497000C9497000C9497000C94970084
:1000A0000C9497000C9497000C9497000C94970074
:1000B0000C9497000C9497000C9497000C94970064
:1000C0000C9497000C9497000C9497000C94970054
:1000D0000C9497000C9497000C9497000C94970044
:1000E0000C9497000C94E9090C94D81411241FBEA9
:1000F000CFEFD1E2DEBFCDBF00E00CBF15E0A0E046
:10010000B2E0EAE3FDE200E00BBF02C007900D920F
:10011000AE38B107D9F728E0AEE8B5E001C01D92CE
:10012000A13CB207E1F70E94D8140C949B160C94E2
:1001300000000F931F9300E012E022E937E050E047
:1001400040E06EE877E080E090E00E94E5041F91D7
:100150000F910895CF93DF9368E28AE00E94BB0875
:100160008AE092E00E94A906C2E9D7E088819981DD
:100170000E94E80668E28BE00E94BB0882E192E000
:100180000E94A9068C819D810E94E80668E28CE0AD
:100190000E94BB088CE192E00E94A9068E819F819B
:1001A0000E94E80668E28DE00E94BB0887E292E0C8
:1001B0000E94A9068AE997E0DF91CF910C94A906E5
:1001C000CF93DF9360E08AE00E94BB0880E392E077
:1001D0000E94A906C0E1D7E0888199810E94E806C3
:1001E00060E08BE00E94BB0889E392E00E94A906D0
:1001F000888199818827907F0E94E80660E08CE0E2
:100200000E94BB0889E492E00E94A9068A819B8132
:100210000E94E80660E08DE00E94BB0881E592E064
:100220000E94A9068C819D810E94E80660E08EE014
:100230000E94BB088AE592E00E94A90688859985FC
:100240000E94E80660E08FE00E94BB0884E692E02E
:100250000E94A9068C859D850E94E80660E080E1E9
:100260000E94BB088EE692E00E94A90688899989BF
:100270000E94E80660E081E10E94BB0888E792E006
:100280000E94A9068C899D890E94E80660E082E1AF
:100290000E94BB0882E892E00E94A906888D998D91
:1002A0000E94E80660E083E10E94BB088AE892E0D1
:1002B0000E94A9068A8D9B8D0E94E80660E084E179
:1002C0000E94BB088AE992E00E94A9068C8D9D8D50
:1002D0000E94E80660E085E10E94BB0885EA92E0A2
:1002E0000E94A90688A199A10E94E80660E086E123
:1002F0000E94BB088FEA92E00E94A90688A599A5F2
:100300000E94E80660E087E10E94BB088CEB92E067
:100310000E94A9068CA59DA50E94E80660E088E1E0
:100320000E94BB0889EC92E00E94A90688A999A9BD
:100330000E94E80660E089E10E94BB0886ED92E039
:100340000E94A9068CA99DA9DF91CF910C94E80683
:10035000809190079091910780FF04C084E680937C
:10036000B400089588EC8093B400089583EE92E081
:100370000E94A90680911407909115070E94E80633
:1003800087EB93E00C94A906E7EBF5E0819180936D
:10039000B40086E0E73BF807C9F708950F931F9371
:1003A0000197BC01990F880B990B2091E3063091BE
:1003B000E4064091E5065091E6060E943715FB01E0
:1003C000E370F078F7FF04C03197EC6FFF6F319660
:1003D000DF01B695BA2FAA27B795A7958901000F17
:1003E000111F2091DB063091DC06029FF001039F74
:1003F000F00D129FF00D11249B0177FF02C02D5FBD
:100400003F4FC90195958795959587950A968E0FCB
:100410009F1FBC01990F880B990B00E810E020E1A9
:1004200037E0AD010E94E5041F910F9108950F93ED
:100430001F9300E012E09C0150E040E062E070E0B9
:1004400080E090E00E94E5041F910F910895FFCF96
:10045000CF93DF9360E085E00E94BB088091960512
:1004600090E00E94E80684EF92E00E94A9060E94B4
:100470005D050E94400760E086E00E94BB0881E0C5
:1004800093E00E94A906CBEBD6E06C817D818E8142
:100490009F810E9440070E945D050E94400760E026
:1004A00087E00E94BB0880E193E00E94A90688854E
:1004B00099850E94E80660E088E00E94BB0888E217
:1004C00093E00E94A9068C859D850E94E80660E065
:1004D00089E00E94BB088CE393E00E94A90688890A
:1004E00099890E94E80660E08AE00E94BB0880E5E6
:1004F00093E00E94A9068C899D890E94E80660E02D
:100500008BE00E94BB0883E693E00E94A90688A1C5
:1005100099A10E94E80660E08CE00E94BB0886E793
:1005200093E00E94A90688A599A50E94E80660E0CC
:100530008DE0DF91CF910C94BB088FEF8EBD809141
:100540009F089091A0089C012F5F3F4F3093A00817
:1005500020939F088130924098F44FEF0DB407FE2E
:10056000FDCF4EBD80919F089091A0089C012F5F08
:100570003F4F3093A00820939F088130924070F342
:100580000DB407FEFDCF289A8FEF8EBD0DB407FE88
:10059000FDCF109294050895809396050895809359
:1005A0009605609395050895CF93C82F8091940583
:1005B00081110E949D02C0939305CF91089580916F
:1005C00092050895809392050895CF92DF92EF925D
:1005D000FF92CF93C82F6A017B018091940581110E
:1005E0000E949D02289888EC97E9A4E0B0E03FEFD4
:1005F0003EBD0DB407FEFDCF2EB52F3F41F02AE0E2
:100600002A95F1F700C00197A109B10989F78C2F4C
:1006100080648EBD0DB407FEFDCF88E190E0B70188
:10062000A601082E04C076956795579547950A94BC
:10063000D2F74EBD0DB407FEFDCF0897883F2FEFD0
:10064000920769F785E9CC2319F087E8C830B9F437
:100650008EBD0DB407FEFDCF90E02FEF2EBD0DB483
:1006600007FEFDCF8EB587FF04C09F3F11F09F5F4F
:10067000F5CFCF91FF90EF90DF90CF9008958FEF5F
:10068000E7CF8F929F92AF92BF92EF92FF920F931C
:100690001F93CF93DF93EA017901209194052223E0
:1006A00071F080909B0890909C08A0909D08B0905D
:1006B0009E0886169706A806B90609F44BC06093F3
:1006C0009B0870939C0880939D0890939E082091AE
:1006D0009205233039F029E0660F771F881F991F94
:1006E0002A95D1F7AB01BC0181E10E94E50248ECFB
:1006F00057E964E070E02FEF811114C02EBD0DB4F6
:1007000007FEFDCF9EB59F3FE1F49AE09A95F1F781
:1007100000C0415051096109710981F79DE0909332
:10072000960504C083E08093960580E0DF91CF9129
:100730001F910F91FF90EF90BF90AF909F908F907F
:1007400008959E3F09F45FC020E1209396059093A1
:100750009505ECCF20919F083091A00842175307D0
:1007600008F4ADCF8FEF8EBD80919F089091A008C7
:100770008C179D0788F42FEF0DB407FEFDCF2EBD1B
:1007800080919F089091A00801969093A008809373
:100790009F088C179D0780F3A8014150510981F0F3
:1007A000F70198012E0D3F1D215031099FEF0DB427
:1007B00007FEFDCF8EB581939EBDE217F307B9F713
:1007C0000DB407FEFDCF8EB5F701E40FF51F808352
:1007D00080919F089091A008080F191F1093A008FE
:1007E00000939F0880919305882319F0011512400A
:1007F00020F080919405811102C081E097CF0E9482
:100800009D0281E093CF1092A00810929F0881E092
:1008100080939405A7CF0F931F939A0100E012E0F5
:1008200050E040E00E9441031F910F910895CF9244
:10083000DF92EF92FF921F93CF93DF93182F209AAE
:10084000289A229A219A83E58CBD8AE090E02FEFC6
:100850002EBD0DB407FEFDCF0197D1F7289881E09A
:1008600092E02FEF2EBD0DB407FEFDCF3EB50197F0
:10087000C9F7DBE040E050E0BA0180E00E94E50209
:10088000C82F813089F0D150A9F781E08093960577
:10089000C0939505C0E08C2FDF91CF911F91FF9001
:1008A000EF90DF90CF9008954AEA51E060E070E069
:1008B00088E00E94E502813009F440C082FF51C007
:1008C000C093920588E6C82E88E8D82E8EE1E82EDF
:1008D000F12C07C081E0C81AD108E108F10809F439
:1008E00062C08AE08A95F1F700C040E050E0BA01AA
:1008F00087E30E94E5028091920540E050E0BA0152
:10090000823021F440E050E060E070E489E20E942F
:10091000E5028111DFCF80919205823041F18CB5E3
:100920008C7F8CBD111103C08DB581608DBD289A5F
:100930008FEF8EBD0DB407FEFDCFADCF84E090E00C
:100940003FEF3EBD0DB407FEFDCF2EB50197C9F7B1
:100950002A3A71F189E08093960520939505C0E0CD
:100960009ACF92E09093960580939505ABCF40E0A7
:1009700050E0BA018AE30E94E502811121C08FEFA5
:100980008EBD0DB407FEFDCF8EB5807C803CA1F0FE
:1009900083E090E02FEF2EBD0DB407FEFDCF3EB5F6
:1009A0000197C9F7BCCF86E080939605C0E073CF6E
:1009B00082E08093920586CF83E080939205E8CF12
:1009C00085E080939605C0E066CF0F931F930115D5
:1009D000110579F0F801E40FF51FE130F24028F439
:1009E0000E9441031F910F91089580E01F910F9184
:1009F000089581E01F910F910895809194058111D0
:100A00000C949D020895CF93DF93D62FC72F40E01B
:100A100050E0BA010E94E50248EC57E964E070E05A
:100A20002FEF811114C02EBD0DB407FEFDCF9EB572
:100A30009F3FA1F49AE09A95F1F700C04150510907
:100A40006109710981F79DE09093960504C088E0E3
:100A50008093960580E0DF91CF9108959E3F41F00D
:100A600020E12093960590939505DF91CF9108950D
:100A7000ED2FFC2F9F01205F3F4F9FEF9EBD0DB4D8
:100A800007FEFDCF8EB58193E217F307B9F78FEF1D
:100A90008EBD0DB407FEFDCF8EB58FEF8EBD0DB4AC
:100AA00007FEFDCF8EB5289A8FEF8EBD0DB407FEE1
:100AB000FDCF81E0DF91CF9108950F931F93CF93E6
:100AC000DF93CDB7DEB760970FB6F894DEBF0FBEE9
:100AD000CDBFBE016F5F7F4F89E00E940305882371
:100AE00009F447C08981807CA1F0803409F445C0B5
:100AF00087E08093960560E070E0CB0160960FB6CA
:100B0000F894DEBF0FBECDBFDF91CF911F910F9143
:100B100008956F81637070E0762F6627770F770FE7
:100B2000888590E0880F991F880F991F682B792B73
:100B300089858295869586958370682B6F5F7F4F38
:100B400090E080E02A852370220F3B8537FB332716
:100B500030F9232B3E813F70230F3327331F27505B
:100B6000310904C0660F771F881F991F2A95D2F795
:100B7000C5CF60E070E0CB01C1CF68856695669512
:100B800070E090E080E0CB01772766272A85622B12
:100B9000098510E0102F0027012E000C220B330BCB
:100BA000602B712B822B932B6F5F7F4F8F4F9F4F4B
:100BB0004AE0660F771F881F991F4A95D1F79ECF8D
:100BC0004F925F926F927F928F929F92AF92BF925D
:100BD000CF92DF92EF92FF92CF93C12CD12C76016E
:100BE000CFEF28EE422E23E0522E612C712C4C01C7
:100BF000B12CA12CCEBD0DB407FEFDCF9EB59F3FFD
:100C0000B1F08FEFC81AD80AE80AF80A8AE08A9584
:100C1000F1F700C0C701B601A30192010E94371588
:100C200082169306A406B50628F780E001C081E08D
:100C3000CF91FF90EF90DF90CF90BF90AF909F90BB
:100C40008F907F906F905F904F90089588EC97E918
:100C5000A4E0B0E03FEF3EBD0DB407FEFDCF2EB5E2
:100C60002F3F69F42AE02A95F1F700C00197A10906
:100C7000B10989F78DE08093960580E008952E3FB5
:100C800039F080E1809396052093950580E00895E2
:100C900081E00895BC0189E00C940305BC018AE061
:100CA0000C940305EEE6F0E080818260808384B5D9
:100CB000826084BD85B5826085BD8AE587BD89E097
:100CC0009DE39093890080938800EFE6F0E08081B7
:100CD00082608083E1E8F0E080818D608083089508
:100CE000E0EBF0E0808183628083E1EBF0E08081E3
:100CF00081608083E1E0F1E08081806480830895F9
:100D000082E08093C0001092C50080E18093C4000F
:100D1000E1ECF0E080818861808308958091C000DB
:100D2000881F8827881F08958091C00087FF03C00F
:100D30008091C60008958FEF08959091C10095FDB0
:100D4000FCCF9091C00095FFF8CF8093C60081E062
:100D50000895FC012081222371F031969091C10009
:100D600095FDFCCF9091C00095FFF8CF2093C60071
:100D700021912111F3CF08950F931F93CF93DF9308
:100D8000CB011092B60518161906DCF4E6EBF5E077
:100D9000C7E9D5E0C095D0950AE010E09E012E0F7E
:100DA0003F1FB8010E942315805D8293CB010097FD
:100DB000A9F7C90189569A4FDF91CF911F910F91E1
:100DC000089587E995E0DF91CF911F910F910895E4
:100DD000EF92FF920F931F93CF93DF930097B1F1A0
:100DE0001092B605181619060CF043C0C6EBD5E0F4
:100DF00007E915E0009510952AE0E22EF12CF801A4
:100E0000EC0FFD1FB7010E94231520E3280F2A9342
:100E1000CB010097A1F7E956FA4F31969091C100A6
:100E200095FDFCCF9091C00095FFF8CF2093C600B0
:100E300021912111F3CFDF91CF911F910F91FF905D
:100E4000EF9008958091C00085FD09C08091C10098
:100E500085FFF8CF8091C10085FDF8CFF3CF80E307
:100E60008093C600DF91CF911F910F91FF90EF907B
:100E70000895209197052223A9F3E7E9F5E0CDCF66
:100E8000EF92FF920F931F93CF93DF93CB011092BA
:100E9000B6051816190664F5C6EBD5E007E915E0A6
:100EA000009510952AE0E22EF12CF801EC0FFD1FC1
:100EB000B7010E94231520E3280F2A93CB01009746
:100EC000A1F7E956FA4F31969091C10095FDFCCFFC
:100ED0009091C00095FFF8CF2093C6002191211179
:100EE000F3CFDF91CF911F910F91FF90EF90089575
:100EF000209197052223A9F3E7E9F5E0E4CFCF920B
:100F0000DF92EF92FF920F931F93CF93DF93CDB7B2
:100F1000DEB7E1970FB6F894DEBF0FBECDBF21E17B
:100F2000EAEBF3E0DE01919601900D922A95E1F74C
:100F30009E012F5F3F4F690120E2D6011D922A9545
:100F4000E9F7FE01B0960EEF1FEF0C191D09A8017D
:100F50004E0F5F1FBA0131979C012F70307837FF19
:100F600006C021503109206F3F6F2F5F3F4FA1E234
:100F7000EA2EF12CEC0EFD1E2E0D3F1DD9012C91F9
:100F8000208397FD0F9695958795959587959595CF
:100F900087959595879518161906CCF28091C10012
:100FA00085FDFCCF8091C00085FFF8CF80E3809362
:100FB000C6008091C10085FDFCCF8091C00085FFF7
:100FC000F8CF88E78093C6004B3151057CF04F5F26
:100FD0005F4FF601E40FF51F9601255E3F4F80E35A
:100FE0008293E217F307E1F76AE170E0FE01E60F92
:100FF000F71F9281992391F06E5F7F4FD601A60F64
:10100000B71F8091C10085FDFCCF8091C00085FF96
:10101000F8CF9093C6009D919111F3CFE1960FB652
:10102000F894DEBF0FBECDBFDF91CF911F910F911E
:10103000FF90EF90DF90CF900895CF92DF92EF92E4
:10104000FF920F931F93CF93DF93CDB7DEB7E19756
:101050000FB6F894DEBF0FBECDBF21E1EAEBF3E09F
:10106000DE01919601900D922A95E1F79E012F5F86
:101070003F4F690120E2D6011D922A95E9F7DE0172
:1010800090960EEF1FEF0C191D0998012A0F3B1FB8
:10109000A9011197CB018F70907897FF04C0019739
:1010A000806F9F6F0196E1E2F0E0EC0FFD1F8E0F65
:1010B0009F1FFC0180818C9377FF02C0615F7F4F8F
:1010C0007595679575956795759567957595679508
:1010D00016161706D4F28091C10085FDFCCF8091D1
:1010E000C00085FFF8CF80E38093C6008091C100E7
:1010F00085FDFCCF8091C00085FFF8CF88E7809305
:10110000C6002B3131057CF02F5F3F4FD601A20F77
:10111000B31F9601255E3F4F80E38E93A217B3075E
:10112000E1F74AE150E0DE01A40FB51F12969C9151
:10113000992391F04E5F5F4FF601E40FF51F809108
:10114000C10085FDFCCF8091C00085FFF8CF909352
:10115000C60091919111F3CFE1960FB6F894DEBFDE
:101160000FBECDBFDF91CF911F910F91FF90EF90F8
:10117000DF90CF9008950F931F93CF93DF93C62FE7
:10118000282F30E0C9012115310561F0E6EBF5E0CB
:101190000AE010E0B8010E942315805D8293CB0124
:1011A0000097C1F7D0E0CE011092B605209761F00C
:1011B000E6EBF5E00AE010E0B8010E942315805D3F
:1011C0008293CB010097C1F79091C10095FDFCCFB0
:1011D0008091C00085FFF8CF8BE18093C60090918D
:1011E000C10095FDFCCF8091C00085FFF8CF8BE555
:1011F0008093C600C9010E94E8068091C10085FD68
:10120000FCCF8091C00085FFF8CF8BE38093C600B0
:10121000CE010E94E8068091C10085FDFCCF80913F
:10122000C00085FFF8CF88E48093C600DF91CF919E
:101230001F910F9108959091C10095FDFCCF909161
:10124000C00095FFF8CF9BE19093C6009091C1003C
:1012500095FDFCCF9091C00095FFF8CF9BE5909352
:10126000C6009091C10095FDFCCF9091C00095FF04
:10127000F8CF93E39093C6009091C10095FDFCCF09
:101280009091C00095FFF8CF8093C6008091C10077
:1012900085FDFCCF8091C00085FFF8CF8DE680935F
:1012A000C6000895F0E0E4E2508160E86083E5E282
:1012B000508160E860830895F0E0E4E2508160E8E6
:1012C0006083E5E2508160E0608308951816190696
:1012D0006CF430E020E0EFE9FFE03197F1F700C077
:1012E00000002F5F3F4F82179307A9F70895FC0175
:1012F000208131818091C0004FEF87FD4091C60071
:10130000F0E0E4E2508160E86083E5E2508160E86B
:1013100060831216130664F490E080E0EFE9FFE0CA
:101320003197F1F700C00000019628173907B1F78F
:10133000F0E0E4E2508160E86083E5E2508160E043
:1013400060831216130664F490E080E0EFE9FFE09A
:101350003197F1F700C00000019628173907B1F75F
:10136000413631F04A3709F0C5CF2C5E3F4FC2CF2E
:1013700024513109BFCF8091C10085FDFCCF809100
:10138000C00085FFF8CF8BE18093C6008091C1003B
:1013900085FDFCCF8091C00085FFF8CF8BE5809361
:1013A000C6008091C10085FDFCCF8091C00085FF03
:1013B000F8CF82E38093C6008091C10085FDFCCF09
:1013C0008091C00085FFF8CF8AE48093C60008951D
:1013D000FFCF7894912F802FFD2FEC2F09949F92AF
:1013E000AF92BF92CF92DF92EF92FF920F931F9333
:1013F000CF93DF936C01B62E072FA42E952E790183
:10140000C9010E946D152091A3083091A408F9012B
:10141000E750FF4F40811FE1D901149FA00DB11D7E
:1014200011245A969C938E9359974081D901149F09
:10143000A00DB11D1124AC014E0D5F1D5C965C9397
:101440004E935B974081D901149FA00DB11D1124CB
:1014500011961C924081D901149FA00DB11D112439
:1014600012961D921D921D921C9215974081D901D2
:10147000149FA00DB11D112441E050E017965C931C
:101480004E931697E7016697C80FD91F8081D9013F
:10149000189FA00DB11D11245E96DC93CE935D972D
:1014A00018820983BA829B82AC821D821E821F82AF
:1014B000188619861A861B861C861D861E861F8620
:1014C000188A198A1A8A1B8A89EE99E09C8B8D8B5F
:1014D00090818081D901199FA00DB11D11248C9399
:1014E0008081D901189FA00DB11D11245796BC927F
:1014F000579758960C93D6010D900020E9F7AD014F
:101500008081B901819F600D711D1124CB014C199F
:101510005D09B6010A960E9492168091A3089091E7
:10152000A408FC01E750FF4F2081DC01129FA00DB1
:10153000B11D11245696FC92EE9255972081129F70
:10154000800D911D1124DC011996DC93CE93189720
:1015500080818F5F8083DF91CF911F910F91FF90EA
:10156000EF90DF90CF90BF90AF909F9008950E9432
:10157000800689E091E00E946D159093A408809305
:10158000A308FC01E850FF4F21E02083319620831F
:1015900086509F4FFC01108211821282138208959F
:1015A0000F931F93CF936091A3087091A4088B01B0
:1015B00008501F4FD801CC9111968C918150990BF6
:1015C000C817190664F581E08C0F9FE108C02C91C3
:1015D0002150330B8F5F421753070CF080E0482FE8
:1015E00050E0FB01989FE00DF11D11242681378109
:1015F0002130310561F78C1751F3D8018C9342816A
:101600005381648175814F5F5F4F6F4F7F4F42837E
:10161000538364837583CF911F910F91089580E068
:10162000D4CF8091A3089091A408FC01E850FF4F0B
:10163000208187509F4FFC018081FFCF8091A308BC
:101640009091A408FC01E850FF4F208187509F4FE4
:10165000DC018C918150990B281719061CF010821F
:101660008081089580818F5F8083808108951F929B
:101670000F920FB60F9211248F939F938091B9060A
:101680009091BA0601969093BA068093B9069F91FD
:101690008F910F900FBE0F901F9018951F920F9271
:1016A0000FB60F9211248F939F9380919007909182
:1016B0009107019690939107809390079F918F9146
:1016C0000F900FBE0F901F9018952F923F924F9240
:1016D0005F926F927F928F929F92AF92BF92CF92C2
:1016E000DF92EF92FF920F931F93CF93DF93F0E07F
:1016F000EEE52081EDE53081F72FE62F3193208351
:10170000F92FE82F51916081F0E0EEE56083EDE57F
:101710005083DF91CF911F910F91FF90EF90DF9059
:10172000CF90BF90AF909F908F907F906F905F9081
:101730004F903F902F900895E091A308F091A40856
:10174000DF01A850BF4F4C919F012A5B3F4FCF0153
:101750008796413031F016A215A2B9010E94650B9F
:101760000895EC5BFF4F11821082BC01C9010E94F9
:10177000650B0895CF93DF9300D01F921F92CDB7D2
:10178000DEB785E0EBECF3E0DE01119601900D92FF
:101790008A95E1F71092A6081092A5080E945206B9
:1017A00078948091A3089091A408FC01128E118E68
:1017B000148E138E168E158E108228ED34E1308F24
:1017C000278B25E0FE013196DC011A9601900D92DF
:1017D0002A95E1F7FC01168A158A21E030E037836B
:1017E0002683BC01685F7F4F87960E94650B0F9030
:1017F0000F900F900F900F90DF91CF91089581304F
:10180000910599F070F08230910519F0039729F055
:10181000089581E094E00C94A90680EE93E00C9486
:10182000A90680EF93E00C94A90680ED93E00C9458
:10183000A906FC0181E08083118212820895CF9372
:10184000DF93EC01F89488818823C9F01882809195
:10185000A3089091A408FC01E850FF4F20812A833F
:101860002981FFE12F9F800D911D112421E030E09F
:10187000FC01378326837894DF91CF91089580917E
:10188000A3089091A408FC01E850FF4F2081298310
:1018900020813FE1239F800D911D112423E030E042
:1018A000FC01378326830E949C0B1882E091A308D9
:1018B000F091A408E850FF4F80818A8319827894C0
:1018C000DF91CF910895CF93DF93EC01F89480914D
:1018D000A3089091A408FC01E850FF4F20813A81B1
:1018E000321721F07894DF91CF91089521E0288379
:1018F00029813FE1239F800D911D112421E030E0DB
:10190000FC01378326830E949C0B19827894DF9117
:10191000CF91089581EA98E00E941F0C81EA98E037
:101920000E94630CF7CF0E948A0C0E948A0C0E94CE
:101930008A0C08950895F894FC012081318121508A
:1019400031093183208378940895F894FC01208133
:1019500031812F5F3F4F318320837894089508951C
:101960000895CF93DF93D0E0C0E0CE01C531D1051B
:101970000CF4FBC09C01255131092431310508F4D8
:1019800062C09C01295231092431310508F42FC16C
:101990009C012D5331092431310508F4CFC1815503
:1019A0009109449708F431C2C536D10509F062C2E5
:1019B00060E082E00E94BB0887ED94E00E94A906E7
:1019C00060E083E00E94BB0887ED94E00E94A906D6
:1019D00060E084E00E94BB0887ED94E00E94A906C5
:1019E00060E085E00E94BB0887ED94E00E94A906B4
:1019F00060E086E00E94BB0887ED94E00E94A906A3
:101A000060E087E00E94BB0887ED94E00E94A90691
:101A100060E088E00E94BB0887ED94E00E94A90680
:101A200060E089E00E94BB0887ED94E00E94A9066F
:101A300086E690E0C6E6D0E09C01255131092431CC
:101A4000310508F09ECF60E082E00E94BB088FEC79
:101A500094E00E94A90660E083E00E94BB0886E350
:101A60000E941B0982E394E00E94A90660E084E0E2
:101A70000E94BB0886E30E941B098AE394E00E944F
:101A8000A90687E30E941B098EE494E00E94A90640
:101A900086E30E941B098EE394E00E94A90660E0A1
:101AA00085E00E94BB088BE394E00E94A90687E3CF
:101AB0000E941B098EE294E00E94A90686E30E9420
:101AC0001B098EE394E00E94A90660E086E00E9474
:101AD000BB088CE394E00E94A90687E30E941B09DF
:101AE0008CE294E00E94A90686E30E941B098CE325
:101AF00094E00E94A90660E087E00E94BB088BE3A7
:101B000094E00E94A90687E30E941B098EE294E0FC
:101B10000E94A90686E30E941B098EE394E00E94BE
:101B2000A90660E088E00E94BB088AE394E00E9476
:101B3000A90687E30E941B098EE494E00E94A9068F
:101B400086E30E941B098EE394E00E94A90660E0F0
:101B500089E00E94BB0882E394E00E94A9062196D6
:101B6000CE01C531D1050CF005CF60E082E00E94C6
:101B7000BB0880ED94E00E94A90660E083E00E942B
:101B8000BB0881E194E00E94A90660E084E00E9425
:101B9000BB0889E194E00E94A90660E085E00E940C
:101BA000BB0881E294E00E94A90660E086E00E9402
:101BB000BB088AE294E00E94A90660E087E00E94E8
:101BC000BB0881E294E00E94A90660E088E00E94E0
:101BD000BB0889E194E00E94A90660E089E00E94C8
:101BE000BB0881E194E00E94A9062196BECE60E088
:101BF00082E00E94BB0882E494E00E94A90660E0B3
:101C000083E00E94BB0881E194E00E94A90660E0A5
:101C100084E00E94BB088CE494E00E94A90686E35D
:101C20000E941B098CE394E00E94A90687E30E94AE
:101C30001B098DE194E00E94A90660E085E00E9406
:101C4000BB088DE494E00E94A90686E30E941B096C
:101C50008CE394E00E94A90687E30E941B098EE4AE
:101C600094E00E94A90686E30E941B098CE394E09D
:101C70000E94A90687E30E941B098DE194E00E945F
:101C8000A90660E086E00E94BB088EE494E00E9412
:101C9000A90686E30E941B098CE394E00E94A90632
:101CA00087E30E941B098EE294E00E94A90686E366
:101CB0000E941B098CE394E00E94A90687E30E941E
:101CC0001B098EE494E00E94A90660E087E00E9470
:101CD000BB088DE494E00E94A90686E30E941B09DC
:101CE0008CE394E00E94A90687E30E941B098EE41E
:101CF00094E00E94A90686E30E941B098CE394E00D
:101D00000E94A90687E30E941B098DE194E00E94CE
:101D1000A90660E088E00E94BB088CE494E00E9481
:101D2000A90686E30E941B098CE394E00E94A906A1
:101D300087E30E941B098DE194E04DCF60E082E0D3
:101D40000E94BB0880ED94E00E94A90660E083E059
:101D50000E94BB0881E194E00E94A90660E084E053
:101D60000E94BB0889E194E00E94A90660E085E03A
:101D70000E94BB0880E594E00E94A90686E30E94C9
:101D80001B098CE394E00E94A90687E30E941B09CB
:101D90008CE194E00E94A90660E086E00E94BB0806
:101DA00081E594E00E94A90686E30E941B098CE36A
:101DB00094E00E94A90687E30E941B098EE494E048
:101DC0000E94A90686E30E941B098CE394E00E940E
:101DD000A90687E30E941B0981E594E00E94A906F9
:101DE00060E087E00E94BB0880E594E00E94A906BD
:101DF00086E30E941B098CE394E00E94A90687E316
:101E00000E941B098CE194E0DECE60E082E00E943B
:101E1000BB0882E494E00E94A90660E083E00E948F
:101E2000BB0881E194E00E94A90660E084E00E9482
:101E3000BB0889E194E00E94A90660E085E00E9469
:101E4000BB0881E294E00E94A90660E086E00E945F
:101E5000BB088EE294E00E94A90686E30E941B095B
:101E60008CE394E00E94A90687E30E941B098EE29E
:101E700094E0A1CEDF91CF91089581EA98E00E948D
:101E80001F0C0E94B10C81EA98E00E94630CF5CF10
:101E9000CF93DF93D0E0C0E087E30E941B09CE011F
:101EA000C531D1050CF4BBC09C0125513109243149
:101EB000310508F45DC09C012952310924313105F6
:101EC00008F4D4C09C012D5331092431310508F4A4
:101ED00034C181559109449708F4D6C1C536D1055E
:101EE00009F060C264E18AE10E94BB0887ED94E0DA
:101EF0000E94A90664E18BE10E94BB0887ED94E093
:101F00000E94A90664E18CE10E94BB0887ED94E081
:101F10000E94A90664E18DE10E94BB0887ED94E070
:101F20000E94A90664E18EE10E94BB0887ED94E05F
:101F30000E94A90664E18FE10E94BB0887ED94E04E
:101F40000E94A90664E180E20E94BB0887ED94E04C
:101F50000E94A90687E30E941B0986E690E0C6E678
:101F6000D0E09C01255131092431310508F0A3CF7F
:101F700064E18AE10E94BB0884E594E00E94A9061E
:101F800064E18BE10E94BB0881E194E00E94A90614
:101F900064E18CE10E94BB0889E194E00E94A906FB
:101FA00064E18DE10E94BB0881E294E00E94A906F1
:101FB00064E18EE10E94BB088EE294E00E94A906D3
:101FC00086E30E941B098CE394E00E94A90687E344
:101FD0000E941B098EE294E00E94A90664E18FE151
:101FE0000E94BB0881E294E00E94A90664E180E2BD
:101FF0000E94BB0889E194E00E94A90664E181E2A5
:102000000E94BB0881E194E00E94A906219687E323
:102010000E941B09CE01C531D1050CF045CF64E10A
:102020008AE10E94BB0880ED94E00E94A90664E169
:102030008BE10E94BB0881E194E00E94A90664E163
:102040008CE10E94BB0889E194E00E94A90664E14A
:102050008DE10E94BB0881E294E00E94A90664E140
:102060008EE10E94BB088AE294E0B6CF64E18AE187
:102070000E94BB0880ED94E00E94A90664E18BE118
:102080000E94BB0881E194E00E94A90664E18CE112
:102090000E94BB0889E194E00E94A90664E18DE1F9
:1020A0000E94BB0880E594E00E94A90686E30E9496
:1020B0001B098CE394E00E94A90687E30E941B0998
:1020C0008CE194E00E94A90664E18EE10E94BB08C5
:1020D00081E594E00E94A90686E30E941B098CE337
:1020E00094E00E94A90687E30E941B098EE494E015
:1020F0000E94A90686E30E941B098CE394E00E94DB
:10210000A90687E30E941B0981E594E00E94A906C5
:1021100064E18FE10E94BB0880E594E00E94A9067B
:1021200086E30E941B098CE394E00E94A90687E3E2
:102130000E941B098CE194E057CF64E18AE10E9480
:10214000BB0884E594E00E94A90664E18BE10E944B
:10215000BB0881E194E00E94A90664E18CE10E9441
:10216000BB088CE494E00E94A90686E30E941B0948
:102170008CE394E00E94A90687E30E941B098DE18D
:1021800094E00E94A90664E18DE10E94BB088DE401
:1021900094E00E94A90686E30E941B098CE394E068
:1021A0000E94A90687E30E941B098EE494E00E9426
:1021B000A90686E30E941B098CE394E00E94A9060D
:1021C00087E30E941B098DE194E00E94A90664E167
:1021D0008EE10E94BB088EE494E00E94A90686E38B
:1021E0000E941B098CE394E00E94A90687E30E94E9
:1021F0001B098EE294E00E94A90686E30E941B0957
:102200008CE394E00E94A90687E30E941B098EE4F8
:1022100094E00E94A90664E18FE10E94BB088DE46E
:1022200094E00E94A90686E30E941B098CE394E0D7
:102230000E94A90687E30E941B098EE494E00E9495
:10224000A90686E30E941B098CE394E00E94A9067C
:1022500087E30E941B098DE194E00E94A90664E1D6
:1022600080E20E94BB088CE494E00E94A90686E309
:102270000E941B098CE394E00E94A90687E30E9458
:102280001B098DE194E0B8CE64E18AE10E94BB08AD
:102290008FEC94E00E94A90664E18BE10E94BB08E8
:1022A00086E30E941B0982E394E00E94A90664E190
:1022B0008CE10E94BB0886E30E941B098AE394E03C
:1022C0000E94A90687E30E941B098EE494E00E9405
:1022D000A90686E30E941B098EE394E00E94A906EA
:1022E00064E18DE10E94BB088BE394E00E94A906A3
:1022F00087E30E941B098EE294E00E94A90686E310
:102300000E941B098EE394E00E94A90664E18EE11D
:102310000E94BB088CE394E00E94A90687E30E9418
:102320001B098CE294E00E94A90686E30E941B0927
:102330008CE394E00E94A90664E18FE10E94BB084F
:102340008BE394E00E94A90687E30E941B098EE2BA
:1023500094E00E94A90686E30E941B098EE394E0A4
:102360000E94A90664E180E20E94BB088AE394E02F
:102370000E94A90687E30E941B098EE494E00E9454
:10238000A90686E30E941B098EE394E00E94A90639
:1023900064E181E20E94BB0882E394E00E94A90606
:1023A00021967ACDDF91CF9108950E94480F0E9427
:1023B000480F0E94480F0E94480F0C94480FEF925C
:1023C000FF920F931F93CF93DF9368E281E00E9407
:1023D000BB0890E080E0FC01EE0FFF1FE755F74FD0
:1023E0001182108201968A309105A9F7D0E0C0E0F1
:1023F000EE24E394F12CE3C084E00E94BB088CE857
:1024000094E00E94A90668E285E00E94BB088EE580
:1024100094E00E94A9068091AB089091AC0868E214
:10242000892B09F041C186E00E94BB088CE894E04A
:102430000E94A90668E287E00E94BB088EE594E04E
:102440000E94A9068091AD089091AE0868E2892BA0
:1024500009F022C188E00E94BB088CE894E00E9449
:10246000A90668E289E00E94BB088EE594E00E941C
:10247000A9068091AF089091B00868E2892B09F015
:1024800003C18AE00E94BB088CE894E00E94A90680
:1024900068E28BE00E94BB088EE594E00E94A906EA
:1024A0008091B1089091B20868E2892B09F0E4C0EC
:1024B0008CE00E94BB088CE894E00E94A90668E2C8
:1024C0008DE00E94BB088EE594E00E94A9068091F1
:1024D000B3089091B40868E2892B09F0C5C08EE07A
:1024E0000E94BB088CE894E00E94A90668E28FE095
:1024F0000E94BB088EE594E00E94A9068091B50871
:102500009091B60868E2892B09F0A6C080E10E948C
:10251000BB088CE894E00E94A90668E281E10E9471
:10252000BB088EE594E00E94A9068091B7089091BF
:10253000B80868E2892B09F087C082E10E94BB08D5
:102540008CE894E00E94A90668E283E10E94BB083F
:102550008EE594E00E94A9068091B9089091BA088E
:1025600068E2892B09F068C084E10E94BB088CE80E
:1025700094E00E94A90668E285E10E94BB088EE50E
:1025800094E00E94A9068091BB089091BC0868E283
:10259000892B09F049C086E10E94BB088CE894E0D1
:1025A0000E94A90668E287E10E94BB088EE594E0DC
:1025B0000E94A906E8010A30110509F47DC068E20D
:1025C00081E00E94BB088E010F5F1F4FCC0FDD1F03
:1025D000C755D74FF982E88268E281E00E94BB08C4
:1025E0008EE594E00E94A90668E282E00E94BB08A2
:1025F00085E794E00E94A90668E283E00E94BB0898
:102600008EE594E00E94A9068091A9089091AA08FD
:1026100068E2892B09F4F0CE84E00E94BB0883EACB
:1026200094E00E94A906EFCE86E10E94BB0883EAEF
:1026300094E00E94A906B6CF84E10E94BB0883EA19
:1026400094E00E94A90697CF82E10E94BB0883EA2A
:1026500094E00E94A90678CF80E10E94BB0883EA3B
:1026600094E00E94A90659CF8EE00E94BB0883EA3D
:1026700094E00E94A9063ACF8CE00E94BB0883EA4E
:1026800094E00E94A9061BCF8AE00E94BB0883EA5F
:1026900094E00E94A906FCCE88E00E94BB0883EA71
:1026A00094E00E94A906DDCE86E00E94BB0883EA82
:1026B00094E00E94A906BECEDF91CF911F910F91A9
:1026C000FF90EF9008950E94BB090E94B10C0E94F8
:1026D000BB090E94480F0E94BB090E94DF11F3CF83
:1026E00081EA98E00E941F0C8091A5089091A608AD
:1026F0000A970CF45AC160E080E00E94BB0883E3B3
:102700000E941B098AEB94E00E94A9068091A5080B
:102710009091A60864E670E00E942315072E000C35
:10272000880B990B0E94400782EC94E00E94A90656
:1027300060E082E00E94BB0880EE94E00E94A9065F
:10274000E091A308F091A408E750FF4F808190E04A
:102750000E94E806E091A308F091A408E750FF4F1B
:102760008081882309F41CC1E12CD0E05BEA352E7E
:1027700061E2462EFDC0D39D812D11248695982FB0
:10278000990F890FCD2FC81BC49DC02D1124A8E11E
:10279000DA2EB7E1CB2E16E1B12E05E1A02E84E1B1
:1027A000982E93E1892E22E1722E31E1632E40E1D1
:1027B000542E1FE082E30E941B096C2F812F0E9480
:1027C000BB0884EF94E00E94A906E091A308F09171
:1027D000A4088FE1F82EFD9E80011124E00FF11F67
:1027E000808190E00E94E8066C2F852D0E94BB0836
:1027F00080E095E00E94A906C8010A962091A308EE
:102800003091A408820F931F0E94A9066C2F862D79
:102810000E94BB088EE095E00E94A906E091A30803
:10282000F091A408E00FF11F8789908D0E947F0727
:102830006C2F872D0E94BB088AE195E00E94A906B3
:10284000E091A308F091A408E00FF11F838D948D0F
:1028500020853185821B930B0E94E80688E295E073
:102860000E94A9066C2F882D0E94BB0882E395E088
:102870000E94A906E091A308F091A408E00FF11FBF
:10288000858996890E94E80688E295E00E94A9065B
:102890006C2F892D0E94BB088FE395E00E94A9064A
:1028A000E091A308F091A408E00FF11F80859185C5
:1028B0000E947F076C2F8A2D0E94BB0886E595E059
:1028C0000E94A906E091A308F091A408E00FF11F6F
:1028D000818D928D0E947F076C2F8B2D0E94BB08EB
:1028E00083E695E00E94A906E091A308F091A40870
:1028F000E00FF11F838D948D0E947F076C2F8C2D2C
:102900000E94BB088FE695E00E94A9068091A3086B
:102910009091A408FC01E850FF4F2081F29E800DA9
:10292000911D1124FC0182819381A481B5810E94B3
:10293000E8066C2F8D2D0E94BB088EE795E00E9463
:10294000A9068091A3089091A408080F191FF80107
:10295000868197810E94FF0BDF5FE091A308F091D1
:10296000A408E750FF4F8081F1E2EF0ED817C0F4C2
:10297000D33008F000CFCE2D9DE0D92E2CE0C22E12
:102980003BE0B32E4AE0A42E59E0952E68E0862E57
:1029900077E0772EE6E06E2EF5E05F2E14E00ACFAA
:1029A00081EA98E00E94630C9BCE0E94BB09A3CEF3
:1029B0001092BA061092B9061092910710929007E1
:1029C0000E94800681E00E941704C82F811136C042
:1029D00089E893E00E94A9068C2F90E00E94E80607
:1029E0008FE895E00E94190C0E9452060E94700622
:1029F000789400E012E02BEB36E050E040E062E03B
:102A000070E080E090E00E94E50482E090E00E94A7
:102A1000CE010E94280282E090E00E9466090E9496
:102A2000E00022E937E050E040E06EE877E080E047
:102A300090E00E94E5040E94AA00FFCF80EA93E0A4
:102A40000E94A906C9CF97FB072E16F4009407D061
:102A500077FD09D00E94591507FC05D03EF49095EA
:102A600081959F4F0895709561957F4F0895A1E2DC
:102A70001A2EAA1BBB1BFD010DC0AA1FBB1FEE1FF8
:102A8000FF1FA217B307E407F50720F0A21BB30B43
:102A9000E40BF50B661F771F881F991F1A9469F7BF
:102AA00060957095809590959B01AC01BD01CF011B
:102AB0000895AA1BBB1B51E107C0AA1FBB1FA61785
:102AC000B70710F0A61BB70B881F991F5A95A9F7D7
:102AD00080959095BC01CD0108950F931F93CF93DE
:102AE000DF938230910510F482E090E0E091BF081E
:102AF000F091C00830E020E0B0E0A0E0309799F419
:102B00002115310509F44AC0281B390B2430310541
:102B1000D8F58A819B816115710589F1FB01938349
:102B20008283FE0111C040815181028113814817C7
:102B30005907E0F04817590799F4109761F0129679
:102B40000C93129713961C933296CF01DF91CF917D
:102B50001F910F9108950093BF081093C008F4CF00
:102B60002115310551F04217530738F0A901DB0157
:102B70009A01BD01DF01F801C1CFEF01F9CF9093B8
:102B8000C0088093BF08CDCFFE01E20FF31F8193F1
:102B900091932250310939832883D7CF2091BD08E2
:102BA0003091BE08232B41F4209106023091070298
:102BB0003093BE082093BD08209104023091050295
:102BC0002115310541F42DB73EB7409108025091CF
:102BD0000902241B350BE091BD08F091BE08E217F5
:102BE000F307A0F42E1B3F0B2817390778F0AC0130
:102BF0004E5F5F4F2417350748F04E0F5F1F50930D
:102C0000BE084093BD08819391939FCFF0E0E0E030
:102C10009CCFCF93DF930097E9F0FC0132971382AA
:102C20001282A091BF08B091C008ED0130E020E011
:102C30001097A1F420813181820F931F2091BD084C
:102C40003091BE082817390709F061C0F093BE081B
:102C5000E093BD08DF91CF910895EA01CE17DF0719
:102C6000E8F54A815B819E0141155105B1F7E90103
:102C7000FB83EA8349915991C40FD51FEC17FD07D7
:102C800061F4808191810296840F951FE9019983F7
:102C90008883828193819B838A83F0E0E0E01296AF
:102CA0008D919C9113970097B9F52D913C911197B7
:102CB000CD010296820F931F2091BD083091BE086E
:102CC0002817390739F6309751F51092C00810923D
:102CD000BF08B093BE08A093BD08BCCFD383C28306
:102CE00040815181840F951FC817D90761F44E5F49
:102CF0005F4F88819981480F591F518340838A8192
:102D00009B81938382832115310509F0B0CFF09325
:102D1000C008E093BF089ECFFD01DC01C0CF138245
:102D20001282D7CFFB01DC0102C001900D9241500D
:0A2D30005040D8F70895F894FFCF43
:102D3A000A0000000000C1082000696E6F64653A4D
:102D4A0020007265635F6C656E3A20006E616D6586
:102D5A005F6C656E3A20006E616D655B5D3A2000BE
:102D6A00695F6D6F64653A2000695F6D6F64652005
:102D7A006D61736B65643A2000695F7569643A2016
:102D8A0000695F73697A653A2000695F6174696DE9
:102D9A00653A2000695F6374696D653A2000695F6E
:102DAA006D74696D653A2000695F6474696D653A8E
:102DBA002000695F6769643A2000695F6C696E6B1D
:102DCA00735F636F756E743A2000695F626C6F633C
:102DDA006B733A2000695F666C6167733A20006919
:102DEA005F626C6F636B5B305D3A2000695F626C97
:102DFA006F636B5B315D3A2000695F626C6F636B76
:102E0A005B325D3A2000695F626C6F636B5B335DB6
:102E1A003A2000526F6F7420696E6F64652073697F
:102E2A007A653A0073644361726453697A653A2039
:102E3A0000426C6F636B7320636F756E743A200087
:102E4A00526573657276656420626C6F636B73207A
:102E5A00636F756E743A20004672656520626C6F06
:102E6A00636B7320636F756E743A200046726565F2
:102E7A0020696E6F64657320636F756E743A200003
:102E8A004669727374206461746120626C6F636B4B
:102E9A003A2000426C6F636B732070657220677210
:102EAA006F75703A2000496E6F64657320706572A1
:102EBA002067726F75703A20004E6F20736420632A
:102ECA006172642064657465637465642E0A0D001A
:102EDA0043617264207375636365737366756C6CA2
:102EEA007920726561642E0A0D003031323334352F
:102EFA0036373839414243444546006D61696E00B0
:102F0A005448524541445F524541445920202000CB
:102F1A005448524541445F57414954494E4720005D
:102F2A005448524541445F52554E4E494E4720201F
:102F3A00005448524541445F534C454550494E4719
:102F4A0000202020232020200020202323232020AB
:102F5A000020232323232320200023232323232386
:102F6A002300202020302020200020203000302084
:102F7A002000434F4E53554D494E47002020230011
:102F8A002023230050524F445543494E47002B2DCE
:102F9A002D2D2D2D2D2D2D2D2D2D2D2D2D2D2D2D57
:102FAA002D2D2D2B007C20426F756E6465642042A6
:102FBA00756666657220202020207C007C202020F7
:102FCA0020202020202020202020202020202020F7
:102FDA00207C007C2323232323232323232323232B
:102FEA0023232323232323237C0054696D65723A08
:102FFA0020002020202020202020202020202020E7
:10300A0020202020202020202020202020202000D6
:10301A004E756D626572206F6620546872656164D0
:10302A00733A20005468726561642049643A20004A
:10303A00546872656164206E616D653A2000546857
:10304A00726561642050433A2000537461636B20B7
:10305A0055736167653A2000206279746573202090
:10306A002000537461636B2053697A653A200043E8
:10307A00757272656E7420746F70206F6620737437
:10308A0061636B3A2000537461636B2062617365FC
:10309A003A2000537461636B20656E643A200053D2
:1030AA00636865642E20436F756E743A2000546815
:0E30BA0072656164205374617475733A20006E
:00000001FF
