:100000000C9476000C9497000C9497000C94970035
:100010000C9497000C9497000C9497000C94970004
:100020000C9497000C9497000C9497000C949700F4
:100030000C9497000C9497000C9497000C949700E4
:100040000C9497000C941B090C9497000C94970047
:100050000C9497000C94020A0C9497000C9497004F
:100060000C9497000C9497000C9497000C949700B4
:100070000C9497000C9497000C9497000C949700A4
:100080000C9497000C9497000C9497000C94970094
:100090000C9497000C9497000C9497000C94970084
:1000A0000C9497000C9497000C9497000C94970074
:1000B0000C9497000C9497000C9497000C94970064
:1000C0000C9497000C9497000C9497000C94970054
:1000D0000C9497000C9497000C9497000C94970044
:1000E0000C9497000C9450140C94B70711241FBE65
:1000F000CFEFD1E2DEBFCDBF00E00CBF14E0A0E047
:10010000B2E0E2ECFBE200E00BBF02C007900D9210
:10011000AC32B107D9F714E0ACE2B4E001C01D92F3
:10012000A837B107E1F70E9450140C94DF150C9426
:1001300000008FEF8EBD80915604909157049C0172
:100140002F5F3F4F309357042093560481309240E5
:1001500098F44FEF0DB407FEFDCF4EBD80915604CD
:10016000909157049C012F5F3F4F30935704209389
:1001700056048130924070F30DB407FEFDCF289AEB
:100180008FEF8EBD0DB407FEFDCF10922E040895A3
:100190008093300408958093300460932F04089571
:1001A000CF93DF931F92CDB7DEB790912E049923A2
:1001B00021F089830E949900898180932D040F90FA
:1001C000DF91CF91089580912C04089580932C04A1
:1001D00008950F931F93CF93DF9300D01F921F9228
:1001E000CDB7DEB790912E04911159C0289808EC34
:1001F00017E924E030E0EFEFEEBD0DB407FEFDCFD0
:100200009EB59F3F69F09AE09A95F1F700C00150C2
:10021000110921093109011511052105310561F780
:10022000982F90649EBD0DB407FEFDCFE8E1F0E08D
:100230008A019B010E2E04C03695279517950795C8
:100240000A94D2F70EBD0DB407FEFDCF3897E83FF4
:100250009FEFF90769F78823A1F08830F1F487E868
:100260008EBD0DB407FEFDCF90E02FEF2EBD0DB477
:1002700007FEFDCF8EB587FF06C09F3F21F09F5F31
:10028000F5CF85E9EDCF0F900F900F900F900F9065
:10029000DF91CF911F910F9108958FEFE1CF4A83A6
:1002A0005B836C837D8389830E94990089817D8132
:1002B0006C815B814A819ACFCF92DF92EF92FF925D
:1002C0001F93CF93DF93C82F209A289A229A219ABE
:1002D00083E58CBD2AE030E08FEF8EBD0DB407FEC4
:1002E000FDCF2150310921153105B9F7289821E0BA
:1002F00032E09FEF9EBD0DB407FEFDCF8EB52150BD
:10030000310921153105B1F7DBE040E050E0BA01D9
:1003100080E00E94E900182F813081F0D150A9F7C8
:1003200081E08093300410932F048D2FDF91CF91C3
:100330001F91FF90EF90DF90CF9008954AEA51E02F
:1003400060E070E088E00E94E900813009F450C06C
:1003500082FF48C010932C0488E6C82E88E8D82E67
:100360008EE1E82EF12C13C040E050E0BA0189E2A2
:100370000E94E900882311F181E0C81AD108E10840
:10038000F108C114D104E104F10409F447C08AE082
:100390008A95F1F700C040E050E0BA0187E30E947F
:1003A000E90080912C048230F9F640E050E060E0F2
:1003B00070E489E20E94E9008111DECF80912C0473
:1003C0008230A9F18CB58C7F8CBDC11103C08DB575
:1003D00081608DBD289A8FEF8EBD0DB407FEFDCFD5
:1003E000D1E0A3CF92E09093300480932F04B4CF58
:1003F00024E030E09FEF9EBD0DB407FEFDCF8EB52B
:100400002150310921153105B1F78A3A61F099E09F
:100410009093300480932F04D0E087CF86E08093C0
:100420003004D0E082CF82E080932C0495CF40E06E
:1004300050E0BA018AE30E94E90081111AC08FEFEF
:100440008EBD0DB407FEFDCF8EB5807C803C19F4C7
:1004500083E080932C0423E030E08FEF8EBD0DB459
:1004600007FEFDCF9EB52150310921153105B1F7A9
:10047000A9CF85E080933004D0E057CF80912E043F
:1004800081110C94990008954F925F926F927F9220
:100490008F929F92AF92BF92CF92DF92EF92FF9294
:1004A000CF93C12CD12C7601CFEF28EE422E23E042
:1004B000522E612C712C4C01A12CB12CCEBD0DB44F
:1004C00007FEFDCF8EB58F3F19F18FEFC81AD80AFE
:1004D000E80AF80A8AE08A95F1F700C0C701B60178
:1004E000A30192010E94791482169306A406B50610
:1004F00028F780E0CF91FF90EF90DF90CF90BF90F2
:10050000AF909F908F907F906F905F904F900895E5
:1005100081E0F0CF88EC97E9A4E0B0E03FEF3EBD8A
:100520000DB407FEFDCF2EB52F3F81F42AE02A95AA
:10053000F1F700C00197A109B1090097A105B10524
:1005400071F78DE08093300480E008952E3F39F0FC
:1005500080E18093300420932F0480E0089581E0AF
:100560000895AF92BF92CF92DF92EF92FF920F93D6
:100570001F93CF93DF931F921F92CDB7DEB75A011F
:100580000115110509F494C0A8014A0D5B1D413005
:10059000524028F540912E0441118CC060935204C2
:1005A00070935304809354049093550440912C0409
:1005B000433039F049E0660F771F881F991F4A952D
:1005C000D1F7AB01BC0181E129833A830E94E900A4
:1005D00029813A81882389F083E08093300480E088
:1005E0000F900F90DF91CF911F910F91FF90EF909F
:1005F000DF90CF90BF90AF90089529833A830E94F7
:100600008A0229813A81882351F31092570410926B
:10061000560481E080932E048FEF8EBD80915604A6
:10062000909157048A159B0588F44FEF0DB407FE8F
:10063000FDCF4EBD80915604909157040196909342
:100640005704809356048A159B0580F3A8014150F6
:1006500051094115510571F0F90180E090E07FEFFB
:100660000DB407FEFDCF6EB561937EBD0196841774
:100670009507B0F30DB407FEFDCF8EB5F901E40F79
:10068000F51F80838091560490915704800F911F2D
:10069000909357048093560420912D04222319F03F
:1006A0008115924028F080912E0481110E949900BA
:1006B00081E096CFC0905204D0905304E09054044F
:1006C000F09055046C157D058E059F0509F066CFE9
:1006D0004091560450915704A416B50608F09CCFDB
:1006E0005DCF0F931F939A0100E012E040E050E0CD
:1006F0000E94B1021F910F910895CF93DF93D62FDF
:10070000C72F40E050E0BA010E94E900882339F089
:1007100088E08093300480E0DF91CF9108950E94BB
:100720008A02882329F1ED2FFC2F80E090E03FEF33
:100730003EBD0DB407FEFDCF2EB52193019680314D
:100740009105B1F78FEF8EBD0DB407FEFDCF8EB5CD
:100750008FEF8EBD0DB407FEFDCF8EB5289A8FEFBB
:100760008EBD0DB407FEFDCF81E0DF91CF910895DE
:1007700080E0DF91CF9108950F931F93CF93DF9384
:10078000CDB7DEB760970FB6F894DEBF0FBECDBF12
:10079000BE016F5F7F4F89E00E947D03882309F4CB
:1007A00047C08981807CA1F0803409F445C087E08E
:1007B0008093300460E070E0CB0160960FB6F8944F
:1007C000DEBF0FBECDBFDF91CF911F910F91089576
:1007D0006F81637070E0762F6627770F770F8885BB
:1007E00090E0880F991F880F991F682B792B8985B6
:1007F0008295869586958370682B6F5F7F4F80E02A
:1008000090E04A854370440F2B8527FB222720F96F
:10081000422B2E812F7030E0240F311D27503109DB
:1008200004C0660F771F881F991F2A95D2F7C5CF7E
:1008300060E070E0CB01C1CF688566956695862F34
:1008400090E0A0E0B0E0772766272A85622B098533
:1008500010E0102F0027222717FD2095322F602B44
:10086000712B822B932B6F5F7F4F8F4F9F4FFAE03F
:10087000660F771F881F991FFA95D1F79ECFBC018D
:1008800089E00C947D03BC018AE00C947D03EEE6C4
:10089000F0E080818260808384B5826084BD85B50C
:1008A000826085BD8AE587BD89E09DE390938900DC
:1008B00080938800EFE6F0E0808182608083E1E849
:1008C000F0E080818D6080830895E0EBF0E080812E
:1008D00083628083E1EBF0E0808181608083E1E0EE
:1008E000F1E0808180648083089582E08093C0007D
:1008F0001092C50080E18093C400E1ECF0E08081BB
:100900008861808308958091C000881F8827881F90
:1009100008958091C00087FD02C08FEF08958091F7
:10092000C60008959091C10095FDFCCF9091C00044
:1009300095FFF8CF8093C60081E00895FC012081E7
:10094000222371F031968091C10085FDFCCF80910A
:10095000C00085FFF8CF2093C60021912111F3CF6D
:100960000895CF93DF931092500416161706CCF417
:10097000E0E5F4E02EE130E0CAE0D0E001C09C0107
:10098000CB01BE010E946514805D8293C90101976D
:1009900061157105A1F7C9018F5C9B4FDF91CF9164
:1009A000089520E030E0F7CFCF93DF93009799F1DF
:1009B0001092500418161906ECF5E0E5F4E02EE16B
:1009C00030E0CAE0D0E001C09A01BE010E94651487
:1009D000A0E3A80FA293CB01A901415051090097B0
:1009E00099F72F5C3B4FF90131969091C10095FD2D
:1009F000FCCF9091C00095FFF8CFA093C600A191C5
:100A0000AA23A9F09091C10095FDEFCFF2CF80917C
:100A1000C00085FD09C08091C10085FFF8CF80919D
:100A2000C10085FDF8CFF3CF80E38093C600DF914E
:100A3000CF910895A0913104AA23C9F321E334E0B2
:100A4000D2CFCF93DF93109250041616170644F5B9
:100A5000E0E5F4E02EE130E0CAE0D0E001C09A0128
:100A6000CB01BE010E946514805D8293A9014150B3
:100A700051096115710599F72F5C3B4FF9013196CA
:100A80009091C10095FDFCCF9091C00095FFF8CFEB
:100A90008093C60081918111F3CFDF91CF910895AA
:100AA000809131048823C9F321E334E0E7CF0F9329
:100AB0001F93CF93DF93CDB7DEB7E1970FB6F894CE
:100AC000DEBF0FBECDBF21E1E0E3F2E0DE01919693
:100AD00001900D922A95E1F7AE014F5F5F4F20E242
:100AE000FA0111922A95E9F7DE0190960EE110E0E5
:100AF00016C061E270E06C0F7D1F260F371FF901F1
:100B000020812C9397FD68C095958795959587953D
:100B10009595879595958795181619069CF401501B
:100B2000110911979C012F70307837FFE2CF2150C7
:100B30003109206F3F6F2F5F3F4FDBCF8091C000A7
:100B400085FD09C08091C10085FFF8CF8091C1006B
:100B500085FDF8CFF3CF80E38093C6008091C1007C
:100B600085FDFCCF8091C00085FFF8CF88E780939A
:100B7000C6000B3111056CF0F8013196E40FF51F3A
:100B8000CE014C9620E32293E817F907E1F70AE13A
:100B900010E0DE01A00FB11F12969C91992389F0FD
:100BA000F8013296E40FF51F8091C10085FDFCCF5E
:100BB0008091C00085FFF8CF9093C600919191116C
:100BC000F3CFE1960FB6F894DEBF0FBECDBFDF9135
:100BD000CF911F910F9108950F9696CF0F931F936A
:100BE000CF93DF93CDB7DEB7E1970FB6F894DEBFB2
:100BF0000FBECDBF21E1E0E3F2E0DE01919601906E
:100C00000D922A95E1F79E012F5F3F4F40E2F901D7
:100C100011924A95E9F7DE0190960EE110E016C0B8
:100C200041E250E04C0F5D1F840F951FFC01808155
:100C30008C9377FD66C075956795759567957595E5
:100C4000679575956795161617068CF4015011096E
:100C50001197CB018F70907897FFE2CF0197806F4B
:100C60009F6F0196DDCF8091C00085FD09C0809106
:100C7000C10085FFF8CF8091C10085FDF8CFF3CF8B
:100C800080E38093C6008091C10085FDFCCF8091F8
:100C9000C00085FFF8CF88E78093C6000B311105AF
:100CA0006CF0F8013196E20FF31FCE014C9640E351
:100CB0004293E817F907E1F70AE110E0DE01A00F1F
:100CC000B11F12969C91992389F0F8013296E20F98
:100CD000F31F8091C10085FDFCCF8091C00085FF8E
:100CE000F8CF9093C60091919111F3CFE1960FB692
:100CF000F894DEBF0FBECDBFDF91CF911F910F9152
:100D00000895615F7F4F97CF0F931F93CF93DF932A
:100D1000C62F082F10E0C8010115110561F0E0E5AC
:100D2000F4E02AE030E0B9010E946514805D82930E
:100D3000CB010097C1F7D0E0CE011092500420976C
:100D400061F0E0E5F4E02AE030E0B9010E946514CA
:100D5000805D8293CB010097C1F78091C10085FD32
:100D6000FCCF8091C00085FFF8CF8BE18093C60057
:100D70008091C10085FDFCCF8091C00085FFF8CF38
:100D80008BE58093C600C8010E94D4048091C10005
:100D900085FDFCCF8091C00085FFF8CF8BE3809369
:100DA000C600CE010E94D4048091C10085FDFCCF15
:100DB0008091C00085FFF8CF88E48093C600DF9162
:100DC000CF911F910F9108959091C10095FDFCCF97
:100DD0009091C00095FFF8CF9BE19093C600909151
:100DE000C10095FDFCCF9091C00095FFF8CF9BE529
:100DF0009093C6009091C10095FDFCCF9091C000EA
:100E000095FFF8CF93E39093C6009091C10095FDB4
:100E1000FCCF9091C00095FFF8CF8093C6008091E1
:100E2000C10085FDFCCF8091C00085FFF8CF8DE625
:100E30008093C6000895F0E0E4E2508160E86083AA
:100E4000E5E2508160E860830895F0E0E4E25081DB
:100E500060E86083E5E2508160E0608308951816E1
:100E600019066CF420E030E0EFE9FFE03197F1F78C
:100E700000C000002F5F3F4F28173907A9F70895DA
:100E8000FC01208131818091C00087FD3CC04FEF83
:100E9000F0E0E4E2508160E86083E5E2508160E8E0
:100EA00060831216130664F480E090E0EFE9FFE03F
:100EB0003197F1F700C00000019682179307B1F750
:100EC000F0E0E4E2508160E86083E5E2508160E0B8
:100ED00060831216130664F480E090E0EFE9FFE00F
:100EE0003197F1F700C00000019682179307B1F720
:100EF000413661F04A3709F0C6CF2C5E3F4F8091F2
:100F0000C00087FFC4CF4091C600C2CF2451310931
:100F1000BACF8091C10085FDFCCF8091C00085FFD4
:100F2000F8CF8BE18093C6008091C10085FDFCCF96
:100F30008091C00085FFF8CF8BE58093C60080913B
:100F4000C10085FDFCCF8091C00085FFF8CF82E312
:100F50008093C6008091C10085FDFCCF8091C000C8
:100F600085FFF8CF8AE48093C6000895FFCF789478
:100F7000912F802FFD2FEC2F09948F929F92AF928B
:100F8000BF92DF92EF92FF920F931F93CF93DF9365
:100F900000D01F92CDB7DEB77C018901C9014B8318
:100FA0005C8369837A830E94AF14A0905A04B09046
:100FB0005B04D501A750BF4F2C913FE1D32EF50123
:100FC000D29EE00DF11D1124928F818F2C91F5019D
:100FD000D29EE00DF11D11249C01200F311F348F92
:100FE000238F2C91F501D29EE00DF11D1124118269
:100FF0002C91F501D29EE00DF11D11241282138275
:10100000148215822C91F501D29EE00DF11D112460
:1010100021E030E037832683480126E1821A9108D7
:10102000880E991E8C91F501D89EE00DF11D1124BA
:10103000968E858EF40110827A8171836981628334
:101040005C8153834B8144831582168217821086FC
:101050001186128613861486158616861786108AC0
:10106000118A128A138A87EB97E0948B858B8C9177
:101070002C91A501D89E400D511D1124FA01208309
:101080008C919501D89E200D311D1124F901678B9B
:10109000708FF70101900020E9F7AF018C91950165
:1010A000D89E200D311D1124C9014E195F09B701C9
:1010B0000A960E94D61580915A0490915B04FC0117
:1010C000E750FF4F2081DC01D29EA00DB11D1124FD
:1010D00056961C930E9355972081DC01D29EA00D4D
:1010E000B11D112419969C928E92189780818F5F62
:1010F00080830F900F900F900F90DF91CF911F91F1
:101100000F91FF90EF90DF90BF90AF909F908F90E6
:1011100008950E94750489E091E00E94AF149093B5
:101120005B0480935A04FC01E850FF4F21E02083C8
:10113000FC01E750FF4F2083FC01E650FF4F108277
:1011400011821282138284E190E00E94AF14909386
:1011500059048093580488E594E00C94980A1F93EE
:10116000CF93DF9360915A0470915B04EB01C850F8
:10117000DF4F1881DB01A750BF4F8C91212F30E04A
:1011800090E00197281739076CF581E0810F9FE106
:1011900008C02C9130E0215031094217530704F167
:1011A00080E0482F50E0FB01989FE00DF11D1124D5
:1011B000268137812130310561F7811751F388830A
:1011C00042815381648175814F5F5F4F6F4F7F4FC5
:1011D0004283538364837583DF91CF911F91089578
:1011E0008F5FDFCF80E0D3CF80915A0490915B0472
:1011F000FC01E850FF4F2081FC01E750FF4F808148
:10120000FFCF80915A0490915B04FC01E850FF4F9E
:101210002081DC01A750BF4F8C9130E090E0019716
:10122000281739071CF010828081089580818F5F14
:101230008083808108951F920F920FB60F92112420
:101240000BB60F922F933F934F938F939F93AF9330
:10125000BF93EF93FF9380915A0490915B04DC015C
:10126000A750BF4F2C91222379F020E04FE1FC01E1
:10127000429FE00DF11D1124128213821482158207
:101280002F5F3C91231798F3FF91EF91BF91AF919E
:101290009F918F914F913F912F910F900BBE0F9087
:1012A0000FBE0F901F9018952F923F924F925F9212
:1012B0006F927F928F929F92AF92BF92CF92DF9266
:1012C000EF92FF920F931F93CF93DF93F0E0EEE541
:1012D0002081EDE53081F72FE62F31932083F92F20
:1012E000E82F51916081F0E0EEE56083EDE55083F9
:1012F000DF91CF911F910F91FF90EF90DF90CF90F2
:10130000BF90AF909F908F907F906F905F904F9025
:101310003F902F9008951F93CF93DF9320915A040D
:1013200030915B04F901E850FF4FC0811FE11C9F21
:10133000E0011124F901EC0FFD1F43E050E0578359
:1013400046830E94AF0820915A0430915B04189F95
:10135000C0011124F901E80FF91F17821682BE019E
:10136000685F7F4F620F731F0896820F931F0E9462
:101370005409DF91CF911F910895CF93DF9300D04F
:101380001F921F92CDB7DEB785E0E1E4F2E0DE0107
:10139000119601900D928A95E1F710925D041092DA
:1013A0005C040E944704789480915A0490915B04F5
:1013B000FC01128E118E148E138E168E158E1082D5
:1013C00020E534E1308F278B25E0FE013196DC01EA
:1013D0001A9601900D922A95E1F7FC01168A158A5A
:1013E00021E030E037832683BC01685F7F4F87961A
:1013F0000E9454090F900F900F900F900F90DF9163
:10140000CF9108951F920F920FB60F9211240BB631
:101410000F92EF92FF920F931F932F933F934F934F
:101420005F936F937F938F939F93AF93BF93CF936C
:10143000DF93EF93FF9380915A0490915B04FC013A
:10144000E850FF4F2081022F10E0FC013FE1239F75
:10145000E00DF11D112486819781039721F081E031
:1014600090E0978386830E94AF08C0915A04D09180
:101470005B04E82EF12CFE019FE1899FE00DF11D38
:1014800011241782168220915C0430915D042F5F35
:101490003F4F30935D0420935C04FE01E850FF4F02
:1014A00080832FE1209FB001219F700D1124685F80
:1014B0007F4F6C0F7D1F2E9DC0012F9D900D11241D
:1014C00008968C0F9D1F0E945409FF91EF91DF91A8
:1014D000CF91BF91AF919F918F917F916F915F91CC
:1014E0004F913F912F911F910F91FF90EF900F908F
:1014F0000BBE0F900FBE0F901F9018958130910575
:1015000099F070F08230910519F0039729F0089551
:1015100087E792E00C949E0486E592E00C949E048A
:1015200086E692E00C949E0486E492E00C949E047D
:10153000DC01ED91FC9181E090E091838083138A3E
:10154000128A1382128215821482178216821186E1
:101550001086138612861586148617861686118ABB
:10156000108A0895CF93DF93F894DC01ED91FC91FC
:10157000808191811816190634F4118210827894B2
:10158000DF91CF910895A289B38920915A043091B7
:101590005B04E901C850DF4F888190E01196AA0FE3
:1015A000BB1FAE0FBF1F11969C938E9382899389A8
:1015B0000196938B828B8881F901BFE18B9FE00DAF
:1015C000F11D112483E090E0978386830E948B09AC
:1015D000D6CF6150710916161706C4F4FC0120819C
:1015E000318180E090E00196FC013196EE0FFF1F03
:1015F000E20FF31F40815181FC01EE0FFF1FE20F4C
:10160000F31F51834083861797076CF30895F8946E
:10161000FC01A081B18181E090E011969C938E93B2
:1016200052962D913C9153971216130684F5E09132
:101630005A04F0915B0412964D915C9113976FE1FF
:10164000649F9001659F300D1124E20FF31F978373
:10165000868380E090E00196FC013196EE0FFF1F3B
:10166000EA0FFB1F20813181FC01EE0FFF1FEA0F03
:10167000FB1F318320838730910569F752968D9146
:101680009C915397019753969C938E93529778947D
:10169000089588E594E00E94B20A88E594E00E94EB
:1016A000070BF7CF88E594E00E94B20A88E594E042
:1016B0000E94070BF7CF88E594E00E94B20A88E504
:1016C00094E00E94070BF7CF88E594E00E94B20AED
:1016D00080915C0490915D040A970CF4B6C060E0C0
:1016E00082E00E94840687E892E00E949E04809136
:1016F0005A0490915B0489960E949E0460E083E006
:101700000E94840685E992E00E949E04E0915A04BA
:10171000F0915B0485A196A10E947E0A60E085E0BD
:101720000E94840687E892E00E949E0480915A04F9
:1017300090915B04885B9F4F0E949E0460E086E06E
:101740000E94840685E992E00E949E04E0915A047A
:10175000F0915B04EC5BFF4F808191810E947E0AD7
:1017600063E282E00E94840684EA92E00E949E0482
:10177000E0915804F0915904828993890E94D4041D
:1017800063E283E00E948406E0915804F0915904DA
:10179000828193810E94D40463E284E00E948406E3
:1017A000E0915804F0915904848195810E94D404F9
:1017B00063E285E00E948406E0915804F0915904A8
:1017C000868197810E94D40463E286E00E948406A9
:1017D000E0915804F0915904808591850E94D404C9
:1017E00063E287E00E948406E0915804F091590476
:1017F000828593850E94D40463E288E00E94840677
:10180000E0915804F0915904848595850E94D40490
:1018100063E289E00E948406E0915804F091590443
:10182000868597850E94D40463E28AE00E9484063C
:10183000E0915804F0915904808991890E94D40460
:1018400088E594E00E94070B3FCF0E94890747CFAD
:1018500088E594E00E94B20A88E594E00E94070BB4
:10186000F7CF08950895F894FC012081318121502B
:1018700031093183208378940895F894FC01208104
:1018800031812F5F3F4F31832083789408950895ED
:101890000895CF93DF93C0E0D0E041C060E082E0E4
:1018A0000E9484068EE693E00E949E0460E083E03E
:1018B0000E9484068FEA92E00E949E0460E084E029
:1018C0000E94840687EB92E00E949E0460E085E01F
:1018D0000E9484068FEB92E00E949E0460E086E006
:1018E0000E94840688EC92E00E949E0460E087E0FB
:1018F0000E9484068FEB92E00E949E0460E088E0E4
:101900000E94840687EB92E00E949E0460E089E0DA
:101910000E9484068FEA92E00E949E042196C531BF
:10192000D10508F4BBCFCE014597449708F457C0C2
:10193000CE018997449708F47FC1CE01CD97449793
:1019400008F413C1CE0181559109449708F4D8C019
:10195000C536D10509F0D1C060E082E00E9484065E
:1019600085E793E00E949E0460E083E00E94840685
:1019700085E793E00E949E0460E084E00E94840674
:1019800085E793E00E949E0460E085E00E94840663
:1019900085E793E00E949E0460E086E00E94840652
:1019A00085E793E00E949E0460E087E00E94840641
:1019B00085E793E00E949E0460E088E00E94840630
:1019C00085E793E00E949E0460E089E00E9484061F
:1019D00085E793E00E949E04C6E6D0E0A0CF60E0D9
:1019E00082E00E9484068DE693E00E949E0460E0FF
:1019F00083E00E94840686E30E94E40680ED92E084
:101A00000E949E0460E084E00E94840686E30E94B7
:101A1000E40688ED92E00E949E0487E30E94E406BB
:101A20008CEE92E00E949E0486E30E94E4068CED18
:101A300092E00E949E0460E085E00E94840689EDA9
:101A400092E00E949E0487E30E94E4068CEC92E000
:101A50000E949E0486E30E94E4068CED92E00E94C0
:101A60009E0460E086E00E9484068AED92E00E9477
:101A70009E0487E30E94E4068AEC92E00E949E04A2
:101A800086E30E94E4068AED92E00E949E0460E0F4
:101A900087E00E94840689ED92E00E949E0487E31D
:101AA0000E94E4068CEC92E00E949E0486E30E9471
:101AB000E4068CED92E00E949E0460E088E00E94C3
:101AC000840688ED92E00E949E0487E30E94E4066B
:101AD0008CEE92E00E949E0486E30E94E4068CED68
:101AE00092E00E949E0460E089E00E94840680EDFE
:101AF00092E00E949E04219612CFDF91CF9108952B
:101B000060E082E00E94840680EE92E00E949E04E3
:101B100060E083E00E9484068FEA92E00E949E04C7
:101B200060E084E00E94840687EB92E00E949E04BD
:101B300060E085E00E9484068FEB92E00E949E04A4
:101B400060E086E00E9484068CEC92E00E949E0495
:101B500086E30E94E4068AED92E00E949E0487E3F9
:101B60000E94E4068CEC92E0BFCE60E082E00E942E
:101B700084068EE693E00E949E0460E083E00E946B
:101B800084068FEA92E00E949E0460E084E00E9456
:101B9000840687EB92E00E949E0460E085E00E944C
:101BA00084068EEE92E00E949E0486E30E94E40684
:101BB0008AED92E00E949E0487E30E94E4068AEB8D
:101BC00092E00E949E0460E086E00E9484068FEE10
:101BD00092E00E949E0486E30E94E4068AED92E071
:101BE0000E949E0487E30E94E4068CEE92E00E942D
:101BF0009E0486E30E94E4068AED92E00E949E0421
:101C000087E30E94E4068FEE92E00E949E0460E06B
:101C100087E00E9484068EEE92E00E949E0486E396
:101C20000E94E4068AED92E00E949E0487E30E94EF
:101C3000E4068AEB92E060CE60E082E00E948406D7
:101C400080EE92E00E949E0460E083E00E948406A1
:101C50008FEA92E00E949E0460E084E00E94840685
:101C60008AEE92E00E949E0486E30E94E4068AEDDA
:101C700092E00E949E0487E30E94E4068BEB92E0D0
:101C80000E949E0460E085E00E9484068BEE92E054
:101C90000E949E0486E30E94E4068AED92E00E9480
:101CA0009E0487E30E94E4068CEE92E00E949E046C
:101CB00086E30E94E4068AED92E00E949E0487E398
:101CC0000E94E4068BEB92E00E949E0460E086E0B6
:101CD0000E9484068CEE92E00E949E0486E30E949D
:101CE000E4068AED92E00E949E0487E30E94E406E7
:101CF0008CEC92E00E949E0486E30E94E4068AED4A
:101D000092E00E949E0487E30E94E4068CEE92E03B
:101D10000E949E0460E087E00E9484068BEE92E0C1
:101D20000E949E0486E30E94E4068AED92E00E94EF
:101D30009E0487E30E94E4068CEE92E00E949E04DB
:101D400086E30E94E4068AED92E00E949E0487E307
:101D50000E94E4068BEB92E00E949E0460E088E023
:101D60000E9484068AEE92E00E949E0486E30E940E
:101D7000E4068AED92E00E949E0487E30E94E40656
:101D80008BEB92E0C1CD88E594E00E94B20A0E94FC
:101D9000490C88E594E00E94070BF5CFCF93DF93C1
:101DA000C0E0D0E041C064E18AE10E9484068EE692
:101DB00093E00E949E0464E18BE10E9484068FEA16
:101DC00092E00E949E0464E18CE10E94840687EB0D
:101DD00092E00E949E0464E18DE10E9484068FEBF4
:101DE00092E00E949E0464E18EE10E94840688ECE9
:101DF00092E00E949E0464E18FE10E9484068FEBD2
:101E000092E00E949E0464E180E20E94840687EBD7
:101E100092E00E949E0464E181E20E9484068FEABF
:101E200092E00E949E04219687E30E94E406C53159
:101E3000D10508F4B8CFCE014597449708F44FC0B8
:101E4000CE018997449708F4B7C1CE01CD97449746
:101E500008F40BC1CE0181559109449708F477C06D
:101E6000C536D10509F070C064E18AE10E9484069C
:101E700085E793E00E949E0464E18BE10E94840662
:101E800085E793E00E949E0464E18CE10E94840651
:101E900085E793E00E949E0464E18DE10E94840640
:101EA00085E793E00E949E0464E18EE10E9484062F
:101EB00085E793E00E949E0464E18FE10E9484061E
:101EC00085E793E00E949E0464E180E20E9484061C
:101ED00085E793E00E949E04C6E6D0E0A5CF64E1CA
:101EE0008AE10E94840682EF92E00E949E0464E1EF
:101EF0008BE10E9484068FEA92E00E949E0464E1D6
:101F00008CE10E94840687EB92E00E949E0464E1CB
:101F10008DE10E9484068FEB92E00E949E0464E1B2
:101F20008EE10E9484068CEC92E00E949E0486E37F
:101F30000E94E4068AED92E00E949E0487E30E94DC
:101F4000E4068CEC92E055CFDF91CF91089564E1E7
:101F50008AE10E9484068DE693E00E949E0464E17B
:101F60008BE10E94840686E30E94E40680ED92E005
:101F70000E949E0464E18CE10E94840686E30E9434
:101F8000E40688ED92E00E949E0487E30E94E40646
:101F90008CEE92E00E949E0486E30E94E4068CEDA3
:101FA00092E00E949E0464E18DE10E94840689ED26
:101FB00092E00E949E0487E30E94E4068CEC92E08B
:101FC0000E949E0486E30E94E4068CED92E00E944B
:101FD0009E0464E18EE10E9484068AED92E00E94F4
:101FE0009E0487E30E94E4068AEC92E00E949E042D
:101FF00086E30E94E4068AED92E00E949E0464E17A
:102000008FE10E94840689ED92E00E949E0487E39E
:102010000E94E4068CEC92E00E949E0486E30E94FB
:10202000E4068CED92E00E949E0464E180E20E944E
:10203000840688ED92E00E949E0487E30E94E406F5
:102040008CEE92E00E949E0486E30E94E4068CEDF2
:1020500092E00E949E0464E181E20E94840680ED89
:1020600092E00E949E042196DFCE64E18AE10E9404
:10207000840682EF92E00E949E0464E18BE10E945C
:1020800084068FEA92E00E949E0464E18CE10E9443
:1020900084068AEE92E00E949E0486E30E94E40693
:1020A0008AED92E00E949E0487E30E94E4068BEB97
:1020B00092E00E949E0464E18DE10E9484068BEE12
:1020C00092E00E949E0486E30E94E4068AED92E07C
:1020D0000E949E0487E30E94E4068CEE92E00E9438
:1020E0009E0486E30E94E4068AED92E00E949E042C
:1020F00087E30E94E4068BEB92E00E949E0464E179
:102100008EE10E9484068CEE92E00E949E0486E39B
:102110000E94E4068AED92E00E949E0487E30E94FA
:10212000E4068CEC92E00E949E0486E30E94E406A2
:102130008AED92E00E949E0487E30E94E4068CEE02
:1021400092E00E949E0464E18FE10E9484068BEE7F
:1021500092E00E949E0486E30E94E4068AED92E0EB
:102160000E949E0487E30E94E4068CEE92E00E94A7
:102170009E0486E30E94E4068AED92E00E949E049B
:1021800087E30E94E4068BEB92E00E949E0464E1E8
:1021900080E20E9484068AEE92E00E949E0486E31A
:1021A0000E94E4068AED92E00E949E0487E30E946A
:1021B000E4068BEB92E02DCE64E18AE10E94840676
:1021C0008EE693E00E949E0464E18BE10E94840607
:1021D0008FEA92E00E949E0464E18CE10E948406F2
:1021E00087EB92E00E949E0464E18DE10E948406E8
:1021F0008EEE92E00E949E0486E30E94E4068AED41
:1022000092E00E949E0487E30E94E4068AEB92E03B
:102210000E949E0464E18EE10E9484068FEE92E0AB
:102220000E949E0486E30E94E4068AED92E00E94EA
:102230009E0487E30E94E4068CEE92E00E949E04D6
:1022400086E30E94E4068AED92E00E949E0487E302
:102250000E94E4068FEE92E00E949E0464E18FE10A
:102260000E9484068EEE92E00E949E0486E30E9405
:10227000E4068AED92E00E949E0487E30E94E40651
:102280008AEB92E0BECD0E94CE0E0E94CE0E0E943E
:10229000CE0E0E94CE0E0C94CE0EEF92FF920F93B4
:1022A0001F93CF93DF9368E281E00E94840680E071
:1022B00090E0FC01EE0FFF1FE05AFB4F11821082ED
:1022C00001968A309105A9F7C0E0D0E0EE24E394AE
:1022D000F12CE3C084E00E9484068AE293E00E942D
:1022E0009E0468E285E00E9484068CEF92E00E94E2
:1022F0009E04809162049091630468E2892B09F046
:1023000042C186E00E9484068AE293E00E949E0415
:1023100068E287E00E9484068CEF92E00E949E04AF
:10232000809164049091650468E2892B09F023C1CF
:1023300088E00E9484068AE293E00E949E0468E29C
:1023400089E00E9484068CEF92E00E949E048091B6
:1023500066049091670468E2892B09F004C18AE061
:102360000E9484068AE293E00E949E0468E28BE069
:102370000E9484068CEF92E00E949E048091680483
:102380009091690468E2892B09F0E5C08CE00E9415
:1023900084068AE293E00E949E0468E28DE00E9437
:1023A00084068CEF92E00E949E0480916A049091D2
:1023B0006B0468E2892B09F0C6C08EE00E94840697
:1023C0008AE293E00E949E0468E28FE00E94840605
:1023D0008CEF92E00E949E0480916C0490916D04B9
:1023E00068E2892B09F0A7C080E10E9484068AE296
:1023F00093E00E949E0468E281E10E9484068CEFD3
:1024000092E00E949E0480916E0490916F0468E2B5
:10241000892B09F088C082E10E9484068AE293E059
:102420000E949E0468E283E10E9484068CEF92E0A1
:102430000E949E04809170049091710468E2892B3F
:1024400009F069C084E10E9484068AE293E00E9458
:102450009E0468E285E10E9484068CEF92E00E946F
:102460009E04809172049091730468E2892B09F0B4
:102470004AC086E10E9484068AE293E00E949E049C
:1024800068E287E10E9484068CEF92E00E949E043D
:102490000A30110509F47FC0E80168E281E00E947A
:1024A00084068E010F5F1F4FFE01EE0FFF1FE05AE3
:1024B000FB4FF182E08268E281E00E9484068CEFAB
:1024C00092E00E949E0468E282E00E94840683E11A
:1024D00093E00E949E0468E283E00E9484068CEFF1
:1024E00092E00E949E04809160049091610468E2F1
:1024F000892B09F4EFCE84E00E94840681E493E006
:102500000E949E04EECE86E10E94840681E493E060
:102510000E949E04B5CF84E10E94840681E493E08A
:102520000E949E0496CF82E10E94840681E493E09B
:102530000E949E0477CF80E10E94840681E493E0AC
:102540000E949E0458CF8EE00E94840681E493E0AE
:102550000E949E0439CF8CE00E94840681E493E0BF
:102560000E949E041ACF8AE00E94840681E493E0D0
:102570000E949E04FBCE88E00E94840681E493E0E2
:102580000E949E04DCCE86E00E94840681E493E0F3
:102590000E949E04BDCEDF91CF911F910F91FF90BD
:1025A000EF9008950E9489070E94490C0E948907B4
:1025B0000E94CE0E0E9489070E944D11F3CFD4E6EF
:1025C0002D2E312C1BEA812E01E2902E88E594E01D
:1025D0000E94B20A80915C0490915D040A970CF409
:1025E0005CC160E080E00E94840683E30E94E40610
:1025F00088E593E00E949E0480915C0490915D04C4
:10260000B1010E946514882777FD8095982F0E945C
:10261000210580E693E00E949E0460E082E00E9433
:1026200084068EE793E00E949E04E0915A04F091A4
:102630005B04E750FF4F808190E00E94D404E0915A
:102640005A04F0915B04E750FF4F8081882309F41E
:102650001FC1612CFAC0689C812D11248695982F8A
:10266000990F980F162D191B199D102D112408E193
:10267000B7E1FB2EC6E1EC2ED5E1DD2E84E1C82EBC
:1026800093E1B92E22E1A22E31E1732E40E1442ED6
:10269000CFE082E30E94E406612F8C2F0E94840623
:1026A00082E993E00E949E04E0915A04F0915B0459
:1026B000AFE15A2E569CE0011124EC0FFD1F8081E2
:1026C00090E00E94D404612F842D0E9484068EE93C
:1026D00093E00E949E049E01265F3F4F80915A0422
:1026E00090915B04820F931F0E949E04612F872D9F
:1026F0000E9484068CEA93E00E949E04E0915A04B2
:10270000F0915B04EC0FFD1F8789908D0E945705A7
:10271000612F8A2D0E94840688EB93E00E949E041C
:10272000E0915A04F0915B04EC0FFD1F838D948DB2
:1027300020853185821B930B0E94D40486EC93E0A4
:102740000E949E04612F8B2D0E94840680ED93E0F1
:102750000E949E04E0915A04F0915B04EC0FFD1F6F
:10276000858996890E94D40486EC93E00E949E0499
:10277000612F8C2D0E9484068DED93E00E949E04B3
:10278000E0915A04F0915B04EC0FFD1F8085918568
:102790000E945705612F8D2D0E94840684EF93E0DF
:1027A0000E949E04E0915A04F0915B04EC0FFD1F1F
:1027B000818D928D0E945705612F8E2D0E94840677
:1027C00081E094E00E949E04E0915A04F0915B0441
:1027D000EC0FFD1F838D948D0E945705612F8F2D67
:1027E0000E9484068DE094E00E949E0480915A0429
:1027F00090915B04FC01E850FF4F2081FC01529E48
:10280000E00DF11D112482819381A481B5810E9484
:10281000D404612F802F0E9484068CE194E00E94F2
:102820009E04E0915A04F0915B04EC0FFD1F868139
:1028300097810E947E0A6394E0915A04F0915B04B0
:10284000E750FF4F8081681618F582E0861508F47E
:1028500002CF689C812D11248695982F990F980F8F
:10286000162D191B199D102D11240DE05CE0F52E7D
:102870006BE0E62E7AE0D72EE9E0CE2EF8E0BF2E10
:10288000A7E0AA2EB6E07B2EC5E04C2EC4E001CF17
:1028900088E594E00E94070B99CE0E948907A1CE9B
:1028A0000E94750481E00E945C01882349F08DE15B
:1028B00092E00E949E040E94650480E090E00895EA
:1028C00086E092E00E949E04F6CF97FB072E16F456
:1028D000009407D077FD09D00E949B1407FC05D017
:1028E0003EF4909581959F4F0895709561957F4F27
:1028F0000895A1E21A2EAA1BBB1BFD010DC0AA1F41
:10290000BB1FEE1FFF1FA217B307E407F50720F058
:10291000A21BB30BE40BF50B661F771F881F991FD3
:102920001A9469F760957095809590959B01AC011C
:10293000BD01CF010895AA1BBB1B51E107C0AA1F0F
:10294000BB1FA617B70710F0A61BB70B881F991F50
:102950005A95A9F780959095BC01CD010895CF9324
:10296000DF938230910510F482E090E0E0917604EC
:10297000F091770420E030E0A0E0B0E0309739F14A
:102980004081518148175907B8F04817590771F429
:1029900082819381109729F013969C938E931297BE
:1029A0002CC0909377048093760427C021153105BD
:1029B00031F04217530718F0A901DB0101C0EF0104
:1029C0009A01BD01DF010280F381E02DD7CF2115EF
:1029D0003105F9F0281B390B2430310580F48A8148
:1029E0009B816115710521F0FB019383828304C0F3
:1029F0009093770480937604FE01329644C0FE01E2
:102A0000E20FF31F81939193225031093983288378
:102A10003AC02091740430917504232B41F4209125
:102A200002023091030230937504209374042091C4
:102A30000002309101022115310541F42DB73EB756
:102A40004091040250910502241B350BE09174045F
:102A5000F0917504E217F307A0F42E1B3F0B281723
:102A6000390778F0AC014E5F5F4F2417350748F007
:102A70004E0F5F1F5093750440937404819391939C
:102A800002C0E0E0F0E0CF01DF91CF910895CF9355
:102A9000DF93009709F487C0FC01329713821282FA
:102AA000C0917604D0917704209781F42081318100
:102AB000280F391F80917404909175048217930731
:102AC00079F5F0937504E09374046DC0DE0120E0A5
:102AD00030E0AE17BF0750F412964D915C911397FA
:102AE0009D014115510509F1DA01F3CFB383A283AA
:102AF00040815181840F951F8A179B0771F48D9136
:102B00009C911197840F951F029691838083129652
:102B10008D919C911397938382832115310529F41C
:102B2000F0937704E09376043EC0D9011396FC93AA
:102B3000EE9312974D915D91A40FB51FEA17FB0715
:102B400079F480819181840F951F0296D9011196A5
:102B50009C938E938281938113969C938E9312976C
:102B6000E0E0F0E08A819B81009719F0FE01EC0122
:102B7000F9CFCE01029628813981820F931F2091CF
:102B80007404309175042817390769F4309729F4D3
:102B9000109277041092760402C013821282D093AE
:102BA0007504C0937404DF91CF910895FB01DC019B
:102BB00002C001900D9241505040D8F70895F8940A
:022BC000FFCF45
:102BC2000000780420004E6F2073642063617264F9
:102BD2002064657465637465642E0A0D0043617236
:102BE200642063616E20626520726561642E0A0052
:102BF2003031323334353637383941424344454631
:102C0200006D61696E005448524541445F5245412E
:102C12004459202020005448524541445F574149BD
:102C220054494E4720005448524541445F52554E44
:102C32004E494E472020005448524541445F534C70
:102C4200454550494E4700746872656164206E6163
:102C52006D653A20007468726561642073746174F2
:102C6200653A200077616974696E67203D20002013
:102C72002020232020200020202323232020002086
:102C8200232323232320200023232323232323005E
:102C92002020203020202000202030003020200062
:102CA200434F4E53554D494E4700202023002023C9
:102CB200230050524F445543494E47002B2D2D2D92
:102CC2002D2D2D2D2D2D2D2D2D2D2D2D2D2D2D2D32
:102CD2002D2B007C20426F756E6465642042756600
:102CE20066657220202020207C007C20202020206D
:102CF2002020202020202020202020202020207C76
:102D0200007C23232323232323232323232323235B
:102D12002323232323237C0054696D65723A200008
:102D220020202020202020202020202020202020A1
:102D320020202020202020202020202020004E752E
:102D42006D626572206F6620546872656164733AC1
:102D520020005468726561642049643A2000546816
:102D620072656164206E616D653A20005468726517
:102D720061642050433A2000537461636B205573A1
:102D82006167653A20002062797465732020200013
:102D9200537461636B2053697A653A2000437572FC
:102DA20072656E7420746F70206F66207374616335
:102DB2006B3A2000537461636B20626173653A2041
:102DC20000537461636B20656E643A20005363683C
:102DD20065642E20436F756E743A200054687265E4
:0C2DE2006164205374617475733A200022
:00000001FF
