:100000000C9476000C9497000C9497000C94970035
:100010000C9497000C9497000C9497000C94970004
:100020000C9497000C9497000C9497000C949700F4
:100030000C9497000C9497000C9497000C949700E4
:100040000C9497000C946E0B0C9497000C949700F2
:100050000C9497000C94850B0C9497000C949700CB
:100060000C9497000C9497000C9497000C949700B4
:100070000C9497000C9497000C9497000C949700A4
:100080000C9497000C9497000C9497000C94970094
:100090000C9497000C9497000C9497000C94970084
:1000A0000C9497000C9497000C9497000C94970074
:1000B0000C9497000C9497000C9497000C94970064
:1000C0000C9497000C9497000C9497000C94970054
:1000D0000C9497000C9497000C9497000C94970044
:1000E0000C9497000C94200A0C94291511241FBE1F
:1000F000CFEFD1E2DEBFCDBF00E00CBF15E0A0E046
:10010000B2E0E0EEFDE200E00BBF02C007900D920E
:10011000AA39B107D9F728E0AAE9B5E001C01D92D4
:10012000AD3CB207E1F70E9429150C94EE160C9431
:1001300000000F931F9300E012E02EE938E050E03A
:1001400040E06EE877E080E090E00E941C051F919F
:100150000F9108950F931F93CF93DF9368E280E090
:100160000E94F2088AE092E00E94E00688E090E0B7
:100170000E94E00610E081E0C12FD0E0C256D74FC8
:100180009C81190F01E0080F68E20E94F20883E1E8
:1001900092E00E94E006CE0108960E94E006802FC1
:1001A000093051F7DF91CF911F910F910895CF93AF
:1001B000DF9360E08AE00E94F2088DE192E00E9405
:1001C000E006CCE1D8E0888199810E941F0760E0B9
:1001D0008BE00E94F20886E292E00E94E0068881AD
:1001E00099818827907F0E941F0760E08CE00E9421
:1001F000F20886E392E00E94E0068A819B810E94D9
:100200001F0760E08DE00E94F2088EE392E00E94FA
:10021000E0068C819D810E941F0760E08EE00E94B5
:10022000F20887E492E00E94E006888599850E94A2
:100230001F0760E08FE00E94F20881E592E00E94D3
:10024000E0068C859D850E941F0760E080E10E948A
:10025000F2088BE592E00E94E006888999890E9465
:100260001F0760E081E10E94F20885E692E00E94AB
:10027000E0068C899D890E941F0760E082E10E9450
:10028000F2088FE692E00E94E006888D998D0E9428
:100290001F0760E083E10E94F20887E792E00E9476
:1002A000E0068A8D9B8D0E941F0760E084E10E941A
:1002B000F20887E892E00E94E0068C8D9D8D0E94F6
:1002C0001F0760E085E10E94F20882E992E00E9447
:1002D000E00688A199A10E941F0760E086E10E94C4
:1002E000F2088CE992E00E94E00688A599A50E9498
:1002F0001F0760E087E10E94F20889EA92E00E940D
:10030000E0068CA59DA50E941F0760E088E10E9481
:10031000F20886EB92E00E94E00688A999A90E9463
:100320001F0760E089E10E94F20883EC92E00E94DE
:10033000E0068CA99DA9DF91CF910C941F078091B5
:100340009C0890919D0880FF04C084E68093B400CF
:10035000089588EC8093B400089580ED92E00E94A7
:10036000E00680912008909121080E941F0782ECEE
:1003700093E00C94E006FFCF0F931F930197BC010D
:10038000990F880B990B2091EF073091F00740915E
:10039000F1075091F2070E948A15FB01E370F07893
:1003A000F7FF04C03197EC6FFF6F3196DF01B69510
:1003B000BA2FAA27B795A7958901000F111F209181
:1003C000E7073091E807029FF001039FF00D129FAD
:1003D000F00D11249B0177FF02C02D5F3F4FC90133
:1003E00095958795959587950A968E0F9F1FBC01C9
:1003F000990F880B990B00E810E02CE138E0AD0173
:100400000E941C051F910F9108950F931F93CF9386
:10041000DF938CE090E00E94BC01C4E4D8E08AE065
:1004200011E0180F68E20E94F20881EE92E00E944B
:10043000E00689919991A991B9910E941F07812F96
:10044000163171F760E089E10E94F208609144087A
:10045000709145088091460890914708660F771F74
:10046000881F991F00E012E025EC35E050E040E0E5
:100470000E941C058AEE92E00E94E006C5ECD5E0E1
:1004800005EC17E0899190E00E941F070C171D07EB
:10049000C9F7DF91CF911F910F9108950F931F938B
:1004A00000E012E09C0150E040E062E070E080E09B
:1004B00090E00E941C051F910F910895FFCFCF93EC
:1004C000DF9360E085E00E94F2088091A20590E051
:1004D0000E941F078FEF92E00E94E0060E949405A1
:1004E0000E94770760E086E00E94F2088CE093E0CB
:1004F0000E94E006C7ECD7E06C817D818E819F81F0
:100500000E9477070E9494050E94770760E087E0C9
:100510000E94F2088BE193E00E94E00688859985AD
:100520000E941F0760E088E00E94F20883E393E0E6
:100530000E94E0068C859D850E941F0760E089E08F
:100540000E94F20887E493E00E94E0068889998976
:100550000E941F0760E08AE00E94F2088BE593E0AA
:100560000E94E0068C899D890E941F0760E08BE055
:100570000E94F2088EE693E00E94E00688A199A10D
:100580000E941F0760E08CE00E94F20881E893E07F
:100590000E94E00688A599A50E941F0760E08DE0F3
:1005A000DF91CF910C94F2088FEF8EBD8091AB0854
:1005B0009091AC089C012F5F3F4F3093AC08209383
:1005C000AB088130924098F44FEF0DB407FEFDCF99
:1005D0004EBD8091AB089091AC089C012F5F3F4FBE
:1005E0003093AC082093AB088130924070F30DB487
:1005F00007FEFDCF289A8FEF8EBD0DB407FEFDCF0D
:100600001092A00508958093A20508958093A205F5
:100610006093A1050895CF93C82F8091A005811103
:100620000E94D402C0939F05CF91089580919E05AA
:10063000089580939E050895CF92DF92EF92FF92E6
:10064000CF93C82F6A017B018091A00581110E9480
:10065000D402289888EC97E9A4E0B0E03FEF3EBDD3
:100660000DB407FEFDCF2EB52F3F41F02AE02A95AD
:10067000F1F700C00197A109B10989F78C2F8064B7
:100680008EBD0DB407FEFDCF88E190E0B701A60155
:10069000082E04C076956795579547950A94D2F72A
:1006A0004EBD0DB407FEFDCF0897883F2FEF920790
:1006B00069F785E9CC2319F087E8C830B9F48EBD15
:1006C0000DB407FEFDCF90E02FEF2EBD0DB407FE59
:1006D000FDCF8EB587FF04C09F3F11F09F5FF5CF20
:1006E000CF91FF90EF90DF90CF9008958FEFE7CFFD
:1006F0008F929F92AF92BF92EF92FF920F931F93B0
:10070000CF93DF93EA0179012091A005222371F0B4
:100710008090A7089090A808A090A908B090AA0877
:1007200086169706A806B90609F44BC06093A70879
:100730007093A8088093A9089093AA0820919E0519
:10074000233039F029E0660F771F881F991F2A95FB
:10075000D1F7AB01BC0181E10E941C0348EC57E9D1
:1007600064E070E02FEF811114C02EBD0DB407FEC0
:10077000FDCF9EB59F3FE1F49AE09A95F1F700C056
:10078000415051096109710981F79DE09093A205DB
:1007900004C083E08093A20580E0DF91CF911F9198
:1007A0000F91FF90EF90BF90AF909F908F90089522
:1007B0009E3F09F45FC020E12093A2059093A1051C
:1007C000ECCF2091AB083091AC084217530708F4E6
:1007D000ADCF8FEF8EBD8091AB089091AC088C1798
:1007E0009D0788F42FEF0DB407FEFDCF2EBD80913D
:1007F000AB089091AC0801969093AC088093AB083D
:100800008C179D0780F3A8014150510981F0F70131
:1008100098012E0D3F1D215031099FEF0DB407FEA9
:10082000FDCF8EB581939EBDE217F307B9F70DB4E6
:1008300007FEFDCF8EB5F701E40FF51F8083809191
:10084000AB089091AC08080F191F1093AC080093E7
:10085000AB0880919F05882319F00115124020F004
:100860008091A005811102C081E097CF0E94D4023F
:1008700081E093CF1092AC081092AB0881E0809396
:10088000A005A7CF0F931F939A0100E012E050E05C
:1008900040E00E9478031F910F910895CF92DF925C
:1008A000EF92FF921F93CF93DF93182F209A289AED
:1008B000229A219A83E58CBD8AE090E02FEF2EBD2D
:1008C0000DB407FEFDCF0197D1F7289881E092E0A3
:1008D0002FEF2EBD0DB407FEFDCF3EB50197C9F732
:1008E000DBE040E050E0BA0180E00E941C03C82F2A
:1008F000813089F0D150A9F781E08093A205C0939F
:10090000A105C0E08C2FDF91CF911F91FF90EF9058
:10091000DF90CF9008954AEA51E060E070E088E00F
:100920000E941C03813009F440C082FF51C0C09373
:100930009E0588E6C82E88E8D82E8EE1E82EF12C98
:1009400007C081E0C81AD108E108F10809F462C0C3
:100950008AE08A95F1F700C040E050E0BA0187E3F1
:100960000E941C0380919E0540E050E0BA01823055
:1009700021F440E050E060E070E489E20E941C0352
:100980008111DFCF80919E05823041F18CB58C7F43
:100990008CBD111103C08DB581608DBD289A8FEF7C
:1009A0008EBD0DB407FEFDCFADCF84E090E03FEFEC
:1009B0003EBD0DB407FEFDCF2EB50197C9F72A3A0B
:1009C00071F189E08093A2052093A105C0E09ACF40
:1009D00092E09093A2058093A105ABCF40E050E058
:1009E000BA018AE30E941C03811121C08FEF8EBDE2
:1009F0000DB407FEFDCF8EB5807C803CA1F083E076
:100A000090E02FEF2EBD0DB407FEFDCF3EB5019750
:100A1000C9F7BCCF86E08093A205C0E073CF82E027
:100A200080939E0586CF83E080939E05E8CF85E086
:100A30008093A205C0E066CF0F931F9301151105A7
:100A400079F0F801E40FF51FE130F24028F40E943C
:100A500078031F910F91089580E01F910F910895E1
:100A600081E01F910F9108958091A00581110C9450
:100A7000D4020895CF93DF93D62FC72F40E050E0E4
:100A8000BA010E941C0348EC57E964E070E02FEFC4
:100A9000811114C02EBD0DB407FEFDCF9EB59F3F42
:100AA000A1F49AE09A95F1F700C04150510961090B
:100AB000710981F79DE09093A20504C088E08093BE
:100AC000A20580E0DF91CF9108959E3F41F020E1A3
:100AD0002093A2059093A105DF91CF910895ED2F6A
:100AE000FC2F9F01205F3F4F9FEF9EBD0DB407FE7F
:100AF000FDCF8EB58193E217F307B9F78FEF8EBD67
:100B00000DB407FEFDCF8EB58FEF8EBD0DB407FE81
:100B1000FDCF8EB5289A8FEF8EBD0DB407FEFDCFA9
:100B200081E0DF91CF9108950F931F93CF93DF93CF
:100B3000CDB7DEB760970FB6F894DEBF0FBECDBF5E
:100B4000BE016F5F7F4F89E00E943A05882309F458
:100B500047C08981807CA1F0803409F445C087E0DA
:100B60008093A20560E070E0CB0160960FB6F89428
:100B7000DEBF0FBECDBFDF91CF911F910F910895C2
:100B80006F81637070E0762F6627770F770F888507
:100B900090E0880F991F880F991F682B792B898502
:100BA0008295869586958370682B6F5F7F4F90E066
:100BB00080E02A852370220F3B8537FB332730F9ED
:100BC000232B3E813F70230F3327331F27503109DA
:100BD00004C0660F771F881F991F2A95D2F7C5CFCB
:100BE00060E070E0CB01C1CF68856695669570E0E6
:100BF00090E080E0CB01772766272A85622B098564
:100C000010E0102F0027012E000C220B330B602B5D
:100C1000712B822B932B6F5F7F4F8F4F9F4F4AE03B
:100C2000660F771F881F991F4A95D1F79ECF4F9265
:100C30005F926F927F928F929F92AF92BF92CF926C
:100C4000DF92EF92FF92CF93C12CD12C7601CFEFA0
:100C500028EE422E23E0522E612C712C4C01B12C37
:100C6000A12CCEBD0DB407FEFDCF9EB59F3FB1F0C8
:100C70008FEFC81AD80AE80AF80A8AE08A95F1F7CD
:100C800000C0C701B601A30192010E948A15821615
:100C90009306A406B50628F780E001C081E0CF9155
:100CA000FF90EF90DF90CF90BF90AF909F908F908C
:100CB0007F906F905F904F90089588EC97E9A4E043
:100CC000B0E03FEF3EBD0DB407FEFDCF2EB52F3F88
:100CD00069F42AE02A95F1F700C00197A109B1094A
:100CE00089F78DE08093A20580E008952E3F39F0CA
:100CF00080E18093A2052093A10580E0089581E022
:100D00000895BC0189E00C943A05BC018AE00C947A
:100D10003A05EEE6F0E080818260808384B58260EF
:100D200084BD85B5826085BD8AE587BD89E09DE388
:100D30009093890080938800EFE6F0E080818260E4
:100D40008083E1E8F0E080818D6080830895E0EBAE
:100D5000F0E0808183628083E1EBF0E0808181605C
:100D60008083E1E0F1E0808180648083089582E007
:100D70008093C0001092C50080E18093C400E1EC34
:100D8000F0E080818861808308958091C000881F91
:100D90008827881F08958091C00087FF03C0809135
:100DA000C60008958FEF08959091C10095FDFCCF86
:100DB0009091C00095FFF8CF8093C60081E0089520
:100DC000FC012081222371F031969091C10095FDA4
:100DD000FCCF9091C00095FFF8CF2093C6002191E1
:100DE0002111F3CF08950F931F93CF93DF93CB017E
:100DF0001092C20518161906DCF4E2ECF5E0C3EA1D
:100E0000D5E0C095D0950AE010E09E012E0F3F1F5F
:100E1000B8010E947615805D8293CB010097A9F7F7
:100E2000C9018D559A4FDF91CF911F910F91089570
:100E300083EA95E0DF91CF911F910F910895EF9292
:100E4000FF920F931F93CF93DF930097B1F110920E
:100E5000C205181619060CF043C0C2ECD5E003EA2F
:100E600015E0009510952AE0E22EF12CF801EC0F28
:100E7000FD1FB7010E94761520E3280F2A93CB01AE
:100E80000097A1F7ED55FA4F31969091C10095FD6D
:100E9000FCCF9091C00095FFF8CF2093C600219120
:100EA0002111F3CFDF91CF911F910F91FF90EF9020
:100EB00008958091C00085FD09C08091C10085FF23
:100EC000F8CF8091C10085FDF8CFF3CF80E3809308
:100ED000C600DF91CF911F910F91FF90EF90089581
:100EE0002091A3052223A9F3E3EAF5E0CDCFEF9209
:100EF000FF920F931F93CF93DF93CB011092C20504
:100F00001816190664F5C2ECD5E003EA15E0009561
:100F100010952AE0E22EF12CF801EC0FFD1FB7012D
:100F20000E94761520E3280F2A93CB010097A1F7A2
:100F3000ED55FA4F31969091C10095FDFCCF9091FF
:100F4000C00095FFF8CF2093C60021912111F3CF67
:100F5000DF91CF911F910F91FF90EF900895209115
:100F6000A3052223A9F3E3EAF5E0E4CFCF92DF92D1
:100F7000EF92FF920F931F93CF93DF93CDB7DEB71E
:100F8000E1970FB6F894DEBF0FBECDBF21E1E5ECCF
:100F9000F3E0DE01919601900D922A95E1F79E0112
:100FA0002F5F3F4F690120E2D6011D922A95E9F794
:100FB000FE01B0960EEF1FEF0C191D09A8014E0F90
:100FC0005F1FBA0131979C012F70307837FF06C040
:100FD00021503109206F3F6F2F5F3F4FA1E2EA2E72
:100FE000F12CEC0EFD1E2E0D3F1DD9012C912083FE
:100FF00097FD0F96959587959595879595958795E6
:101000009595879518161906CCF28091C10085FD3B
:10101000FCCF8091C00085FFF8CF80E38093C600AD
:101020008091C10085FDFCCF8091C00085FFF8CF85
:1010300088E78093C6004B3151057CF04F5F5F4FCE
:10104000F601E40FF51F9601255E3F4F80E3829382
:10105000E217F307E1F76AE170E0FE01E60FF71F20
:101060009281992391F06E5F7F4FD601A60FB71F33
:101070008091C10085FDFCCF8091C00085FFF8CF35
:101080009093C6009D919111F3CFE1960FB6F8941D
:10109000DEBF0FBECDBFDF91CF911F910F91FF90AB
:1010A000EF90DF90CF900895CF92DF92EF92FF9272
:1010B0000F931F93CF93DF93CDB7DEB7E1970FB6B2
:1010C000F894DEBF0FBECDBF21E1E5ECF3E0DE0119
:1010D000919601900D922A95E1F79E012F5F3F4F67
:1010E000690120E2D6011D922A95E9F7DE0190966A
:1010F0000EEF1FEF0C191D0998012A0F3B1FA901C4
:101100001197CB018F70907897FF04C00197806F83
:101110009F6F0196E1E2F0E0EC0FFD1F8E0F9F1F25
:10112000FC0180818C9377FF02C0615F7F4F7595D2
:101130006795759567957595679575956795161675
:101140001706D4F28091C10085FDFCCF8091C000CC
:1011500085FFF8CF80E38093C6008091C10085FDB4
:10116000FCCF8091C00085FFF8CF88E78093C60050
:101170002B3131057CF02F5F3F4FD601A20FB31FFB
:101180009601255E3F4F80E38E93A217B307E1F7E8
:101190004AE150E0DE01A40FB51F12969C919923FD
:1011A00091F04E5F5F4FF601E40FF51F8091C10093
:1011B00085FDFCCF8091C00085FFF8CF9093C600DD
:1011C00091919111F3CFE1960FB6F894DEBF0FBE67
:1011D000CDBFDF91CF911F910F91FF90EF90DF90E6
:1011E000CF9008950F931F93CF93DF93C62F282F8F
:1011F00030E0C9012115310561F0E2ECF5E00AE0CB
:1012000010E0B8010E947615805D8293CB010097B3
:10121000C1F7D0E0CE011092C205209761F0E2EC58
:10122000F5E00AE010E0B8010E947615805D829337
:10123000CB010097C1F79091C10095FDFCCF809143
:10124000C00085FFF8CF8BE18093C6009091C1006C
:1012500095FDFCCF8091C00085FFF8CF8BE5809392
:10126000C600C9010E941F078091C10085FDFCCF07
:101270008091C00085FFF8CF8BE38093C600CE013C
:101280000E941F078091C10085FDFCCF8091C000A6
:1012900085FFF8CF88E48093C600DF91CF911F913E
:1012A0000F9108959091C10095FDFCCF9091C000E1
:1012B00095FFF8CF9BE19093C6009091C10095FDFA
:1012C000FCCF9091C00095FFF8CF9BE59093C600AE
:1012D0009091C10095FDFCCF9091C00095FFF8CF93
:1012E00093E39093C6009091C10095FDFCCF90913F
:1012F000C00095FFF8CF8093C6008091C10085FDA6
:10130000FCCF8091C00085FFF8CF8DE68093C600AA
:101310000895F0E0E4E2508160E86083E5E2508106
:1013200060E860830895F0E0E4E2508160E8608363
:10133000E5E2508160E060830895181619066CF4A8
:1013400030E020E0EFE9FFE03197F1F700C0000066
:101350002F5F3F4F82179307A9F70895FC01208163
:1013600031818091C0004FEF87FD4091C600F0E0D1
:10137000E4E2508160E86083E5E2508160E86083E8
:101380001216130664F490E080E0EFE9FFE0319775
:10139000F1F700C00000019628173907B1F7F0E017
:1013A000E4E2508160E86083E5E2508160E06083C0
:1013B0001216130664F490E080E0EFE9FFE0319745
:1013C000F1F700C00000019628173907B1F7413640
:1013D00031F04A3709F0C5CF2C5E3F4FC2CF2451C0
:1013E0003109BFCF8091C10085FDFCCF8091C00045
:1013F00085FFF8CF8BE18093C6008091C10085FD09
:10140000FCCF8091C00085FFF8CF8BE58093C600AC
:101410008091C10085FDFCCF8091C00085FFF8CF91
:1014200082E38093C6008091C10085FDFCCF80914E
:10143000C00085FFF8CF8AE48093C6000895FFCFEF
:101440007894912F802FFD2FEC2F09949F92AF92CB
:10145000BF92CF92DF92EF92FF920F931F93CF93A1
:10146000DF936C01B62E072FA42E952E7901C901AA
:101470000E94C0152091AF083091B008F901E750E3
:10148000FF4F40811FE1D901149FA00DB11D112410
:101490005A969C938E9359974081D901149FA00D21
:1014A000B11D1124AC014E0D5F1D5C965C934E93F3
:1014B0005B974081D901149FA00DB11D1124119695
:1014C0001C924081D901149FA00DB11D11241296C8
:1014D0001D921D921D921C9215974081D901149F57
:1014E000A00DB11D112441E050E017965C934E937E
:1014F0001697E7016697C80FD91F8081D901189FF9
:10150000A00DB11D11245E96DC93CE935D971882D9
:101510000983BA829B82AC821D821E821F8218863A
:1015200019861A861B861C861D861E861F86188AAB
:10153000198A1A8A1B8A80E29AE09C8B8D8B908193
:101540008081D901199FA00DB11D11248C93808138
:10155000D901189FA00DB11D11245796BC92579721
:1015600058960C93D6010D900020E9F7AD018081CB
:10157000B901819F600D711D1124CB014C195D09CA
:10158000B6010A960E94E5168091AF089091B008C6
:10159000FC01E750FF4F2081DC01129FA00DB11D1F
:1015A00011245696FC92EE9255972081129F800D41
:1015B000911D1124DC011996DC93CE93189780813C
:1015C0008F5F8083DF91CF911F910F91FF90EF90FC
:1015D000DF90CF90BF90AF909F9008950E94B70684
:1015E00089E091E00E94C0159093B0088093AF0805
:1015F000FC01E850FF4F21E0208331962083865084
:101600009F4FFC01108211821282138208950F9362
:101610001F93CF936091AF087091B0088B01085071
:101620001F4FD801CC9111968C918150990BC817FE
:10163000190664F581E08C0F9FE108C02C912150C0
:10164000330B8F5F421753070CF080E0482F50E0B8
:10165000FB01989FE00DF11D112426813781213077
:10166000310561F78C1751F3D8018C934281538176
:10167000648175814F5F5F4F6F4F7F4F428353830C
:1016800064837583CF911F910F91089580E0D4CF2B
:101690008091AF089091B008FC01E850FF4F208185
:1016A00087509F4FFC018081FFCF8091AF089091C0
:1016B000B008FC01E850FF4F208187509F4FDC01AC
:1016C0008C918150990B281719061CF0108280818B
:1016D000089580818F5F8083808108951F920F928B
:1016E0000FB60F9211248F939F938091C50790910D
:1016F000C60701969093C6078093C5079F918F9167
:101700000F900FBE0F901F9018951F920F920FB65B
:101710000F9211240BB60F922F938F939F93EF93F9
:10172000FF9380919C0890919D08019690939D084D
:1017300080939C0880919C0890919D08811592400F
:101740004CF4E0919C08F0919D08EB53FA4F808196
:101750008093B400FF91EF919F918F912F910F9003
:101760000BBE0F900FBE0F901F9018952F923F92B7
:101770004F925F926F927F928F929F92AF92BF92A1
:10178000CF92DF92EF92FF920F931F93CF93DF934D
:10179000F0E0EEE52081EDE53081F72FE62F319383
:1017A0002083F92FE82F51916081F0E0EEE560830E
:1017B000EDE55083DF91CF911F910F91FF90EF9056
:1017C000DF90CF90BF90AF909F908F907F906F9061
:1017D0005F904F903F902F900895E091AF08F09167
:1017E000B008DF01A850BF4F4C919F012A5B3F4FCB
:1017F000CF018796413031F016A215A2B9010E949F
:10180000B60B0895EC5BFF4F11821082BC01C90139
:101810000E94B60B0895CF93DF9300D01F921F92C2
:10182000CDB7DEB785E0E6EDF3E0DE01119601907D
:101830000D928A95E1F71092B2081092B1080E94B9
:10184000890678948091AF089091B008FC01128EBF
:10185000118E148E138E168E158E108229E235E1AC
:10186000308F278B25E0FE013196DC011A9601901E
:101870000D922A95E1F7FC01168A158A21E030E0E5
:1018800037832683BC01685F7F4F87960E94B60B23
:101890000F900F900F900F900F90DF91CF910895C0
:1018A0008130910599F070F08230910519F003971D
:1018B00029F008958CE094E00C94E0068BEE93E020
:1018C0000C94E0068BEF93E00C94E0068BED93E034
:1018D0000C94E006FC0181E080831182128208955D
:1018E000CF93DF93EC01F89488818823C9F01882A4
:1018F0008091AF089091B008FC01E850FF4F208123
:101900002A832981FFE12F9F800D911D112421E061
:1019100030E0FC01378326837894DF91CF910895DE
:101920008091AF089091B008FC01E850FF4F2081F2
:10193000298320813FE1239F800D911D112423E005
:1019400030E0FC01378326830E94ED0B1882E09182
:10195000AF08F091B008E850FF4F80818A83198268
:101960007894DF91CF910895CF93DF93EC01F894B1
:101970008091AF089091B008FC01E850FF4F2081A2
:101980003A81321721F07894DF91CF91089521E0C8
:10199000288329813FE1239F800D911D112421E09F
:1019A00030E0FC01378326830E94ED0B1982789486
:1019B000DF91CF9108958DEA98E00E94700C8DEA36
:1019C00098E00E94B40CF7CF0E94DB0C0E94DB0C65
:1019D0000E94DB0C08950895F894FC012081318168
:1019E000215031093183208378940895F894FC01C3
:1019F000208131812F5F3F4F318320837894089578
:101A000008950895CF93DF93D0E0C0E0CE01C531B3
:101A1000D1050CF4FBC09C0125513109243131055D
:101A200008F462C09C01295231092431310508F4BF
:101A30002FC19C012D5331092431310508F4CFC148
:101A400081559109449708F431C2C536D10509F092
:101A500062C260E082E00E94F20882EE94E00E949E
:101A6000E00660E083E00E94F20882EE94E00E94CB
:101A7000E00660E084E00E94F20882EE94E00E94BA
:101A8000E00660E085E00E94F20882EE94E00E94A9
:101A9000E00660E086E00E94F20882EE94E00E9498
:101AA000E00660E087E00E94F20882EE94E00E9487
:101AB000E00660E088E00E94F20882EE94E00E9476
:101AC000E00660E089E00E94F20882EE94E00E9465
:101AD000E00686E690E0C6E6D0E09C01255131099B
:101AE0002431310508F09ECF60E082E00E94F208C8
:101AF0008AED94E00E94E00660E083E00E94F20834
:101B000086E30E9452098DE394E00E94E00660E0C3
:101B100084E00E94F20886E30E94520985E494E082
:101B20000E94E00687E30E94520989E594E00E9442
:101B3000E00686E30E94520989E494E00E94E006F0
:101B400060E085E00E94F20886E494E00E94E006EE
:101B500087E30E94520989E394E00E94E00686E34D
:101B60000E94520989E494E00E94E00660E086E069
:101B70000E94F20887E494E00E94E00687E30E9456
:101B8000520987E394E00E94E00686E30E9452092E
:101B900087E494E00E94E00660E087E00E94F2089B
:101BA00086E494E00E94E00687E30E94520989E3FC
:101BB00094E00E94E00686E30E94520989E494E0E2
:101BC0000E94E00660E088E00E94F20885E494E06C
:101BD0000E94E00687E30E94520989E594E00E9492
:101BE000E00686E30E94520989E494E00E94E00640
:101BF00060E089E00E94F2088DE394E00E94E00634
:101C00002196CE01C531D1050CF005CF60E082E010
:101C10000E94F2088BED94E00E94E00660E083E011
:101C20000E94F2088CE194E00E94E00660E084E00B
:101C30000E94F20884E294E00E94E00660E085E001
:101C40000E94F2088CE294E00E94E00660E086E0E8
:101C50000E94F20885E394E00E94E00660E087E0DD
:101C60000E94F2088CE294E00E94E00660E088E0C6
:101C70000E94F20884E294E00E94E00660E089E0BD
:101C80000E94F2088CE194E00E94E0062196BECE0C
:101C900060E082E00E94F2088DE494E00E94E00699
:101CA00060E083E00E94F2088CE194E00E94E0068C
:101CB00060E084E00E94F20887E594E00E94E0067C
:101CC00086E30E94520987E494E00E94E00687E3DD
:101CD0000E94520988E294E00E94E00660E085E0FC
:101CE0000E94F20888E594E00E94E00686E30E94E4
:101CF000520987E494E00E94E00687E30E945209BB
:101D000089E594E00E94E00686E30E94520987E498
:101D100094E00E94E00687E30E94520988E294E082
:101D20000E94E00660E086E00E94F20889E594E007
:101D30000E94E00686E30E94520987E494E00E9434
:101D4000E00687E30E94520989E394E00E94E006DE
:101D500086E30E94520987E494E00E94E00687E34C
:101D60000E94520989E594E00E94E00660E087E065
:101D70000E94F20888E594E00E94E00686E30E9453
:101D8000520987E494E00E94E00687E30E9452092A
:101D900089E594E00E94E00686E30E94520987E408
:101DA00094E00E94E00687E30E94520988E294E0F2
:101DB0000E94E00660E088E00E94F20887E594E077
:101DC0000E94E00686E30E94520987E494E00E94A4
:101DD000E00687E30E94520988E294E04DCF60E07C
:101DE00082E00E94F2088BED94E00E94E00660E041
:101DF00083E00E94F2088CE194E00E94E00660E03B
:101E000084E00E94F20884E294E00E94E00660E030
:101E100085E00E94F2088BE594E00E94E00686E3EC
:101E20000E94520987E494E00E94E00687E30E9442
:101E3000520987E294E00E94E00660E086E00E949A
:101E4000F2088CE594E00E94E00686E30E945209C5
:101E500087E494E00E94E00687E30E94520989E546
:101E600094E00E94E00686E30E94520987E494E031
:101E70000E94E00687E30E9452098CE594E00E94EC
:101E8000E00660E087E00E94F2088BE594E00E94A3
:101E9000E00686E30E94520987E494E00E94E0068F
:101EA00087E30E94520987E294E0DECE60E082E0A0
:101EB0000E94F2088DE494E00E94E00660E083E076
:101EC0000E94F2088CE194E00E94E00660E084E069
:101ED0000E94F20884E294E00E94E00660E085E05F
:101EE0000E94F2088CE294E00E94E00660E086E046
:101EF0000E94F20889E394E00E94E00686E30E94D3
:101F0000520987E494E00E94E00687E30E945209A8
:101F100089E394E0A1CEDF91CF9108958DEA98E016
:101F20000E94700C0E94020D8DEA98E00E94B40C91
:101F3000F5CFCF93DF93D0E0C0E087E30E94520952
:101F4000CE01C531D1050CF4BBC09C01255131092E
:101F50002431310508F45DC09C0129523109243136
:101F6000310508F4D4C09C012D53310924313105C9
:101F700008F434C181559109449708F4D6C1C53697
:101F8000D10509F060C264E18AE10E94F20882EEA4
:101F900094E00E94E00664E18BE10E94F20882EE88
:101FA00094E00E94E00664E18CE10E94F20882EE77
:101FB00094E00E94E00664E18DE10E94F20882EE66
:101FC00094E00E94E00664E18EE10E94F20882EE55
:101FD00094E00E94E00664E18FE10E94F20882EE44
:101FE00094E00E94E00664E180E20E94F20882EE42
:101FF00094E00E94E00687E30E94520986E690E0A2
:10200000C6E6D0E09C01255131092431310508F0A4
:10201000A3CF64E18AE10E94F2088FE594E00E9478
:10202000E00664E18BE10E94F2088CE194E00E94FA
:10203000E00664E18CE10E94F20884E294E00E94F0
:10204000E00664E18DE10E94F2088CE294E00E94D7
:10205000E00664E18EE10E94F20889E394E00E94C8
:10206000E00686E30E94520987E494E00E94E006BD
:1020700087E30E94520989E394E00E94E00664E14C
:102080008FE10E94F2088CE294E00E94E00664E195
:1020900080E20E94F20884E294E00E94E00664E19B
:1020A00081E20E94F2088CE194E00E94E006219611
:1020B00087E30E945209CE01C531D1050CF045CF0E
:1020C00064E18AE10E94F2088BED94E00E94E00650
:1020D00064E18BE10E94F2088CE194E00E94E0064A
:1020E00064E18CE10E94F20884E294E00E94E00640
:1020F00064E18DE10E94F2088CE294E00E94E00627
:1021000064E18EE10E94F20885E394E0B6CF64E1D9
:102110008AE10E94F2088BED94E00E94E00664E1FF
:102120008BE10E94F2088CE194E00E94E00664E1F9
:102130008CE10E94F20884E294E00E94E00664E1EF
:102140008DE10E94F2088BE594E00E94E00686E3B0
:102150000E94520987E494E00E94E00687E30E940F
:10216000520987E294E00E94E00664E18EE10E9459
:10217000F2088CE594E00E94E00686E30E94520992
:1021800087E494E00E94E00687E30E94520989E513
:1021900094E00E94E00686E30E94520987E494E0FE
:1021A0000E94E00687E30E9452098CE594E00E94B9
:1021B000E00664E18FE10E94F2088BE594E00E9462
:1021C000E00686E30E94520987E494E00E94E0065C
:1021D00087E30E94520987E294E057CF64E18AE1E5
:1021E0000E94F2088FE594E00E94E00664E18BE132
:1021F0000E94F2088CE194E00E94E00664E18CE128
:102200000E94F20887E594E00E94E00686E30E94BF
:10221000520987E494E00E94E00687E30E94520995
:1022200088E294E00E94E00664E18DE10E94F208F9
:1022300088E594E00E94E00686E30E94520987E464
:1022400094E00E94E00687E30E94520989E594E049
:102250000E94E00686E30E94520987E494E00E940F
:10226000E00687E30E94520988E294E00E94E006BB
:1022700064E18EE10E94F20889E594E00E94E006A4
:1022800086E30E94520987E494E00E94E00687E317
:102290000E94520989E394E00E94E00686E30E94CE
:1022A000520987E494E00E94E00687E30E94520905
:1022B00089E594E00E94E00664E18FE10E94F20863
:1022C00088E594E00E94E00686E30E94520987E4D4
:1022D00094E00E94E00687E30E94520989E594E0B9
:1022E0000E94E00686E30E94520987E494E00E947F
:1022F000E00687E30E94520988E294E00E94E0062B
:1023000064E180E20E94F20887E594E00E94E00622
:1023100086E30E94520987E494E00E94E00687E386
:102320000E94520988E294E0B8CE64E18AE10E94FA
:10233000F2088AED94E00E94E00664E18BE10E94DD
:10234000F20886E30E9452098DE394E00E94E006C1
:1023500064E18CE10E94F20886E30E94520985E460
:1023600094E00E94E00687E30E94520989E594E028
:102370000E94E00686E30E94520989E494E00E94EC
:10238000E00664E18DE10E94F20886E494E00E9498
:10239000E00687E30E94520989E394E00E94E00688
:1023A00086E30E94520989E494E00E94E00664E119
:1023B0008EE10E94F20887E494E00E94E00687E341
:1023C0000E94520987E394E00E94E00686E30E949F
:1023D000520987E494E00E94E00664E18FE10E94E4
:1023E000F20886E494E00E94E00687E30E94520926
:1023F00089E394E00E94E00686E30E94520989E4A2
:1024000094E00E94E00664E180E20E94F20885E424
:1024100094E00E94E00687E30E94520989E594E077
:102420000E94E00686E30E94520989E494E00E943B
:10243000E00664E181E20E94F2088DE394E00E94EC
:10244000E00621967ACDDF91CF9108950E94990FF1
:102450000E94990F0E94990F0E94990F0C94990F56
:10246000EF92FF920F931F93CF93DF9368E281E087
:102470000E94F20890E080E0FC01EE0FFF1FEB5499
:10248000F74F1182108201968A309105A9F7D0E0AA
:10249000C0E0EE24E394F12CE3C084E00E94F20853
:1024A00087E994E00E94E00668E285E00E94F20875
:1024B00089E694E00E94E0068091B7089091B80800
:1024C00068E2892B09F041C186E00E94F20887E9A1
:1024D00094E00E94E00668E287E00E94F20889E644
:1024E00094E00E94E0068091B9089091BA0868E2F1
:1024F000892B09F022C188E00E94F20887E994E064
:102500000E94E00668E289E00E94F20889E694E011
:102510000E94E0068091BB089091BC0868E2892B7C
:1025200009F003C18AE00E94F20887E994E00E9462
:10253000E00668E28BE00E94F20889E694E00E94DF
:10254000E0068091BD089091BE0868E2892B09F0F1
:10255000E4C08CE00E94F20887E994E00E94E00663
:1025600068E28DE00E94F20889E694E00E94E006AD
:102570008091BF089091C00868E2892B09F0C5C01E
:102580008EE00E94F20887E994E00E94E00668E28B
:102590008FE00E94F20889E694E00E94E0068091B4
:1025A000C1089091C20868E2892B09F0A6C080E1B9
:1025B0000E94F20887E994E00E94E00668E281E167
:1025C0000E94F20889E694E00E94E0068091C30828
:1025D0009091C40868E2892B09F087C082E10E94CB
:1025E000F20887E994E00E94E00668E283E10E9435
:1025F000F20889E694E00E94E0068091C508909177
:10260000C60868E2892B09F068C084E10E94F208DC
:1026100087E994E00E94E00668E285E10E94F20802
:1026200089E694E00E94E0068091C7089091C8086E
:1026300068E2892B09F049C086E10E94F20887E927
:1026400094E00E94E00668E287E10E94F20889E6D1
:1026500094E00E94E006E8010A30110509F47DC00B
:1026600068E281E00E94F2088E010F5F1F4FCC0FDD
:10267000DD1FCB54D74FF982E88268E281E00E94E7
:10268000F20889E694E00E94E00668E282E00E9497
:10269000F20880E894E00E94E00668E283E00E948D
:1026A000F20889E694E00E94E0068091B5089091D6
:1026B000B60868E2892B09F4F0CE84E00E94F208A3
:1026C0008EEA94E00E94E006EFCE86E10E94F208D6
:1026D0008EEA94E00E94E006B6CF84E10E94F20800
:1026E0008EEA94E00E94E00697CF82E10E94F20811
:1026F0008EEA94E00E94E00678CF80E10E94F20822
:102700008EEA94E00E94E00659CF8EE00E94F20823
:102710008EEA94E00E94E0063ACF8CE00E94F20834
:102720008EEA94E00E94E0061BCF8AE00E94F20845
:102730008EEA94E00E94E006FCCE88E00E94F20857
:102740008EEA94E00E94E006DDCE86E00E94F20868
:102750008EEA94E00E94E006BECEDF91CF911F91F9
:102760000F91FF90EF9008950E94F2090E94020DD0
:102770000E94F2090E94990F0E94F2090E943012F1
:10278000F3CF8DEA98E00E94700C8091B10890918F
:10279000B2080A970CF45AC160E080E00E94F20887
:1027A00083E30E94520985EC94E00E94E006809148
:1027B000B1089091B20864E670E00E947615072E89
:1027C000000C880B990B0E9477078DEC94E00E9417
:1027D000E00660E082E00E94F2088BEE94E00E9446
:1027E000E006E091AF08F091B008E750FF4F80811C
:1027F00090E00E941F07E091AF08F091B008E75009
:10280000FF4F8081882309F41CC1E12CD0E05BEAF2
:10281000352E61E2462EFDC0D39D812D1124869573
:10282000982F990F890FCD2FC81BC49DC02D11243F
:10283000A8E1DA2EB7E1CB2E16E1B12E05E1A02EEC
:1028400084E1982E93E1892E22E1722E31E1632EEC
:1028500040E1542E1FE082E30E9452096C2F812F29
:102860000E94F2088FEF94E00E94E006E091AF082A
:10287000F091B0088FE1F82EFD9E80011124E00F49
:10288000F11F808190E00E941F076C2F852D0E9410
:10289000F2088BE095E00E94E006C8010A962091BC
:1028A000AF083091B008820F931F0E94E0066C2F92
:1028B000862D0E94F20889E195E00E94E006E091F1
:1028C000AF08F091B008E00FF11F8789908D0E944A
:1028D000B6076C2F872D0E94F20885E295E00E94D2
:1028E000E006E091AF08F091B008E00FF11F838D92
:1028F000948D20853185821B930B0E941F0783E3F3
:1029000095E00E94E0066C2F882D0E94F2088DE36E
:1029100095E00E94E006E091AF08F091B008E00F6A
:10292000F11F858996890E941F0783E395E00E9425
:10293000E0066C2F892D0E94F2088AE495E00E943F
:10294000E006E091AF08F091B008E00FF11F80853C
:1029500091850E94B6076C2F8A2D0E94F20881E6AD
:1029600095E00E94E006E091AF08F091B008E00F1A
:10297000F11F818D928D0E94B6076C2F8B2D0E94C6
:10298000F2088EE695E00E94E006E091AF08F09133
:10299000B008E00FF11F838D948D0E94B6076C2F55
:1029A0008C2D0E94F2088AE795E00E94E006809153
:1029B000AF089091B008FC01E850FF4F2081F29ED3
:1029C000800D911D1124FC0182819381A481B58128
:1029D0000E941F076C2F8D2D0E94F20889E895E058
:1029E0000E94E0068091AF089091B008080F191F6F
:1029F000F801868197810E94500CDF5FE091AF085B
:102A0000F091B008E750FF4F8081F1E2EF0ED81748
:102A1000C0F4D33008F000CFCE2D9DE0D92E2CE0AD
:102A2000C22E3BE0B32E4AE0A42E59E0952E68E07A
:102A3000862E77E0772EE6E06E2EF5E05F2E14E02E
:102A40000ACF8DEA98E00E94B40C9BCE0E94F20956
:102A5000A3CE1092C6071092C50710929D0810923F
:102A60009C080E94B70681E00E944E04C82F811185
:102A700038C084E993E00E94E0068C2F90E00E9429
:102A80001F078BE995E00E946A0C0E9489060E944C
:102A9000A706789400E012E027EC37E050E040E031
:102AA00062E070E080E090E00E941C0582E090E02F
:102AB0000E94BC010E945F0282E090E00E949D099A
:102AC0000E94D7002EE938E050E040E06EE877E061
:102AD00080E090E00E941C050E94AA000E9405026E
:102AE000FFCF8BEA93E00E94E006C7CF97FB072E4B
:102AF00016F4009407D077FD09D00E94AC1507FCAE
:102B000005D03EF4909581959F4F089570956195FD
:102B10007F4F0895A1E21A2EAA1BBB1BFD010DC019
:102B2000AA1FBB1FEE1FFF1FA217B307E407F5077D
:102B300020F0A21BB30BE40BF50B661F771F881F59
:102B4000991F1A9469F760957095809590959B01EF
:102B5000AC01BD01CF010895AA1BBB1B51E107C009
:102B6000AA1FBB1FA617B70710F0A61BB70B881F1D
:102B7000991F5A95A9F780959095BC01CD010895AC
:102B80000F931F93CF93DF938230910510F482E06F
:102B900090E0E091CB08F091CC0830E020E0B0E08C
:102BA000A0E0309799F42115310509F44AC0281B9B
:102BB000390B24303105D8F58A819B816115710567
:102BC00089F1FB0193838283FE0111C04081518111
:102BD0000281138148175907E0F04817590799F403
:102BE000109761F012960C93129713961C933296DD
:102BF000CF01DF91CF911F910F9108950093CB08E2
:102C00001093CC08F4CF2115310551F0421753072A
:102C100038F0A901DB019A01BD01DF01F801C1CF44
:102C2000EF01F9CF9093CC088093CB08CDCFFE0174
:102C3000E20FF31F81939193225031093983288346
:102C4000D7CF2091C9083091CA08232B41F4209195
:102C50000602309107023093CA082093C9082091D8
:102C60000402309105022115310541F42DB73EB71C
:102C70004091080250910902241B350BE091C908CC
:102C8000F091CA08E217F307A0F42E1B3F0B281798
:102C9000390778F0AC014E5F5F4F2417350748F0D5
:102CA0004E0F5F1F5093CA084093C90881939193B8
:102CB0009FCFF0E0E0E09CCFCF93DF930097E9F067
:102CC000FC01329713821282A091CB08B091CC08FC
:102CD000ED0130E020E01097A1F420813181820FD6
:102CE000931F2091C9083091CA082817390709F0A5
:102CF00061C0F093CA08E093C908DF91CF910895AD
:102D0000EA01CE17DF07E8F54A815B819E01411594
:102D10005105B1F7E901FB83EA8349915991C40F49
:102D2000D51FEC17FD0761F4808191810296840F15
:102D3000951FE90199838883828193819B838A838C
:102D4000F0E0E0E012968D919C9113970097B9F511
:102D50002D913C911197CD010296820F931F2091E6
:102D6000C9083091CA082817390739F6309751F544
:102D70001092CC081092CB08B093CA08A093C9084F
:102D8000BCCFD383C28340815181840F951FC81764
:102D9000D90761F44E5F5F4F88819981480F591FB1
:102DA000518340838A819B819383828321153105DE
:102DB00009F0B0CFF093CC08E093CB089ECFFD0193
:102DC000DC01C0CF13821282D7CFFB01DC0102C02D
:102DD00001900D9241505040D8F70895F894FFCFDC
:102DE0000A0000000000CD0820006E616D655B5D8B
:102DF0003A20006E616D652D5B5D3A2000695F6D64
:102E00006F64653A2000695F6D6F6465206D617362
:102E10006B65643A2000695F7569643A2000695FF8
:102E200073697A653A2000695F6174696D653A205B
:102E300000695F6374696D653A2000695F6D74694C
:102E40006D653A2000695F6474696D653A200069B8
:102E50005F6769643A2000695F6C696E6B735F63DA
:102E60006F756E743A2000695F626C6F636B733AC2
:102E70002000695F666C6167733A2000695F626C6D
:102E80006F636B5B305D3A2000695F626C6F636BF0
:102E90005B315D3A2000695F626C6F636B5B325D32
:102EA0003A2000695F626C6F636B5B335D3A2000B0
:102EB000526F6F7420696E6F64652073697A653A2A
:102EC0000069626C6F636B3A2000616C6C656765CA
:102ED00064206D7573696320646174613A200073C6
:102EE000644361726453697A653A2000426C6F638F
:102EF0006B7320636F756E743A2000526573657250
:102F000076656420626C6F636B7320636F756E749B
:102F10003A20004672656520626C6F636B732063B4
:102F20006F756E743A20004672656520696E6F6435
:102F3000657320636F756E743A200046697273740E
:102F4000206461746120626C6F636B3A2000426C94
:102F50006F636B73207065722067726F75703A20B3
:102F600000496E6F646573207065722067726F75BB
:102F7000703A20004E6F2073642063617264206495
:102F8000657465637465642E0A0D00436172642084
:102F90007375636365737366756C6C7920726561B4
:102FA000642E0A0D0030313233343536373839412A
:102FB0004243444546006D61696E005448524541A4
:102FC000445F524541445920202000544852454115
:102FD000445F57414954494E4720005448524541A7
:102FE000445F52554E4E494E4720200054485245AA
:102FF00041445F534C454550494E47002020202313
:1030000020202000202023232320200020232323EE
:1030100023232020002323232323232300202020D5
:1030200030202020002020300030202000434F4E50
:1030300053554D494E4700202023002023230050A4
:10304000524F445543494E47002B2D2D2D2D2D2DEC
:103050002D2D2D2D2D2D2D2D2D2D2D2D2D2D2B00CF
:103060007C20426F756E6465642042756666657289
:1030700020202020207C007C2020202020202020B8
:103080002020202020202020202020207C007C23A5
:103090002323232323232323232323232323232300
:1030A0002323237C0054696D65723A200020202080
:1030B0002020202020202020202020202020202010
:1030C00020202020202020202020004E756D6265C9
:1030D00072206F6620546872656164733A200054F0
:1030E00068726561642049643A20005468726561C1
:1030F00064206E616D653A200054687265616420D9
:1031000050433A2000537461636B205573616765C7
:103110003A20002062797465732020200053746186
:10312000636B2053697A653A200043757272656E4D
:103130007420746F70206F6620737461636B3A2023
:1031400000537461636B20626173653A20005374AD
:1031500061636B20656E643A200053636865642E7A
:1031600020436F756E743A20005468726561642064
:0A3170005374617475733A20000077
:00000001FF
