:100000000C9472000C9493000C9493000C94930045
:100010000C9493000C9493000C9493000C94930014
:100020000C9493000C9493000C9493000C94930004
:100030000C9493000C9493000C9493000C949300F4
:100040000C9493000C9493000C9493000C949300E4
:100050000C9493000C9493000C9493000C949300D4
:100060000C9493000C9493000C9493000C949300C4
:100070000C9493000C9493000C9493000C949300B4
:100080000C9493000C9493000C9493000C949300A4
:100090000C9493000C9493000C9493000C94930094
:1000A0000C9493000C9493000C9493000C94930084
:1000B0000C9493000C9493000C9493000C94930074
:1000C0000C9493000C9493000C9493000C94930064
:1000D0000C9493000C9493000C9493000C94930054
:1000E0000C94930011241FBECFEFD1E2DEBFCDBF31
:1000F00000E00CBF12E0A0E0B2E0E8E2F0E100E0D6
:100100000BBF02C007900D92AC33B107D9F712E0D4
:10011000ACE3B2E001C01D92A836B107E1F70E943E
:10012000B3070C9412080C9400008FEF8EBD8091E1
:100130006602909167029C012F5F3F4F30936702E8
:10014000209366028130924098F44FEF0DB407FE81
:10015000FDCF4EBD80916602909167029C012F5F9A
:100160003F4F30936702209366028130924070F3D4
:100170000DB407FEFDCF289A8FEF8EBD0DB407FE9C
:10018000FDCF10923E02089580934002089580931F
:10019000400260933F020895CF93DF931F92CDB743
:1001A000DEB790913E02992321F089830E94950049
:1001B000898180933D020F90DF91CF9108958091C6
:1001C0003C02089580933C0208950F931F93CF93B0
:1001D000DF9300D01F921F92CDB7DEB790913E0201
:1001E000911159C0289808EC17E924E030E0EFEFAE
:1001F000EEBD0DB407FEFDCF9EB59F3F69F09AE0BE
:100200009A95F1F700C00150110921093109011532
:1002100011052105310561F7982F90649EBD0DB43D
:1002200007FEFDCFE8E1F0E08A019B010E2E04C03D
:1002300036952795179507950A94D2F70EBD0DB4FC
:1002400007FEFDCF3897E83F9FEFF90769F788234E
:10025000A1F08830F1F487E88EBD0DB407FEFDCF24
:1002600090E02FEF2EBD0DB407FEFDCF8EB587FFBA
:1002700006C09F3F21F09F5FF5CF85E9EDCF0F903E
:100280000F900F900F900F90DF91CF911F910F91D2
:1002900008958FEFE1CF4A835B836C837D838983ED
:1002A0000E94950089817D816C815B814A819ACF12
:1002B000CF92DF92EF92FF921F93CF93DF93C82FDD
:1002C000209A289A229A219A83E58CBD2AE030E070
:1002D0008FEF8EBD0DB407FEFDCF215031092115E2
:1002E0003105B9F7289821E032E09FEF9EBD0DB4AB
:1002F00007FEFDCF8EB52150310921153105B1F72B
:10030000DBE040E050E0BA0180E00E94E500182FF9
:10031000813081F0D150A9F781E0809340021093A1
:100320003F028D2FDF91CF911F91FF90EF90DF90D3
:10033000CF9008954AEA51E060E070E088E00E94C2
:10034000E500813009F450C082FF48C010933C02A0
:1003500088E6C82E88E8D82E8EE1E82EF12C13C04E
:1003600040E050E0BA0189E20E94E500882311F1E3
:1003700081E0C81AD108E108F108C114D104E104F0
:10038000F10409F447C08AE08A95F1F700C040E023
:1003900050E0BA0187E30E94E50080913C02823080
:1003A000F9F640E050E060E070E489E20E94E50088
:1003B0008111DECF80913C028230A9F18CB58C7F17
:1003C0008CBDC11103C08DB581608DBD289A8FEFA2
:1003D0008EBD0DB407FEFDCFD1E0A3CF92E0909388
:1003E000400280933F02B4CF24E030E09FEF9EBDF7
:1003F0000DB407FEFDCF8EB5215031092115310511
:10040000B1F78A3A61F099E09093400280933F02FD
:10041000D0E087CF86E080934002D0E082CF82E0B8
:1004200080933C0295CF40E050E0BA018AE30E94FD
:10043000E50081111AC08FEF8EBD0DB407FEFDCF10
:100440008EB5807C803C19F483E080933C0223E0ED
:1004500030E08FEF8EBD0DB407FEFDCF9EB521506D
:10046000310921153105B1F7A9CF85E0809340020C
:10047000D0E057CF80913E0281110C9495000895F1
:100480004F925F926F927F928F929F92AF92BF92A4
:10049000CF92DF92EF92FF92CF93C12CD12C7601B5
:1004A000CFEF28EE422E23E0522E612C712C4C010E
:1004B000A12CB12CCEBD0DB407FEFDCF8EB58F3F64
:1004C00019F18FEFC81AD80AE80AF80A8AE08A9563
:1004D000F1F700C0C701B601A30192010E94DC0739
:1004E00082169306A406B50628F780E0CF91FF9008
:1004F000EF90DF90CF90BF90AF909F908F907F90C4
:100500006F905F904F90089581E0F0CF88EC97E96D
:10051000A4E0B0E03FEF3EBD0DB407FEFDCF2EB529
:100520002F3F81F42AE02A95F1F700C00197A10935
:10053000B1090097A105B10571F78DE080934002E4
:1005400080E008952E3F39F080E1809340022093AF
:100550003F0280E0089581E00895AF92BF92CF926C
:10056000DF92EF92FF920F931F93CF93DF931F922F
:100570001F92CDB7DEB75A010115110509F494C0D9
:10058000A8014A0D5B1D4130524028F540913E02C2
:1005900041118CC060936202709363028093640285
:1005A0009093650240913C02433039F049E0660F78
:1005B000771F881F991F4A95D1F7AB01BC0181E1D4
:1005C00029833A830E94E50029813A81882389F0B2
:1005D00083E08093400280E00F900F90DF91CF91F5
:1005E0001F910F91FF90EF90DF90CF90BF90AF9051
:1005F000089529833A830E94860229813A818823BB
:1006000051F3109267021092660281E080933E02DD
:100610008FEF8EBD80916602909167028A159B05CF
:1006200088F44FEF0DB407FEFDCF4EBD80916602FA
:1006300090916702019690936702809366028A15F3
:100640009B0580F3A801415051094115510571F0F6
:10065000F90180E090E07FEF0DB407FEFDCF6EB5AD
:1006600061937EBD019684179507B0F30DB407FE24
:10067000FDCF8EB5F901E40FF51F808380916602EE
:1006800090916702800F911F90936702809366029A
:1006900020913D02222319F08115924028F080918B
:1006A0003E0281110E94950081E096CFC0906202C7
:1006B000D0906302E0906402F09065026C157D05B5
:1006C0008E059F0509F066CF409166025091670242
:1006D000A416B50608F09CCF5DCF0F931F939A0127
:1006E00000E012E040E050E00E94AD021F910F9147
:1006F0000895CF93DF93D62FC72F40E050E0BA0183
:100700000E94E500882339F088E08093400280E071
:10071000DF91CF9108950E948602882329F1ED2F61
:10072000FC2F80E090E03FEF3EBD0DB407FEFDCF13
:100730002EB52193019680319105B1F78FEF8EBDD3
:100740000DB407FEFDCF8EB58FEF8EBD0DB407FE45
:10075000FDCF8EB5289A8FEF8EBD0DB407FEFDCF6D
:1007600081E0DF91CF91089580E0DF91CF910895EE
:100770000F931F93CF93DF93CDB7DEB760970FB67C
:10078000F894DEBF0FBECDBFBE016F5F7F4F89E023
:100790000E947903882309F447C08981807CA1F0F5
:1007A000803409F445C087E08093400260E070E047
:1007B000CB0160960FB6F894DEBF0FBECDBFDF91C0
:1007C000CF911F910F9108956F81637070E0762F24
:1007D0006627770F770F888590E0880F991F880F1D
:1007E000991F682B792B89858295869586958370CC
:1007F000682B6F5F7F4F80E090E04A854370440F25
:100800002B8527FB222720F9422B2E812F7030E0E9
:10081000240F311D2750310904C0660F771F881F30
:10082000991F2A95D2F7C5CF60E070E0CB01C1CF08
:10083000688566956695862F90E0A0E0B0E0772702
:1008400066272A85622B098510E0102F00272227B2
:1008500017FD2095322F602B712B822B932B6F5F0E
:100860007F4F8F4F9F4FFAE0660F771F881F991FAA
:10087000FA95D1F79ECFBC0189E00C947903BC01B5
:100880008AE00C947903EEE6F0E080818260808358
:1008900084B5826084BD85B5826085BD8AE587BDEB
:1008A00089E09DE39093890080938800EFE6F0E073
:1008B000808182608083E1E8F0E080818D608083C8
:1008C0000895E0EBF0E0808183628083E1EBF0E06B
:1008D000808181608083E1E0F1E0808180648083B9
:1008E000089582E08093C0001092C50080E180935B
:1008F000C400E1ECF0E080818861808308958091FC
:10090000C000881F8827881F08958091C00087FD38
:1009100002C08FEF08958091C60008959091C100A4
:1009200095FDFCCF9091C00095FFF8CF8093C60055
:1009300081E00895FC012081222371F0319680919D
:10094000C10085FDFCCF8091C00085FFF8CF2093CA
:10095000C60021912111F3CF0895CF93DF93109218
:10096000600216161706CCF4E0E6F2E02EE130E065
:10097000CAE0D0E001C09C01CB01BE010E94C807C3
:10098000805D8293C901019761157105A1F7C901C5
:100990008F5B9D4FDF91CF91089520E030E0F7CF3E
:1009A000CF93DF93009799F1109260021816190601
:1009B000ECF5E0E6F2E02EE130E0CAE0D0E001C084
:1009C0009A01BE010E94C807A0E3A80FA293CB0121
:1009D000A90141505109009799F72F5B3D4FF9014B
:1009E00031969091C10095FDFCCF9091C00095FF8C
:1009F000F8CFA093C600A191AA23A9F09091C100BD
:100A000095FDEFCFF2CF8091C00085FD09C08091A8
:100A1000C10085FFF8CF8091C10085FDF8CFF3CFED
:100A200080E38093C600DF91CF910895A0914102A9
:100A3000AA23C9F321E432E0D2CFCF93DF931092FF
:100A400060021616170644F5E0E6F2E02EE130E00B
:100A5000CAE0D0E001C09A01CB01BE010E94C807E4
:100A6000805D8293A901415051096115710599F783
:100A70002F5B3D4FF90131969091C10095FDFCCF60
:100A80009091C00095FFF8CF8093C60081918111AD
:100A9000F3CFDF91CF910895809141028823C9F36C
:100AA00021E432E0E7CF0F931F93CF93DF93CDB7CD
:100AB000DEB7E1970FB6F894DEBF0FBECDBF21E1E0
:100AC000EAE2F2E0DE01919601900D922A95E1F7BB
:100AD000AE014F5F5F4F20E2FA0111922A95E9F7CC
:100AE000DE0190960EE110E016C061E270E06C0F3E
:100AF0007D1F260F371FF90120812C9397FD68C0B9
:100B000095958795959587959595879595958795CD
:100B1000181619069CF40150110911979C012F70A9
:100B2000307837FFE2CF21503109206F3F6F2F5FC0
:100B30003F4FDBCF8091C00085FD09C08091C1008F
:100B400085FFF8CF8091C10085FDF8CFF3CF80E31A
:100B50008093C6008091C10085FDFCCF8091C000CC
:100B600085FFF8CF88E78093C6000B3111056CF044
:100B7000F8013196E40FF51FCE014C9620E3229345
:100B8000E817F907E1F70AE110E0DE01A00FB11F55
:100B900012969C91992389F0F8013296E40FF51F83
:100BA0008091C10085FDFCCF8091C00085FFF8CF0A
:100BB0009093C60091919111F3CFE1960FB6F894FE
:100BC000DEBF0FBECDBFDF91CF911F910F91089572
:100BD0000F9696CF0F931F93CF93DF93CDB7DEB7CA
:100BE000E1970FB6F894DEBF0FBECDBF21E1EAE278
:100BF000F2E0DE01919601900D922A95E1F79E01B7
:100C00002F5F3F4F40E2F90111924A95E9F7DE016B
:100C100090960EE110E016C041E250E04C0F5D1FCF
:100C2000840F951FFC0180818C9377FD66C07595BC
:100C3000679575956795759567957595679516167A
:100C400017068CF4015011091197CB018F70907821
:100C500097FFE2CF0197806F9F6F0196DDCF809164
:100C6000C00085FD09C08091C10085FFF8CF80914B
:100C7000C10085FDF8CFF3CF80E38093C60080915B
:100C8000C10085FDFCCF8091C00085FFF8CF88E7CB
:100C90008093C6000B3111056CF0F8013196E20F1C
:100CA000F31FCE014C9640E34293E817F907E1F7B2
:100CB0000AE110E0DE01A00FB11F12969C9199236A
:100CC00089F0F8013296E20FF31F8091C10085FD93
:100CD000FCCF8091C00085FFF8CF9093C600919122
:100CE0009111F3CFE1960FB6F894DEBF0FBECDBFE2
:100CF000DF91CF911F910F910895615F7F4F97CF43
:100D00000F931F93CF93DF93C62F082F10E0C801D6
:100D10000115110561F0E0E6F2E02AE030E0B901EA
:100D20000E94C807805D8293CB010097C1F7D0E095
:100D3000CE0110926002209761F0E0E6F2E02AE036
:100D400030E0B9010E94C807805D8293CB01009713
:100D5000C1F78091C10085FDFCCF8091C00085FF67
:100D6000F8CF8BE18093C6008091C10085FDFCCF58
:100D70008091C00085FFF8CF8BE58093C600C80145
:100D80000E94D0048091C10085FDFCCF8091C000FD
:100D900085FFF8CF8BE38093C600CE010E94D0047C
:100DA0008091C10085FDFCCF8091C00085FFF8CF08
:100DB00088E48093C600DF91CF911F910F91089531
:100DC0009091C10095FDFCCF9091C00095FFF8CFA8
:100DD0009BE19093C6009091C10095FDFCCF90914E
:100DE000C00095FFF8CF9BE59093C6009091C1009D
:100DF00095FDFCCF9091C00095FFF8CF93E39093C1
:100E0000C6009091C10095FDFCCF9091C00095FF68
:100E1000F8CF8093C6008091C10085FDFCCF809102
:100E2000C00085FFF8CF8DE68093C6000895F0E0FE
:100E3000E4E2508160E86083E5E2508160E860832D
:100E40000895F0E0E4E2508160E86083E5E25081DB
:100E500060E060830895181619066CF420E030E015
:100E6000EFE9FFE03197F1F700C000002F5F3F4F3F
:100E700028173907A9F70895FC0120813181809155
:100E8000C00087FD3CC04FEFF0E0E4E2508160E835
:100E90006083E5E2508160E860831216130664F413
:100EA00080E090E0EFE9FFE03197F1F700C000004B
:100EB000019682179307B1F7F0E0E4E2508160E811
:100EC0006083E5E2508160E060831216130664F4EB
:100ED00080E090E0EFE9FFE03197F1F700C000001B
:100EE000019682179307B1F7413661F04A3709F04E
:100EF000C6CF2C5E3F4F8091C00087FFC4CF40918A
:100F0000C600C2CF24513109BACF8091C10085FDFE
:100F1000FCCF8091C00085FFF8CF8BE18093C600A5
:100F20008091C10085FDFCCF8091C00085FFF8CF86
:100F30008BE58093C6008091C10085FDFCCF809138
:100F4000C00085FFF8CF82E38093C6008091C10086
:100F500085FDFCCF8091C00085FFF8CF8AE48093A7
:100F6000C6000895FFCF0E94710481E00E945801DD
:100F7000882349F087E192E00E949A040E9461046C
:100F800080E090E0089580E092E00E949A04F6CF1D
:100F900097FB072E16F4009407D077FD09D00E9426
:100FA000FE0707FC05D03EF4909581959F4F08956C
:100FB000709561957F4F0895A1E21A2EAA1BBB1B65
:100FC000FD010DC0AA1FBB1FEE1FFF1FA217B30715
:100FD000E407F50720F0A21BB30BE40BF50B661F2B
:100FE000771F881F991F1A9469F7609570958095EF
:100FF00090959B01AC01BD01CF010895AA1BBB1BBD
:1010000051E107C0AA1FBB1FA617B70710F0A61B08
:10101000B70B881F991F5A95A9F780959095BC0129
:08102000CD010895F894FFCF03
:101028004E6F207364206361726420646574656325
:101038007465642E0A0D00436172642063616E203A
:10104800626520726561642E0A00303132333435AE
:0C10580036373839414243444546000019
:00000001FF
