:100000000C9472000C9493000C9493000C94930045
:100010000C9493000C9493000C9493000C94930014
:100020000C9493000C9493000C9493000C94930004
:100030000C9493000C9493000C9493000C949300F4
:100040000C9493000C9493000C9493000C949300E4
:100050000C9493000C9493000C9493000C949300D4
:100060000C9493000C9493000C9493000C949300C4
:100070000C9493000C9493000C9493000C949300B4
:100080000C9493000C9493000C9493000C949300A4
:100090000C9493000C9493000C9493000C94930094
:1000A0000C9493000C9493000C9493000C94930084
:1000B0000C9493000C9493000C9493000C94930074
:1000C0000C9493000C9493000C9493000C94930064
:1000D0000C9493000C9493000C9493000C94930054
:1000E0000C94930011241FBECFEFD1E2DEBFCDBF31
:1000F00000E00CBF12E0A0E0B2E0E0E8F0E100E0D8
:100100000BBF02C007900D92AC33B107D9F722E0C4
:10011000ACE3B2E001C01D92A836B207E1F70E943D
:10012000E1070C943E080C9400008FEF8EBD809187
:100130006602909167029C012F5F3F4F30936702E8
:10014000209366028130924098F44FEF0DB407FE81
:10015000FDCF4EBD80916602909167029C012F5F9A
:100160003F4F30936702209366028130924070F3D4
:100170000DB407FEFDCF289A8FEF8EBD0DB407FE9C
:10018000FDCF10923E02089580934002089580931F
:10019000400260933F020895CF93C82F80913E02A2
:1001A00081110E949500C0933D02CF9108958091E6
:1001B0003C02089580933C020895CF92DF92EF9223
:1001C000FF92CF93C82F6A017B0180913E0281117B
:1001D0000E949500289888EC97E9A4E0B0E03FEFF2
:1001E0003EBD0DB407FEFDCF2EB52F3F41F02AE0F6
:1001F0002A95F1F700C00197A109B10989F78C2F61
:1002000080648EBD0DB407FEFDCF88E190E0B7019C
:10021000A601082E04C076956795579547950A94D0
:10022000D2F74EBD0DB407FEFDCF0897883F2FEFE4
:10023000920769F785E9CC2319F087E8C830B9F44B
:100240008EBD0DB407FEFDCF90E02FEF2EBD0DB497
:1002500007FEFDCF8EB587FF04C09F3F11F09F5F63
:10026000F5CFCF91FF90EF90DF90CF9008958FEF73
:10027000E7CF8F929F92AF92BF92EF92FF920F9330
:100280001F93CF93DF93EA01790120913E0222234D
:1002900071F08090620290906302A0906402B0902E
:1002A000650286169706A806B90609F44BC0609346
:1002B00062027093630280936402909365022091BE
:1002C0003C02233039F029E0660F771F881F991F01
:1002D0002A95D1F7AB01BC0181E10E94DD0048EC19
:1002E00057E964E070E02FEF811114C02EBD0DB40A
:1002F00007FEFDCF9EB59F3FE1F49AE09A95F1F796
:1003000000C0415051096109710981F79DE0909346
:10031000400204C083E08093400280E0DF91CF91EF
:100320001F910F91FF90EF90BF90AF909F908F9093
:1003300008959E3F09F45FC020E12093400290930E
:100340003F02ECCF209166023091670242175307BB
:1003500008F4ADCF8FEF8EBD809166029091670259
:100360008C179D0788F42FEF0DB407FEFDCF2EBD2F
:100370008091660290916702019690936702809344
:1003800066028C179D0780F3A8014150510981F046
:10039000F70198012E0D3F1D215031099FEF0DB43B
:1003A00007FEFDCF8EB581939EBDE217F307B9F727
:1003B0000DB407FEFDCF8EB5F701E40FF51F808366
:1003C0008091660290916702080F191F10936702CF
:1003D0000093660280913D02882319F001151240B6
:1003E00020F080913E02811102C081E097CF0E94EF
:1003F000950081E093CF109267021092660281E02F
:1004000080933E02A7CF0F931F939A0100E012E062
:1004100050E040E00E9439011F910F910895CF9262
:10042000DF92EF92FF921F93CF93DF93182F209AC2
:10043000289A229A219A83E58CBD8AE090E02FEFDA
:100440002EBD0DB407FEFDCF0197D1F7289881E0AE
:1004500092E02FEF2EBD0DB407FEFDCF3EB5019704
:10046000C9F7DBE040E050E0BA0180E00E94DD0027
:10047000C82F813089F0D150A9F781E080934002E4
:10048000C0933F02C0E08C2FDF91CF911F91FF906E
:10049000EF90DF90CF9008954AEA51E060E070E07D
:1004A00088E00E94DD00813009F440C082FF51C025
:1004B000C0933C0288E6C82E88E8D82E8EE1E82E4C
:1004C000F12C07C081E0C81AD108E108F10809F44D
:1004D00062C08AE08A95F1F700C040E050E0BA01BE
:1004E00087E30E94DD0080913C0240E050E0BA01C9
:1004F000823021F440E050E060E070E489E20E9444
:10050000DD008111DFCF80913C02823041F18CB55A
:100510008C7F8CBD111103C08DB581608DBD289A73
:100520008FEF8EBD0DB407FEFDCFADCF84E090E020
:100530003FEF3EBD0DB407FEFDCF2EB50197C9F7C5
:100540002A3A71F189E08093400220933F02C0E093
:100550009ACF92E09093400280933F02ABCF40E06D
:1005600050E0BA018AE30E94DD00811121C08FEFC3
:100570008EBD0DB407FEFDCF8EB5807C803CA1F012
:1005800083E090E02FEF2EBD0DB407FEFDCF3EB50A
:100590000197C9F7BCCF86E080934002C0E073CFDB
:1005A00082E080933C0286CF83E080933C02E8CFD8
:1005B00085E080934002C0E066CF0F931F93011542
:1005C000110579F0F801E40FF51FE130F24028F44D
:1005D0000E9439011F910F91089580E01F910F91A2
:1005E000089581E01F910F91089580913E0281113D
:1005F0000C9495000895CF93DF93D62FC72F40E03A
:1006000050E0BA010E94DD0048EC57E964E070E078
:100610002FEF811114C02EBD0DB407FEFDCF9EB586
:100620009F3FA1F49AE09A95F1F700C0415051091B
:100630006109710981F79DE09093400204C088E050
:100640008093400280E0DF91CF9108959E3F41F07A
:1006500020E12093400290933F02DF91CF910895D3
:10066000ED2FFC2F9F01205F3F4F9FEF9EBD0DB4EC
:1006700007FEFDCF8EB58193E217F307B9F78FEF31
:100680008EBD0DB407FEFDCF8EB58FEF8EBD0DB4C0
:1006900007FEFDCF8EB5289A8FEF8EBD0DB407FEF5
:1006A000FDCF81E0DF91CF9108950F931F93CF93FA
:1006B000DF93CDB7DEB760970FB6F894DEBF0FBEFD
:1006C000CDBFBE016F5F7F4F89E00E94FB02882390
:1006D00009F447C08981807CA1F0803409F445C0C9
:1006E00087E08093400260E070E0CB0160960FB637
:1006F000F894DEBF0FBECDBFDF91CF911F910F9158
:1007000008956F81637070E0762F6627770F770FFB
:10071000888590E0880F991F880F991F682B792B87
:1007200089858295869586958370682B6F5F7F4F4C
:1007300090E080E02A852370220F3B8537FB33272A
:1007400030F9232B3E813F70230F3327331F27506F
:10075000310904C0660F771F881F991F2A95D2F7A9
:10076000C5CF60E070E0CB01C1CF68856695669526
:1007700070E090E080E0CB01772766272A85622B26
:10078000098510E0102F0027012E000C220B330BDF
:10079000602B712B822B932B6F5F7F4F8F4F9F4F5F
:1007A0004AE0660F771F881F991F4A95D1F79ECFA1
:1007B0004F925F926F927F928F929F92AF92BF9271
:1007C000CF92DF92EF92FF92CF93C12CD12C760182
:1007D000CFEF28EE422E23E0522E612C712C4C01DB
:1007E000B12CA12CCEBD0DB407FEFDCF9EB59F3F11
:1007F000B1F08FEFC81AD80AE80AF80A8AE08A9599
:10080000F1F700C0C701B601A30192010E940808D8
:1008100082169306A406B50628F780E001C081E0A1
:10082000CF91FF90EF90DF90CF90BF90AF909F90CF
:100830008F907F906F905F904F90089588EC97E92C
:10084000A4E0B0E03FEF3EBD0DB407FEFDCF2EB5F6
:100850002F3F69F42AE02A95F1F700C00197A1091A
:10086000B10989F78DE08093400280E008952E3F22
:1008700039F080E18093400220933F0280E00895A8
:1008800081E00895BC0189E00C94FB02BC018AE080
:100890000C94FB02EEE6F0E080818260808384B5F8
:1008A000826084BD85B5826085BD8AE587BD89E0AB
:1008B0009DE39093890080938800EFE6F0E08081CB
:1008C00082608083E1E8F0E080818D60808308951C
:1008D000E0EBF0E0808183628083E1EBF0E08081F7
:1008E00081608083E1E0F1E080818064808308950D
:1008F00082E08093C0001092C50080E18093C40024
:10090000E1ECF0E080818861808308958091C000EF
:10091000881F8827881F08958091C00087FF03C023
:100920008091C60008958FEF08959091C10095FDC4
:10093000FCCF9091C00095FFF8CF8093C60081E076
:100940000895FC012081222371F031969091C1001D
:1009500095FDFCCF9091C00095FFF8CF2093C60085
:1009600021912111F3CF08950F931F93CF93DF931C
:10097000CB011092600218161906DCF4E0E6F2E0F2
:10098000C1E4D2E0C095D0950AE010E09E012E0FA0
:100990003F1FB8010E94F407805D8293CB0100974E
:1009A000A9F7C9018F5B9D4FDF91CF911F910F91E7
:1009B000089581E492E0DF91CF911F910F91089506
:1009C000EF92FF920F931F93CF93DF930097B1F1B4
:1009D00010926002181619060CF043C0C0E6D2E06F
:1009E00001E412E0009510952AE0E22EF12CF801C6
:1009F000EC0FFD1FB7010E94F40720E3280F2A9394
:100A0000CB010097A1F7EF5BFD4F31969091C100AC
:100A100095FDFCCF9091C00095FFF8CF2093C600C4
:100A200021912111F3CFDF91CF911F910F91FF9071
:100A3000EF9008958091C00085FD09C08091C100AC
:100A400085FFF8CF8091C10085FDF8CFF3CF80E31B
:100A50008093C600DF91CF911F910F91FF90EF908F
:100A60000895209141022223A9F3E1E4F2E0CDCFE1
:100A7000EF92FF920F931F93CF93DF93CB011092CE
:100A800060021816190664F5C0E6D2E001E412E02F
:100A9000009510952AE0E22EF12CF801EC0FFD1FD5
:100AA000B7010E94F40720E3280F2A93CB01009797
:100AB000A1F7EF5BFD4F31969091C10095FDFCCF02
:100AC0009091C00095FFF8CF2093C600219121118D
:100AD000F3CFDF91CF911F910F91FF90EF90089589
:100AE000209141022223A9F3E1E4F2E0E4CFCF9286
:100AF000DF92EF92FF920F931F93CF93DF93CDB7C7
:100B0000DEB7E1970FB6F894DEBF0FBECDBF21E18F
:100B1000EAE2F2E0DE01919601900D922A95E1F76A
:100B20009E012F5F3F4F690120E2D6011D922A9559
:100B3000E9F7FE01B0960EEF1FEF0C191D09A80191
:100B40004E0F5F1FBA0131979C012F70307837FF2D
:100B500006C021503109206F3F6F2F5F3F4FA1E248
:100B6000EA2EF12CEC0EFD1E2E0D3F1DD9012C910D
:100B7000208397FD0F9695958795959587959595E3
:100B800087959595879518161906CCF28091C10026
:100B900085FDFCCF8091C00085FFF8CF80E3809376
:100BA000C6008091C10085FDFCCF8091C00085FF0B
:100BB000F8CF88E78093C6004B3151057CF04F5F3A
:100BC0005F4FF601E40FF51F9601255E3F4F80E36E
:100BD0008293E217F307E1F76AE170E0FE01E60FA6
:100BE000F71F9281992391F06E5F7F4FD601A60F78
:100BF000B71F8091C10085FDFCCF8091C00085FFAB
:100C0000F8CF9093C6009D919111F3CFE1960FB666
:100C1000F894DEBF0FBECDBFDF91CF911F910F9132
:100C2000FF90EF90DF90CF900895CF92DF92EF92F8
:100C3000FF920F931F93CF93DF93CDB7DEB7E1976A
:100C40000FB6F894DEBF0FBECDBF21E1EAE2F2E0BD
:100C5000DE01919601900D922A95E1F79E012F5F9A
:100C60003F4F690120E2D6011D922A95E9F7DE0186
:100C700090960EEF1FEF0C191D0998012A0F3B1FCC
:100C8000A9011197CB018F70907897FF04C001974D
:100C9000806F9F6F0196E1E2F0E0EC0FFD1F8E0F79
:100CA0009F1FFC0180818C9377FF02C0615F7F4FA3
:100CB000759567957595679575956795759567951C
:100CC00016161706D4F28091C10085FDFCCF8091E5
:100CD000C00085FFF8CF80E38093C6008091C100FB
:100CE00085FDFCCF8091C00085FFF8CF88E7809319
:100CF000C6002B3131057CF02F5F3F4FD601A20F8C
:100D0000B31F9601255E3F4F80E38E93A217B30772
:100D1000E1F74AE150E0DE01A40FB51F12969C9165
:100D2000992391F04E5F5F4FF601E40FF51F80911C
:100D3000C10085FDFCCF8091C00085FFF8CF909366
:100D4000C60091919111F3CFE1960FB6F894DEBFF2
:100D50000FBECDBFDF91CF911F910F91FF90EF900C
:100D6000DF90CF9008950F931F93CF93DF93C62FFB
:100D7000282F30E0C9012115310561F0E0E6F2E0ED
:100D80000AE010E0B8010E94F407805D8293CB0175
:100D90000097C1F7D0E0CE0110926002209761F079
:100DA000E0E6F2E00AE010E0B8010E94F407805D9E
:100DB0008293CB010097C1F79091C10095FDFCCFC4
:100DC0008091C00085FFF8CF8BE18093C6009091A1
:100DD000C10095FDFCCF8091C00085FFF8CF8BE569
:100DE0008093C600C9010E94E0048091C10085FD86
:100DF000FCCF8091C00085FFF8CF8BE38093C600C5
:100E0000CE010E94E0048091C10085FDFCCF80915D
:100E1000C00085FFF8CF88E48093C600DF91CF91B2
:100E20001F910F9108959091C10095FDFCCF909175
:100E3000C00095FFF8CF9BE19093C6009091C10050
:100E400095FDFCCF9091C00095FFF8CF9BE5909366
:100E5000C6009091C10095FDFCCF9091C00095FF18
:100E6000F8CF93E39093C6009091C10095FDFCCF1D
:100E70009091C00095FFF8CF8093C6008091C1008B
:100E800085FDFCCF8091C00085FFF8CF8DE6809373
:100E9000C6000895F0E0E4E2508160E86083E5E296
:100EA000508160E860830895F0E0E4E2508160E8FA
:100EB0006083E5E2508160E06083089518161906AA
:100EC0006CF430E020E0EFE9FFE03197F1F700C08B
:100ED00000002F5F3F4F82179307A9F70895FC0189
:100EE000208131818091C0004FEF87FD4091C60085
:100EF000F0E0E4E2508160E86083E5E2508160E880
:100F000060831216130664F490E080E0EFE9FFE0DE
:100F10003197F1F700C00000019628173907B1F7A3
:100F2000F0E0E4E2508160E86083E5E2508160E057
:100F300060831216130664F490E080E0EFE9FFE0AE
:100F40003197F1F700C00000019628173907B1F773
:100F5000413631F04A3709F0C5CF2C5E3F4FC2CF42
:100F600024513109BFCF8091C10085FDFCCF809114
:100F7000C00085FFF8CF8BE18093C6008091C1004F
:100F800085FDFCCF8091C00085FFF8CF8BE5809375
:100F9000C6008091C10085FDFCCF8091C00085FF17
:100FA000F8CF82E38093C6008091C10085FDFCCF1D
:100FB0008091C00085FFF8CF8AE48093C600089531
:100FC000FFCF0E94780481E00E940F02882339F04D
:100FD00087E192E00E94A10490E080E0089580E023
:100FE00092E00E94A104F8CF97FB072E16F400941C
:100FF00007D077FD09D00E942A0807FC05D03EF4EF
:10100000909581959F4F0895709561957F4F0895B4
:10101000A1E21A2EAA1BBB1BFD010DC0AA1FBB1FFC
:10102000EE1FFF1FA217B307E407F50720F0A21B6E
:10103000B30BE40BF50B661F771F881F991F1A94DB
:1010400069F760957095809590959B01AC01BD0105
:10105000CF010895AA1BBB1B51E107C0AA1FBB1FEC
:10106000A617B70710F0A61BB70B881F991F5A9534
:10107000A9F780959095BC01CD010895F894FFCF14
:101080004E6F2073642063617264206465746563CD
:101090007465642E0A0D00436172642063616E20E2
:1010A000626520726561642E0A0030313233343556
:0C10B000363738394142434445460000C1
:00000001FF
